:020000040800F2
:10000000B80D00209D01000893180008B3170008E0
:1000100091180008F90200087B3400080000000075
:10002000000000000000000000000000A31800080D
:100030004D03000800000000A1180008A5180008E2
:10004000B7010008B7010008B7010008B7010008B0
:10005000B7010008B7010008B7010008B7010008A0
:10006000B7010008B7010008B7010008B701000890
:10007000B7010008B7010008B7010008B701000880
:10008000B7010008B7010008B7010008B701000870
:10009000B7010008B7010008B7010008B701000860
:1000A000B7010008B7010008B7010008B701000850
:1000B000B7010008B7010008B7010008B701000840
:1000C000B7010008B7010008B7010008B701000830
:1000D000B7010008B7010008B7010008B701000820
:1000E000B7010008B7010008B7010008B701000810
:1000F000B7010008B7010008B7010008B701000800
:10010000B7010008B7010008B7010008B7010008EF
:10011000B7010008B7010008B7010008B7010008DF
:10012000B7010008B7010008B7010008B7010008CF
:10013000B7010008B7010008B7010008B7010008BF
:10014000B7010008B7010008B701000895180008BA
:10015000B7010008B7010008B7010008B70100089F
:10016000B7010008B7010008B7010008B70100088F
:10017000B7010008B7010008B7010008000000003F
:10018000B7010008B7010008DFF80CD000F0A2F8B2
:100190000048004781380008B80D00200648804715
:1001A00006480047FEE7FEE7FEE7FEE7FEE7FEE75C
:1001B000FEE7FEE7FEE7FEE73D19000889010008BB
:1001C0002DE9F05F0546002092469B46884606468C
:1001D000814640241BE0284641464746224600F01F
:1001E00069F853465A46C01A914110D31146184631
:1001F000224600F050F82D1A67EB01084F462246C0
:100200000120002100F047F817EB00094E41201EA5
:10021000A4F10104DFDC484631462A464346BDE8E6
:10022000F09F40EA01039B0703D009E008C9121FB1
:1002300008C0042AFAD203E011F8013B00F8013BA0
:10024000521EF9D27047D2B201E000F8012B491ECC
:10025000FBD270470022F6E710B513460A46044663
:100260001946FFF7F0FF204610BD30B50B4601469A
:1002700000202022012409E021FA02F59D4205D345
:1002800003FA02F5491B04FA02F52844151EA2F1EF
:100290000102F1DC30BD202A04DB203A00FA02F131
:1002A000002070479140C2F1200320FA03F3194364
:1002B00090407047202A04DB203A21FA02F0002106
:1002C000704721FA02F3D040C2F120029140084366
:1002D00019467047064C074D06E0E06840F0010300
:1002E00094E8070098471034AC42F6D3FFF750FF6C
:1002F000F83C0008183D0008FEE7000010B5002299
:100300004FEA020100EB8203521CC3F884130F2A48
:10031000F8D300224FF400738418521C84F81C1187
:100320009A42F9D30170417001228270C0F8C4135F
:10033000027640238371417680F81C1380F81D23D8
:1003400080F81F1380F81E13002010BD704772B68E
:10035000FEE7000070B5044600F0F0F80546601CAA
:1003600002D004480078044400F0E8F8401BA042A2
:10037000FAD370BD080000202DE9F84F00224FF09D
:10038000010803254FF00F0E0B6808FA02F4234012
:10039000A3426ED14E68012E05D0022E03D0112E3D
:1003A00001D0122E12D186684FEA420C05FA0CF7E2
:1003B000BE43CF6807FA0CF7374387604668A64309
:1003C0000C79C4F30014944034434460C668570069
:1003D00005FA07FC8C6826EA0C06BC403443C4606E
:1003E0004C68022C01D0122C13D1D40800EB8404E9
:1003F000A346D4F8209054074FEAD46A0EFA0AF6BE
:1004000029EA06090E6906FA0AF646EA0906CBF851
:10041000206006680C7926EA0C0604F00304BC4050
:10042000344304604C68E40065D5364C266846F4D5
:1004300080462660246822F0030604F48044009479
:10044000314C3444A446D4F808489607370F0EFAC6
:1004500007F6B4432D4EB04201D1002624E02C4EC5
:10046000B04201D101261FE02A4EB04202D102263D
:100470001AE040E0284EB04201D1032614E0274E96
:10048000B04201D104260FE0254EB04201D105262D
:100490000AE0244EB04201D1062605E0224EB042C9
:1004A00001D1072600E00826BE402643CCF80868A4
:1004B0001E4E34684F689C43FF0300D51C433460D4
:1004C0001A4C241D26684F689E43BF0300D51E4367
:1004D0002660164E083634684F689C43FF0200D5EC
:1004E0001C433460114E0C3634684F689C43BF0285
:1004F00000D51C433460521C102AFFF445AFBDE800
:10050000F88F0000443802400030014000000240F3
:100510000004024000080240000C024000100240AB
:100520000014024000180240001C0240003C014040
:100530000AB1816170470904FBE700000148806847
:100540007047000008000020D0F8C00202F07BB91C
:10055000D0F8C00202F081B9006802F0DFBC006888
:1005600002F0E0BC01EB810100EBC10090F85C00FF
:10057000704701EB810100EBC100C06C704710B502
:10058000044690F8B802012809D0012084F8B80286
:10059000206802F0D2FC002084F8B80210BD0220CE
:1005A00010BD2DE9FE430546DDE90B7095F8B84214
:1005B000DDF828C0012C1CD001EB81044FF00109AB
:1005C00005EBC40485F8B892002684F83D6084F8F1
:1005D0003830A4F8400084F8391084F83F7002F0F5
:1005E0007F0884F83A805FEA026805D584F83B907A
:1005F00004E00220BDE8FE8384F83B6084F83CC040
:10060000CDF800C0CDE90170286802F0F7FC85F84C
:10061000B862EFE770472DE9F0030E46DDE906C941
:10062000DDE9087401EB860100EBC101022581F8C8
:100630003B2081F83F30BCF1000F0AD081F84250D6
:1006400000246BB1012B2DD0022B12D0032B16D11D
:100650000FE04FF0030881F8428081F83D40EFE75A
:10066000BCF1010F0BD152B9CFB9012281F8512051
:1006700003E0A2B191F85020A2B181F84250C1E943
:10068000119781F85C40CC6481F8396081F85D4055
:10069000027C0068BDE8F003383102F02BBD91F810
:1006A0005120E9E781F84240E9E700002DE9F041F7
:1006B00004460068064602F03CFC01287ED1206812
:1006C00002F047FE002879D0206802F042FE800246
:1006D00003D521684FF400104861206802F039FE0C
:1006E000C00203D521684FF480104861206802F0F1
:1006F00030FE400103D521684FF0806048612068DA
:1007000002F027FE800702D5216802204861206898
:1007100002F01FFE80000ED521684FF000504861A6
:10072000D6F84004C00706D12046FFF711FF01218B
:10073000206802F0F3FD206802F00BFEC00102D534
:10074000204600F073FF206802F003FE000705D585
:10075000204600F0D4F8216808204861206802F0A3
:10076000F8FD800123D5206802F0C0FC0746002573
:100770004FF0010814E000BF05F00F0108FA01F086
:1007800038420CD006EB4510D0F80005E9B2000461
:10079000204602D500F0ECFC01E000F025FE6D1CC7
:1007A000A068A842E8D821684FF00070486120682E
:1007B00002F0CFFDC043C0060ED400E00CE020687C
:1007C000816921F010018161204600F079FF2068E5
:1007D000816941F010018161BDE8F08170B58AB096
:1007E000040005D094F8B9022568002618B107E086
:1007F00001200AB070BD84F8B862204600F028F8E5
:10080000032084F8B902E86BC00500D42661206893
:1008100002F02EFB04F1100128220D466846FFF776
:1008200000FD94E80F0002F0CDFA0121206802F0EB
:10083000BBFD282229466846FFF7F3FC94E80F0029
:1008400002F000FD012084F8B9020020D1E7000089
:1008500030B587B0044614216846FFF7FBFC2068DA
:10086000B0F1A04F39D11E480024016841F00101C8
:10087000016000681B4D00F0010005904FF400700E
:10088000CDE90004694628460294FFF775FD4FF450
:10089000C05000900220CDE90104032003900A20FB
:1008A000049069462846FFF767FD0D48001D016862
:1008B00041F0800101600A481430016841F4804130
:1008C00001600068002200F480400590114643203A
:1008D00000F0AAF8432000F099F807B030BD0000FE
:1008E0003038024000000240D0F8C00202F038B8B0
:1008F000D0F8C00202F038B8006802F03CBDD0F871
:10090000C00201F0E7BF10B5044690F8B802012814
:100910000DD0012084F8B802206802F0D7FA012136
:10092000206802F0BDFA002084F8B80210BD022051
:1009300010BD10B5044690F8B802012809D0012076
:1009400084F8B802206802F047FD002084F8B8025D
:1009500010BD022010BD00000248816802781144D9
:1009600081607047080000200B4810B5016841F411
:1009700000710160016841F480610160016841F427
:1009800080710160032000F06FF8002000F006F88D
:1009900000F024F8002010BD003C024070B50D4D61
:1009A00004464FF47A712878B1FBF0F00A490968DF
:1009B000B1FBF0F000F002FB48B9102C07D2002286
:1009C0002146501E00F030F800206C6070BD012000
:1009D00070BD000008000020140000200A4808B57F
:1009E000016841F480410160006800F4804000909B
:1009F0000548001F016841F080510160006800F067
:100A00008050009008BD000044380240002809DBF7
:100A100000F01F02012191404009800000F1E02018
:100A2000C0F8001170470000F0B40E4B1B680C4674
:100A3000C3F30223C3F10705042D00D90425191DB2
:100A4000072901D2002300E0DB1E012606FA05F18A
:100A5000491E214099409E40761E16403143F0BC0D
:100A600002F020BD0CED00E0064900F00702086826
:100A70004FF6FF03184040EA0220034A1043086083
:100A8000704700000CED00E00000FA052DE9F0478A
:100A90000E46050065D0DFF81481D8F80000F7B2E3
:100AA00000F00F00B04207D288F80070D8F80000BC
:100AB00000F00F00B04254D128683D4C810712D598
:100AC000400703D5206840F4E050206028780007F4
:100AD00003D5206840F4604020602068A96820F0B9
:100AE000F000084320602878C0072DD0304968689E
:100AF0000839012812D0022813D0032811D0096820
:100B0000890700292DDA216821F0030101432160C2
:100B1000FFF714FD814641F2883A0EE00968890327
:100B2000EFE709688901ECE7FFF708FDA0EB090191
:100B3000514502D90320BDE8F0872068696800F0BC
:100B40000C00B0EB810FEFD1D8F80010404601F057
:100B50000F01B14207D90770006800F00F00B042E2
:100B600001D00120E7E72878400705D52068E9682B
:100B700020F4E050084320602878000706D520685C
:100B8000296920F4604040EAC100206000F038F894
:100B90002168084AC1F30311515CC8400649086046
:100BA00006480068FFF7FAFE0020C4E7003C024058
:100BB0000838024030390008140000200C000020E2
:100BC0000448054900680968044AC1F38221515C60
:100BD000C84070471400002008380240403900081F
:100BE0000448054900680968044AC1F34231515C70
:100BF000C8407047140000200838024040390008FF
:100C0000154810B5006810F00C02144813D04110BC
:100C1000042A0FD0082A0ED10F4C241F2268236803
:100C200002F03F025B0207D52068C0F38810A0FBEA
:100C3000010106E0084610BD2168C1F38811A1FB3F
:100C400000010023FFF7BCFA2168C1F30141491CF0
:100C50004900B0FBF1F010BD083802400024F40058
:100C60002DE9F84F04006ED02078DFF83C93C007E0
:100C7000A9F104054AD009F104000168C1F381011A
:100C8000012908D00068C0F3810002280AD1D9F8F0
:100C90000000400206D52868800337D56068002828
:100CA000E1D033E06068B0F5803F10D0B0F5A02F00
:100CB000286810D020F480302860286820F4802034
:100CC00028606068A8B1FFF739FC06460DE0286887
:100CD00040F48030F4E740F480202860F7E700BF5C
:100CE000FFF72CFC801B642873D828688003F7D595
:100CF0000CE0FFF723FC064605E000BFFFF71EFCF3
:100D0000801B6428F0D828688003F7D42078DFF8A7
:100D10009C8280074FF0000A3ED5A348001D016861
:100D200011F00C0F08D00068C0F3810002280BD12D
:100D3000D9F80000400207D42868800716D5E0687B
:100D4000012800D112E02BE1E068B8B10120C8F819
:100D50000000FFF7F3FB064605E000BFFFF7EEFBE0
:100D6000801B0228C0D828688007F7D52868216929
:100D700020F0F80040EAC10028600DE0C8F800A0AB
:100D8000FFF7DCFB064604E0FFF7D8FB801B0228D8
:100D90001FD828688007F7D42078000722D5824E14
:100DA00083486169703671B101210160FFF7C6FBAC
:100DB000074604E0FFF7C2FBC01B022809D83068D1
:100DC0008007F7D50EE0C0F800A0FFF7B7FB074695
:100DD00005E082E0FFF7B2FBC01B02287DD8306837
:100DE0008007F7D42078400768D5DFF8BCB100272A
:100DF0000BF13C0BDBF80000C0000BD4DBF800105B
:100E000041F08051CBF80010DBF80000012700F022
:100E100080500090674E3068C00510D4306840F4B0
:100E200080703060FFF78AFB009005E0FFF786FBDB
:100E30000099401A022850D83068C005F6D55A4E9D
:100E4000A0686C3601280FD00528306810D020F03B
:100E500001003060306820F004003060A068B8B154
:100E6000FFF76CFB00900FE0306840F00100F4E702
:100E700040F004003060F7E7FFF760FB0099411A8B
:100E800041F28830814266D830688007F4D50EE0A0
:100E9000FFF754FB009007E0FFF750FB0099411A61
:100EA00041F28830814256D830688007F4D42FB19F
:100EB000DBF8001021F08051CBF80010A069C8B316
:100EC0003949091D0968C1F3810102294AD0022864
:100ED000504607D0C8F8600000E03CE0FFF72EFB6A
:100EE00004463BE04746C8F86000FFF727FB06468C
:100EF00005E000BFFFF722FB801B02282BD82868E3
:100F00008001F7D4D4E907010843A16A2A4A4908B5
:100F100002EB0141626A41EA8211084394F82C1005
:100F200040EA0161C9F8001001203866FFF706FBAE
:100F3000044606E036E000BFFFF700FB001B022876
:100F400009D828688001F7D52CE000BFFFF7F6FA32
:100F5000001B022802D90320BDE8F88F2868800111
:100F6000F4D41FE00128F7D0D9F80000E26900F4BA
:100F70008001914214D1226A00F03F0191420FD1C9
:100F800047F6C071626A0140914209D1A26A00F439
:100F90004031914204D1E16A00F07060884201D092
:100FA0000120D9E70020D7E704380240000047427B
:100FB000800E4742007000400000FFFF10B5401E49
:100FC000B0F1807F01D3012010BD4FF0E0246061BB
:100FD0000F21601702F066FA0020A061072020614F
:100FE000002010BD70B5040004D094F8390000252D
:100FF00010B106E0012070BD84F83850204600F0A2
:1010000023F8242084F839002068C16821F40051B5
:10101000C160204600F0A0FC2068016921F49041E5
:1010200001612068416921F02A0141612068C1689D
:1010300041F40051C160E563202084F8390084F850
:101040003A00002070BD000010B586B0044614219F
:101050006846FFF7FFF814492068884221D11348F9
:101060000021026842F480220260006800F48020BF
:1010700005900E481038026842F0020202600068D3
:1010800000F0020005904FF4406000900220CDE98E
:101090000101032003900720049069460448FFF7EC
:1010A0006BF906B010BD0000004800404038024017
:1010B000000402402DE9F843044690F839001F4629
:1010C00016460D46202850D1B5B1AEB194F838007F
:1010D00001284AD0012084F838004FF00008C4F8F5
:1010E0003C80212084F83900FFF728FAA684814645
:1010F000E68484F8388026E00120BDE8F883E08C9F
:10110000401EE084A0684B46B0F5805F4FF00002BF
:101110004FF080012046009703D000F0B1FCE8B901
:101120000DE000F0ADFCC8B928882168C0F30800C4
:101130004860206908B16D1C05E0AD1C03E0216822
:1011400015F8010B4860E08C0028D8D14B460022EE
:1011500040212046009700F093FC08B10320CCE723
:10116000202084F839000020C7E70220C5E70000EE
:101170002DE9F05F074600680E4600EB4114D4F8F5
:1011800008054FF00409420701EB86004FF0050BFC
:101190004FF0100807EBC00508D5C4F80895D4F83F
:1011A0000C0540F00200C4F80C0542E0D4F8080534
:1011B000C0050DD54FF48070C4F80805072085F8E8
:1011C0005D00D4F80C0540F00200C4F80C0517E0EF
:1011D000D4F80805800601D5202028E0D4F80805B9
:1011E0004FF0080A00070FD5D4F80C0540F00200B4
:1011F000C4F80C0585F85DB0C4F80885C4F808A5E6
:10120000386801F09AFE14E0D4F80805400510D5BE
:10121000D4F80C0540F00200C4F80C05386801F061
:101220008CFEC4F8088585F85DA04FF48060C4F892
:101230000805D4F8080580050ED5D4F80C0540F053
:101240000200C4F80C05314604F5A164386801F0C9
:1012500074FE4FF40070A4E0D4F808054FF00001CC
:10126000C0074FF0010242D0386930B1A86CD4F801
:101270001035C3F31203C01AE86485F85D20A96530
:10128000C4F8082595F83F0030B1022804D003289F
:1012900011D0012818D023E0D4F80C0540F002004A
:1012A000C4F80C05314604F5A164386801F045FE28
:1012B000C4F8008014E0D4F8000540F00050C4F8F1
:1012C000000585F85C2007E085F85C2095F8500063
:1012D00080F0010085F8500031463846FFF79AF952
:1012E00015F8500F80F001002870BDE8F09FD4F889
:1012F000080580073ED5D4F80C0520F00200C4F89C
:101300000C0595F85D00022301280AD005280BD0B2
:1013100006280CD008280AD003281AD007281BD08A
:101320001FE085F85C201CE085F85CB019E0A86D32
:10133000401CA86503280CD9A96585F85C9000BFFE
:10134000D4F8000520F0804040F00040C4F80005CB
:1013500007E085F85C30F3E7A86D401CA86585F8C8
:101360005C90C4F8083595F85C2031463846FFF7A4
:1013700051F9BAE7D4F80805000614D5D4F80C05DD
:1013800040F00200C4F80C05A86D3146401CA86569
:10139000062085F85D0004F5A164386801F0CDFDF4
:1013A00080202060A1E7D4F80805C0069DD595F8F7
:1013B0003F00032803D020B1022802D011E0A96524
:1013C00005E0A965386960B9032085F85D00D4F8A7
:1013D0000C0540F00200C4F80C053146386801F0F5
:1013E000ACFDC4F8088580E72DE9F047026802EB00
:1013F0004114D4F808254FF00403520709D5C4F866
:101400000835D4F80C0540F00200C4F80C05BDE81E
:10141000F087D4F8082501EB810596064FF000020D
:1014200000EBC5054FF0020C15D52023C4F8083594
:1014300095F83D30012BEAD185F83D2085F85CC058
:10144000D4F80C2542F00202C4F80C250068BDE86F
:10145000F04701F072BDD4F8086577064FF0010639
:1014600011D585F85D3085F83D60AA65D4F80C2566
:1014700042F00202C4F80C25006804F5A16401F0F2
:101480005CFD402010E0D4F80875BF050ED5D4F8F7
:101490000C2542F00202C4F80C25006804F5A16492
:1014A00001F04BFD4FF400702060B0E7D4F80875F0
:1014B000FF070FD0AA65D4F80C2542F00202C4F849
:1014C0000C25006804F5A16401F037FD266085F85D
:1014D0005D609CE7D4F808754FF005095FEA07786E
:1014E0004FF008070DD5C4F80875D4F80C2542F064
:1014F0000202C4F80C25006801F01FFD85F85D901C
:1015000085E7D4F808854FF0100A5FEAC86818D557
:10151000AA65032285F85D2095F83D2022B995F84B
:101520003C200AB985F83D60D4F80C2542F002024F
:10153000C4F80C25006804F5A16401F0FEFC5046D7
:10154000B2E7D4F808855FEA08680FD5D4F80C250F
:1015500042F00202C4F80C25006804F5A16401F011
:10156000ECFC062085F85D0080209DE7D4F8088516
:101570005FEA485812D5D4F80C2542F00202C4F8AC
:101580000C25006804F5A16401F0D7FCC4F800A0A4
:101590004FF48060206085F85D7038E7D4F80875F6
:1015A000BF0796D5D4F80C7527F00207C4F80C7560
:1015B00095F85D70012F0AD0032F17D0042F15D096
:1015C000052F16D0062F17D0082F15D027E085F845
:1015D0005C6095F83F20022A01D0032A1FD195F8BC
:1015E000512082F0010285F8512018E085F85CC096
:1015F00015E085F85C9012E0AE6D761CAE65032EAA
:1016000003D9AA6585F85C3001E085F85CC0D4F8A0
:10161000002522F0804242F00042C4F80025C4F8C0
:1016200008C595F85C20FEF7F5FFF0E67CB5046888
:101630000546D4F840040190D4F8400420F02E0070
:1016400000900198800709D50198C00702D028466C
:10165000FEF77AFF009840F0020000900198000722
:1016600024D5009840F008000090019840071AD552
:10167000A869022803D0E86801280CD00FE001987F
:10168000C0F341400228286803D0012101F046FE42
:1016900005E00221FAE74EF66020C4F8040428466B
:1016A000FFF726F902E02846FFF71EF901988006A9
:1016B000009802D540F020000090C4F840047CBDA2
:1016C0002DE9F041024600680646016AC1F3434332
:1016D00001F00F07C1F30A14022B25D1002C23D0EF
:1016E00007EB870102EBC105696C00291CD022467B
:1016F00001F033FE686C20446864E86C2044E864C0
:1017000006EB4710D0F81015084A11420CD0D0F85B
:10171000001521F0804141F00041C0F8001515F896
:10172000500F80F001002870BDE8F0810000F81F24
:10173000F0B502460020157A537A1668044643B184
:101740008B4220D9536801FB035106EBD10601F00F
:1017500007055368D90803E03078E700B840641CF7
:101760005F0701D04F1C00E00F46A742F4D8E840C5
:10177000012101FA03F4641ED5682040854202D895
:101780001569854201D20020F0BD957A65B15B1ED6
:101790009940014208D060EA0401D069012801D0D3
:1017A0004843F0BD0846F0BDD1690129FBD048434C
:1017B000F0BDFEE720B1002201210248FEF7B8BECD
:1017C0000122F9E70008024030B587B014216846CD
:1017D000FEF740FD19480024016841F080010160D6
:1017E000016801F080010591016841F00401016088
:1017F000016801F004010591016841F002010160F6
:10180000016801F002010591016841F001010160E8
:1018100000680B4D00F001000590002201212846D0
:10182000FEF786FE01210091CDE9011469462846A4
:101830000394FEF7A1FD07B030BD00003038024030
:101840000008024010B501220B490C4800F0C3FF0C
:1018500008B1FEF77CFD0A49084801F055FA08B1C5
:10186000FEF775FD054801F092FA002803D0BDE8A7
:101870001040FEF76CBD10BDA52D00080C01002026
:1018800018000020014801F02BB900000C010020D5
:10189000FEE7FEE70148FEF709BF0000E404002070
:1018A00070477047FFF758B830B593B0302168469D
:1018B000FEF7D0FC14210CA8FEF7CCFC1D48002537
:1018C000016841F080510160006800F08050119083
:1018D0001948016841F4804101600068022400F465
:1018E0008040119001200090000401908001CDE91A
:1018F000064004200890A820CDE9090407200B9099
:101900006846FFF7ADF908B172B6FEE70CA90F20E3
:1019100081E831004FF4A0500F904FF480501090A8
:1019200005210CA8FFF7B2F8002801D072B6FEE737
:1019300013B030BD403802400070004005480168D7
:1019400041F47001016003494FF000608039086084
:101950007047000088ED00E02DE9F0410446006882
:101960000169E26821F44051114301612169A068D5
:10197000E26908436169114308432168CA6849F272
:101980000C639A430243CA6020684169A26921F44A
:10199000407111434161E069192764253226B0F591
:1019A000004F354A354920684FF0000806D088427C
:1019B00001D0904236D1FFF713F935E0884201D0CB
:1019C000904202D1FFF70CF901E0FFF7F9F86168E6
:1019D0004A18A0FB070148EB0803FEF7F1FB01469C
:1019E000B0FBF5F00201B1FBF5F06FF018035843BE
:1019F00001EB800006EBC000B0FBF5F000F0F80052
:101A000002EB4002B1FBF5F0584301EB800006EB1E
:101A1000C000B0FBF5F000F00700216810448860BA
:101A2000BDE8F081FFF7CCF861688B0F8A00A0FB5E
:101A30000701FEF7C5FB0146B0FBF5F06FF0180299
:101A4000504301EB800006EB0010B0FBF5F000F016
:101A5000F002B1FBF5F002EB0012B1FBF5F06FF014
:101A60001803584301EB800006EB0010B0FBF5F0C3
:101A700000F00F00D1E70000001401400010014009
:101A80002DE9F041984617460E460446069D1DE096
:101A9000681C1BD02DB1FEF751FDA0EB0800A84239
:101AA00014D92068C16821F4D071C16020684169EF
:101AB00021F001014161202084F8390084F83A00C6
:101AC000002084F838000320BDE8F0812068006819
:101AD00036EA000004D00020B842D9D00020F3E755
:101AE0000120F9E710B500224FF6FF7300EB8204E6
:101AF000B4F8844324040BD49A4207D002F00F03B5
:101B000000EB830041F40041C0F88413D0B210BD53
:101B1000521CD2B20B2AE9D31A46F7E710B500F0EF
:101B200089FE002010BD8278012A07D102220274AA
:101B300001224274002242828182C2820022114626
:101B400000F00FB87FB51C46012501AE00230095BB
:101B500086E80E002A46214600F038FF04B0002037
:101B600070BD70B504460120A3780546012B0BD04B
:101B7000022B08D1204600F0AFFC58B1032809D051
:101B8000022800D1A57070BDA160A2812576022136
:101B9000A17070BDA5700021217670BD7FB51D4676
:101BA00090F81D33089C03B100240123CDE90031D6
:101BB000CDE9022400231A46294600F007FF04B0AD
:101BC000002070BD1FB500231446CDE90031082266
:101BD000CDE902231A46214600F0F8FE04B00020A9
:101BE00010BDFEF7B7BB000070B50546002005F537
:101BF0004E7500BF00EB800404EBC00405EB440409
:101C0000E67B0A348E4201D0FF2909D1A67996429B
:101C100001D0FF2A04D1E4799C4206D0FF2B04D0E6
:101C2000401CC0B20228E5D3FF2070BD0B2907D2AB
:101C300000EB8100B0F88413C1F30E01C0F88413E7
:101C40000020704730B48578029C012D0FD141F0FF
:101C5000800101740621417403214282B1EB122FED
:101C600002D140F2094100E000218182C482224673
:101C700030BC1946FFF775BF0A8803781A440A80FA
:101C8000017808447047F8B50E4600F11C05009134
:101C900004462B464FF400720021FFF7D3FF0700E4
:101CA00005D13246294604F54E7000F0AAFE3846AA
:101CB000F8BD38B50D460091044600F58E734FF41B
:101CC00080720021FFF7BEFF002839D194F81C1163
:101CD00084F8261394F81D1184F82713B4F81E1104
:101CE000A4F8281394F8201184F82A1394F82111E9
:101CF00084F82B1394F8221184F82C1394F82311F0
:101D000084F82D13082D1BD9B4F82411A4F82E1330
:101D1000B4F82611A4F83013B4F82811A4F832133B
:101D200094F82A1184F8341394F82B1184F835139D
:101D300094F82C1184F8361394F82D1184F8371385
:101D400038BDF8B51C461646009341F4407200F5C4
:101D50008E731D460021FFF775FF002814D16978A6
:101D6000032911D129788A1EA24200D814460021E5
:101D7000A2B2AD1C04E06B5C891C06F8013B89B281
:101D80009142F8D300213170F8BD01004FF00000FE
:101D900004D0012901D0022901D00220704701207E
:101DA0007047F8B50546D0F87C030126C469607910
:101DB000062853D2DFE800F003522D03354005F129
:101DC0001C00ED8B092D0DD90921ADF8001005E09F
:101DD0006946FFF751FF4178212905D0BDF8001071
:101DE000A942F5D302201AE0017884F82610417840
:101DF00084F8271041882185017984F82A104179D7
:101E000084F82B10817984F82C10B0F80700E08555
:101E1000E8E7E18D284600F0F8F890B904206071F9
:101E20001CE000221146284600F039FB052108B1CC
:101E3000032813D1617111E00021284600F03CFB1A
:101E400010B1032809D009E001206071D5F8D4232E
:101E5000022128469047002600E002263046F8BDC1
:101E60003EB5054600F0BAF84FF47A74012814D153
:101E7000284600F0DFF881780379C2788DE80E00FB
:101E80004378027812A11D4801F0F8FA1B4982B28A
:101E90002346A1F14000FFF70DF9284600F09EF817
:101EA000022813D1284600F0BBF800F085F802465E
:101EB00013A1124801F0E2FA03B023460F49BDE82E
:101EC000304082B2A1F14000FFF7F4B83EBD0000FF
:101ED00058203D2025642C2059203D2025642C20AD
:101EE0004231203D2025642C204232203D202564B3
:101EF0002C204233203D202564200A00A800002029
:101F00004B657920707265737365643A2025632090
:101F10000A00000000238380C38083720281016075
:101F2000704770B5837A0024BBB901238372002304
:101F300011E0C5888688B54212D00668755D01F843
:101F4000015BC5886D1CADB2C5800689B54200D164
:101F5000C4805B1C9BB29342EBD38472104670BD6D
:101F60008472184670BDF0B5837A0024EBB9012362
:101F70008372002317E08588C7886E1CBE4217D085
:101F8000B0F808C0664500D197B1076811F8016B39
:101F90007E5585886D1CADB285800689B54200D11D
:101FA00084805B1C9BB29342E5D384721046F0BDE3
:101FB00084721846F0BD0000064A417A8378515C6D
:101FC000012B01D0807910B10248823800E002482C
:101FD000405C70476C3B0008683A00080146FF20EF
:101FE0000A780B2A0ED191F8242302EB820303EB2B
:101FF000C20201EB420191F84913012903D00229E1
:1020000000D1012070470220704708B500F58E739B
:1020100000914FF408520121FFF714FE08BD0000A3
:1020200010B500F0D5F808B1002010BD004810BD73
:10203000A807002010B500F051F908B1002010BD2C
:10204000004810BD4800002030B4A125029C057452
:10205000012542EA01214574418200218182C48226
:10206000224630BC1946FFF77CBD70B50546D0F856
:102070007C030026C469617839B12846FFF74EFD1C
:1020800061782846FFF7D2FD6670217839B128467D
:10209000FFF744FD21782846FFF7C8FD2670D5F8E4
:1020A0007C03C06920B101F0C3FBD5F87C03C66195
:1020B000002070BD2DE9FE430546D0F87C030027C3
:1020C000FF23017901222846FFF78EFD0646FF28EF
:1020D00020D0022E1ED20146284600F023FEC8B9A9
:1020E000342001F0EFFBD5F87C130446C8612000D2
:1020F00010D03421FEF7AEF80720A07006EB860062
:1021000000EBC60005EB400696F84903012804D011
:10211000022804D00220BDE8FE832B4800E02B48B3
:1021200020630020A070607196F84E03A076B6F888
:102130005003208396F85203A0830A2801D20A2074
:10214000A08396F84603022801D8804637E04FF076
:10215000020800BF06EBC7004FF0030990F84E13CA
:10216000080613D521712846FFF7BCFC60700146B4
:10217000208B95F81D33CDE90039029095F81C337A
:102180002279284600F033FC617812E0E17028469D
:10219000FFF7A8FC20700146208B95F81D33CDE990
:1021A0000039029095F81C33E278284600F01FFCB5
:1021B00021780022284600F0E7FB7F1CFFB247454C
:1021C000C8D30020A7E700008122000849230008A7
:1021D00070B5D0F87C03C469228BEAB3244904F1BA
:1021E0000800FFF79EFE218B88423ED10021214846
:1021F000FFF79EFA204C002160701E482030FFF748
:1022000097FAA0701B4800214030FFF791FAE07068
:10221000184800216030FFF78BFA20711548002123
:102220008030FFF785FA607112480021A030FFF777
:102230007FFAA0710F480021C030FFF779FAE071F2
:102240000C480021E030FFF773FA20720025294680
:102250000A48FFF76DFA00E007E061196D1CEDB266
:102260004872062DF3D3002070BD022070BD00001F
:102270004000002048390008A8070020483A00081C
:1022800070B50146D0F87C03124A134DC369002093
:10229000907050701071D070907150711072D07138
:1022A0000246A5F1080400BF45F8220044F82200C8
:1022B000521C022AF8D3188B082801D90820188349
:1022C000502203F1080001F58E715C61FFF722FED8
:1022D000002070BDA80700204000002010B5D0F8F5
:1022E0007C03C469228B42B3154904F10800FFF74F
:1022F00018FE218B884220D100211248FFF718FADE
:102300000F4C0021083C20700E482030FFF710FAD7
:1023100060700C4800216038FFF70AFAA070094885
:1023200000214038FFF704FAE07006480021203809
:10233000FFF7FEF92071002010BD022010BD000043
:1023400050000020B43C000870B50146D0F87C0372
:10235000114A114DC3690020107050709070D070F8
:1023600010710835024605F1080400BF45F8220047
:1023700044F82200521C022AF8D3188B082801D9ED
:1023800008201883502203F1080001F58E715C616A
:10239000FFF7C0FD002070BD480000202DE9F84384
:1023A0000646D0F87C0300250127C4694FF00408D5
:1023B000A07807285FD2DFE800F004095E5E2924D8
:1023C0003800216B30468847A77054E0207E00908B
:1023D0000022012130466369FFF736FE05004FF009
:1023E000050107D0012D07D0032807D00720A070D2
:1023F000022540E0A1703EE0A77000E0A17000253A
:1024000039E0D6F8C403C00733D134E06378227EC4
:102410003046616900F0FEF90620A070D6F8C403CA
:102420002062002084F8240025E06178304600F026
:102430004DFA01286178304604D000F047FA0528AB
:1024400012D018E000F02DFA94F8241099B990B148
:10245000228B04F108006169FFF785FD84F8247080
:102460003046FFF7FDFC06E0A17E3046FFF75BFB40
:1024700008B984F802802846BDE8F883D0F87C13B8
:10248000C9698A78062A08D1D0F8C4030A6A801A72
:102490008A8B904201D3042088700020704721234A
:1024A00003740A23437442EA01214182002181829C
:1024B000C1820A46FFF755BB212202740B224274E7
:1024C000002209B1428201E0012141828282C2825E
:1024D00000221146FFF745BB2DE9F84F0125017E8B
:1024E00004460B26092728464FF007084FF0050A37
:1024F0004FF00D090C2919D2DFE801F0B4060E26C1
:10250000313C48606B7C899A627904F11001204665
:10251000FFF758FB022012E06179204600F0D6F95F
:10252000012804D0042871D002287FD09AE0207CB2
:10253000E18A00F0800021B180283AD10320207682
:1025400090E0802814D02EE0D4F8C403E0812379F1
:10255000A2892046A168FFF7F5FA0420EFE7217968
:10256000204600F0B3F9012802D0052840D056E0FB
:10257000277677E000906379A2892046A168FFF76B
:102580000DFBD4F8C403E0810620D8E7617920462A
:1025900000F09CF9012806D0052807D0022808D0B1
:1025A000042809D05EE084F818805BE00C202076D7
:1025B0001EE084F818A055E0267652E00022237928
:1025C00011462046FFF7BEFAD4F8C403E081082084
:1025D000B5E72179204600F079F9012804D00428D4
:1025E00024D0052804D03DE084F81890002539E077
:1025F000032537E000900022637911462046FFF75B
:10260000CDFAD4F8C403E0810A2098E70EE061799E
:10261000204600F05BF9012804D00228A8D0042845
:1026200004D01FE0002584F818901BE0267619E0FE
:10263000617E491CC9B26176022902D82076A07059
:1026400010E0D4F8D4230621204690470025657673
:1026500061792046FFF7EAFA21792046FFF7E6FA8A
:10266000257002252846BDE8F88F00002DE9FE43BD
:1026700004460126407800250D27B04604F58E72E9
:1026800008280CD2DFE800F0042A3C686F86929993
:1026900008212046FFF70DFB10B103280DD097E06D
:1026A00094F82D03A07184F8018094F81D13009113
:1026B000CDE9015094F81C3338E094F81E03401C17
:1026C000C0B284F81E03032818D861792046FFF7AA
:1026D000ADFA21792046FFF7A9FA59E012212046E8
:1026E000FFF7E7FAA8BB022047E000BF94F81E03FB
:1026F000401CC0B284F81E03032840D9277067E04D
:102700000121204600F019FB10B1032822D05FE020
:102710000220FFF766FA84F81C8303206070A0791A
:1027200094F81D13CDE900154346029021798022CB
:10273000204600F05CF9A07994F81D130091CDE9D2
:10274000015094F81C3361790022204600F04FF9C3
:102750003EE00EE027702EE009212046FFF793FAB5
:1027600038B9042009E0B4F83A132046FFF78BFA91
:1027700010B10328BAD02BE00520607028E0617901
:102780002046FFF753FA21792046FFF74FFA65708C
:1027900025701DE094F8341306250AE0FF23204637
:1027A000FFF7CFFA38B1032805D011E094F83513BC
:1027B00007250029F2D165700AE094F8361331B18B
:1027C000FF232046FFF7BDFA08B1032800D10026F9
:1027D0003046BDE8FE8370B50E46040018D084F87C
:1027E000CC230025C4F87C53C4F8805304F5487406
:1027F000FDF784FDE57025706570A570A4F548743B
:102800000EB1C4F8D463204600F074F8002070BD07
:10281000022070BD7FB51C46012501AE0023009546
:1028200086E80E0003232A46214600F0CFF804B0C4
:10283000002070BD10B5D0F8D003FDF7A0FEBDE8B4
:102840001040FFF7A2BA012180F82013002180F880
:10285000211380F822130846704710B50446012062
:1028600084F82103002084F8200384F82303204601
:1028700000F0A3F821792046FFF7D8F961792046C6
:10288000FFF7D4F9002010BD10B590F8CC03012853
:1028900002D10846FEF78EFFC820FDF75BFD002041
:1028A00010BDD0F8D003FDF764BE10B50124D0F8F8
:1028B000D003FDF754FE20B1012805D0022803D132
:1028C00001E0002400E00224204610BDD0F8D0032F
:1028D000FDF748BED0F8C413491CC0F8C4130178F2
:1028E0000B2905D1D0F87C13002901D0896908474C
:1028F0007047000010B5044690F8CC0301281CD1A5
:102900000F484FF0A0410022C0F8C042C4F8D003E5
:102910000160082181600121C0E903120221C0E9A0
:102920000612FDF75BFF08B1FDF711FD0448FDF746
:1029300013FE0146204600F024F8002010BD0000E0
:10294000E4040020FEB508AF97E870008DE8700041
:10295000D0F8D003FDF725FEBDE8FE40FFF715BA1D
:10296000002180F823137047012180F8231370475A
:1029700010B5D0F8D003FDF7BFFFBDE81040FFF75A
:1029800004BAC0F8C4137047D0F8D00301EB81013A
:1029900000EBC10090F83B1011B180F8502001E02D
:1029A00080F851200020704710B5D0F8D003FDF713
:1029B000AAFFBDE81040FFF7E8B910B5D0F8D00382
:1029C000FDF7B7FFBDE81040FFF7DFB92DE9FF4184
:1029D0000DF1280898E8F0008DE8F000D0F8D00359
:1029E000FDF719FE04B0BDE8F041FFF7CEB9FEB522
:1029F00008AF97E870008DE87000FFF7A3FF002094
:102A0000FEBD2DE9F84105460B782B704B786B70B5
:102A10004B886B800B792B714B796B718B79AB7118
:102A2000CB790846EB710027097A2972092A54D913
:102A30000921ADF800104BE06946FFF71DF9417818
:102A4000042943D107EB870101EBC70105EB4108DE
:102A5000017888F80A10417888F80B10817888F896
:102A60000C10C17888F80D10017988F80E104179A2
:102A700088F80F10817988F81010C17908F10A04DC
:102A800088F81110017A2172002615E06946FFF7D7
:102A9000F3F8417805290FD108EBC60102780A75D1
:102AA00042784A7582788A75C278CA7582880A83A4
:102AB0008279761C8A76F6B22179B14204D96A8885
:102AC000BDF800108A42E1D87F1CFFB2022F04D269
:102AD0006988BDF800209142AED8BDE8F8810000B9
:102AE000FEB5022104468DF8001094F82123002041
:102AF000012A01D10322227022780D260827002501
:102B00000C2A17D2DFE802F0061734DEF869C27C1F
:102B1000848C9AD794F8200300280BD001202070D1
:102B2000C820FFF75EF82046FFF722FF84F81C5309
:102B3000C4F8C853E0E094F8230301280DD0D4F87A
:102B4000C803B0F57A7F0CD994F81F03401CC0B2BB
:102B500084F81F03032870D86DE084F81F53217098
:102B6000CAE00A30C4F8C8030A20FFF73AF8C3E005
:102B7000D4F8D42312B10421204690476420FFF7F3
:102B800030F82046FFF791FE84F81D0305202070E1
:102B900000212046FEF7A6FF607180212046FEF747
:102BA000A1FF20710146A07994F81D230092CDE980
:102BB000015094F81C3380222046FFF718FFA079BB
:102BC00094F81D130091CDE9015094F81C336179FC
:102BD00000222046FFF70BFF8EE02046FFF746FD60
:102BE0008DF800009DF80000002808D184F82453D7
:102BF00094F83703012801D0072058E027707BE0C4
:102C0000D4F8D423002A77D0012120469047F5E755
:102C100094F83D13204600F09EF8B0BB092046E032
:102C200094F83F034FF00A05800604D501212046A1
:102C300000F09FF848BB25705EE03AE0D4F88013BE
:102C400019B3C4F87C5394F8471300BF04EB800217
:102C5000D2F8782312798A4206D104EB8000D0F8AA
:102C60007803C4F87C0304E0401C10F0FF00EDD0B2
:102C70002846F0B1816820468847D0B906202070E8
:102C8000D4F8D42303212046904735E0D4F87C03C0
:102C900078B10169204688478DF800009DF8000052
:102CA00020B19DF80000022803D025E00B20207001
:102CB00022E0267020E0D4F87C03E8B14169204688
:102CC000884719E084F821532046FDF717FBD4F814
:102CD0007C0320B1C16820468847C4F87C53D4F8EF
:102CE000D42312B105212046904794F822030128ED
:102CF00004D02046FFF758FE0020FEBD84F8225382
:102D0000204600F044F8F7E7002211B1D0F88033F4
:102D100013B10222104670470123C0F88033C0F877
:102D20007813F7E70246002092F83C338B4202D931
:102D300082F824137047022070478278012A06D156
:102D4000002202740523437441828282C2820022DF
:102D50001146FEF706BF8278012A06D100220274CE
:102D60000923437441828282C28200221146FEF707
:102D7000F8BE8278012A06D100220274032343742C
:102D800041828282C28200221146FEF7EABE10B55D
:102D90000446FFF709FE01212046FFF775FD0020DC
:102DA00010BD000001290AD00548022906D00429D7
:102DB00003D0052903D1032100E0012101707047F0
:102DC0000000002070B5044606990A9E049D0D98E7
:102DD000012916D0E06840F04000E060204600F095
:102DE0002BF8A16B1EB321F48031A163012D07D113
:102DF000A16841F00601A160A16841F02001A16035
:102E000070BDA16B21F48031A163E168094A1140D2
:102E1000E160E16821F44011E160012803D1E0683C
:102E200040F48010E060204600F006F8DEE741F450
:102E30008031DAE7BFFFBDFF01220C4902E0521CDE
:102E40008A420BD80369002BF9DA026942F00102C9
:102E50000261012204E0521C8A4201D9032070471A
:102E60000369DB07F7D1002070470000400D030025
:102E7000816821F0010181600020704700EB411062
:102E8000064AC0F81025D0F8001521F0804141F025
:102E90000041C0F8001500207047000000000880C5
:102EA00008B5D0F8402422F02E020092D20405D4B6
:102EB000012909D1009941F4805103E021B9009919
:102EC00021F48051C0F84014002008BD816841F011
:102ED0000101816000207047002110220261054A33
:102EE000491C914201D9032070470369DB06F7D4DE
:102EF00000207047400D03000022202343EA811187
:102F000001610549521C8A4201D9032070470369B7
:102F10009B06F7D400207047400D0300D0F808044A
:102F200080B2704708B5D0F840040090C0F341402B
:102F300008BD406900F00100704700EB4111D1F875
:102F400000254FF47A73C2F381426AB1022A0BD092
:102F5000D1F8002542F08042C1F80025D0F81004D5
:102F600010F47F0F2ED009E0D1F8002542F0804206
:102F7000C1F80025C06A10F47F0F07D0D1F8000512
:102F800040F00040C1F8000500207047D1F800056E
:102F900020F00040C1F80005D1F8000540F00040E5
:102FA000C1F80005D1F8000520F40040C1F8000583
:102FB000012002E0401C9842E6D8D1F80025002A02
:102FC000F8DBE1E7D1F8000520F00040C1F800058A
:102FD000D1F8000540F00040C1F80005D1F8000527
:102FE00020F40040C1F80005012002E0401C984296
:102FF000CAD8D1F80025002AF8DBC5E72DE9F0434F
:103000000026DDE9078500EB4114771EDDF82490EA
:10301000C4F80875CDB1012D32D0022D15D0032D85
:1030200027D00126D0F8187401F00F0C012101FA05
:103030000CF10F43C0F81874816941F0007181618F
:1030400010062AD54FF4004028E040F29D47C4F80E
:103050000C75170605D500BFD4F80C7547F48077BA
:1030600018E0C76BFF05DDD5D4F80C7547F0600795
:1030700010E040F29D67C4F80C751706ECD4D1E758
:1030800040F22527C4F80C751706CBD5D4F80C757B
:1030900047F4C077C4F80C75C4E70020B8F1020FFC
:1030A00018D000214FF0FE5707EA83534FF4F04742
:1030B00007EAC22213434FF4402202EA8542134337
:1030C000C9F30A02134303430B43C4F80035032D2D
:1030D00003D008E04FF40031E4E7D4F8000540F0F5
:1030E0000050C4F800053046BDE8F083D0F8140461
:1030F00080B27047F8B54C78C56B4FF48073ED051E
:103100004FF0000715D50D799DB912B1012A07D0EE
:103110000FE04D79012D0CD12146FFF7AFFE8CE079
:1031200000EB4415D5F80C6526F06006C5F80C6573
:103130004F710E695EB10D892E44761EB6FBF5F611
:10314000B6B29E4204D91E462B020B6100E0012656
:10315000CB78CBB30B897343C1F810306FF0604567
:10316000C3F3120305EAC6452B438D7A4FF0C046E0
:1031700006EA45752B4300EB44140546C4F81035A8
:1031800012B1CB68C4F81435D5F80834D4F800551A
:1031900043F3000325F00055C4F80055D4F800555A
:1031A0005B1C45EA4373C4F80035D4F80055244B42
:1031B0001D601D6825F080451D60CD78002D1D68BF
:1031C00005D045F4004504E0FFE70B69C6E725F4A8
:1031D00000451D601D6845F000451D601B68C4F872
:1031E000003552BBCA7842BB0A6932B3CB7933B1DE
:1031F000012B0FD0022B02D0032B17D10AE0D21CD7
:10320000C36AC2F38F029BB293420FD2826942F02B
:1032100020020AE0D21CD0F81034C2F38F029BB215
:10322000934203D2826942F08062826100970A8AE7
:1032300093B24A78C96800F00EF90020F8BD00008A
:10324000040000202DE9F0410025DDF81880174624
:103250000446C0F8005E806B40F40010A063A06BD1
:1032600020F40020A063A06B20F48020A063E06B1A
:10327000C00501D5012B04D0D4F8000420F00401CE
:1032800003E0D4F8000440F004012046C4F8001420
:103290001021FFF731FE2046FFF71EFE0020461EDC
:1032A00007E000BF04EB4011C1F80865C1F80C55F8
:1032B000401C8742F6D801212046FFF7F1FDC820C7
:1032C000FDF748F8A5616661E06BC00506D54FF4CF
:1032D000007060620C48A0620C4804E080206062CC
:1032E0000B48A0620B48C4F80001B8F1000F03D1ED
:1032F000A06940F01000A061A06907490843A061DF
:103300000020BDE8F0810000000200010003E000A1
:1033100080006000E0004000080020A3D0F80024F6
:1033200022F00302C0F80024D0F8002401F00303C7
:103330001A43C0F80024012902D0022903D006E074
:103340004BF6803101E041F27071C0F804140020A6
:1033500070474169806908407047D21C10B59308D6
:10336000002200F5805002E00468521C10C19A420D
:10337000FAD3084610BD38B50446D0F8400420F012
:103380002E00009040F48070C4F84004642004F5DE
:103390008864FCF7DFFF009820F4807020600A202A
:1033A000FCF7D8FF002038BD10B5C26822F0C0423B
:1033B000C260012902D029B1012010BDC16841F0CD
:1033C000005102E0C16841F08041C1603220FCF749
:1033D000C1FF002010BD000030B504468068002504
:1033E00020F00100A06010212046FFF785FD204657
:1033F000FFF772FD5FF0000004EB4011D1F80025EB
:1034000022F0802242F08042C1F80025401C0F28A3
:10341000F2D900204FF47A7304EB4011D1F8002563
:1034200022F4004242F04042C1F800256D1C9D424A
:1034300003D8D1F80025002AF8DB401C0F28EBD96F
:103440004FF0FF30C4F814046061A06840F0010040
:10345000A060002030BD10B5029C64B9DB1C9C0844
:1034600000EB0230002300F5805002E004C9026046
:103470005B1CA342FAD3002010BDFEE70FB4084B3B
:1034800010B504A902AA039800F02CF8044602A97A
:10349000002000F0C8F9204610BC5DF814FB0000C5
:1034A000273800080907090E002804DB00F1E02096
:1034B00080F80014704700F00F0000F1E02080F861
:1034C000141D704702E008C8121F08C1002AFAD173
:1034D00070477047002001E001C1121F002AFBD194
:1034E000704700002DE9FF4F8BB088460546002647
:1034F00006E025280BD0DDE90D1290476D1C761CE7
:1035000028780028F5D10FB03046BDE8F08F0024B0
:10351000A146A2460122AE4900E0044315F8013F4E
:10352000203B02FA03F00842F7D128782A2810D06D
:103530006FF02F022878A0F13001092915D809EB86
:10354000890102EB410144F0020400EB01096D1C0A
:10355000F0E758F8041B5FEA010903D544F400546E
:10356000C9F1000944F002046D1C28782E2817D1F7
:1035700015F8010F44F004042A280ED06FF02F0232
:103580002878A0F1300109290AD80AEB8A0102EB58
:10359000410100EB010A6D1CF2E758F804AB6D1C09
:1035A00028786C280FD006DC4C2817D068280DD05E
:1035B0006A2814D104E0742810D07A280FD10DE0C5
:1035C00044F400140AE044F4801401E044F440148C
:1035D0006978814202D104F580146D1C6D1C287835
:1035E000692865D006DC00288DD0632827D06428A0
:1035F00006D15DE06E2808D073282AD0752877D0D0
:10360000DDE90D129047761CE0E0C4F30250022879
:1036100009D003280DD0D8F8001004280DD00E6072
:1036200008F10408D2E0D8F80010F217C1E90062EE
:10363000F6E7D8F800100E80F2E70E70F0E718F801
:10364000041B8DF8001000208DF80100EB460120CE
:1036500003E058F804BB4FF0FF3061074FF000075C
:1036600001D40AE07F1C57450DDA8742FADB1BF8CC
:1036700007100029F6D106E07F1C8742FCDB1BF80F
:1036800007100029F8D1DDE90D23A9EB07008146D9
:10369000214600F0B1F83044C61904E0DDE90D120E
:1036A0001BF8010B90477F1EF8D22146484688E060
:1036B00058F8040BC4F302514FF00A0B032900D150
:1036C00000B2042900D140B2002802DA40422D2184
:1036D00002E0210505D52B218DF82410012104E0FD
:1036E00006E0E10710D02021F6E708AF089113E0CB
:1036F00058F8040BC4F302514FF00A0B032900D110
:1037000080B2042900D1C0B20021EEE75946FCF78F
:10371000ACFD303107F8011D0028F7D1ADEB0700F3
:1037200000F1200B600702D524F4803401E04FF053
:10373000010ADA4502DDAAEB0B0000E00020824618
:1037400000EB0B0108980144A9EB01000A90E0038B
:1037500006D4DDE90D2321460A9800F04DF8064411
:103760004FF0000908E009A911F80900DDE90D1280
:10377000904709F10109761C08998945F3DBE003BC
:103780000CD5DDE90D2321460A9800F035F80644F2
:1037900004E0DDE90D1230209047761CBAF10001FB
:1037A000AAF1010AF5DC05E0DDE90D1217F8010BBD
:1037B0009047761CBBF10001ABF1010BF4DC0A98D9
:1037C0002146DDE90D2300F005F806446D1C97E65F
:1037D000092801002DE9F041044600251E46174640
:1037E000880404D405E039462020B0476D1C641ECF
:1037F000F9D52846BDE8F0812DE9F04104460025C1
:103800001E469046C80301D5302700E020278804D3
:1038100004D505E041463846B0476D1C641EF9D515
:103820002846BDE8F0810A68531C0B601070704791
:1038300010B5002821D0114B0022001F196803E0A9
:10384000814203D80A4649680029F9D152B1136868
:10385000841A9C4204D1006818441060104602E0AB
:10386000506000E0186039B102680B1A934203D12E
:103870000B681A4402604968416010BD6000002076
:10388000FDF772F8FEF710F8FDF79EFFFDF7DAFF7F
:103890000B480A490C2201604FF4E13141600021DC
:1038A0008160C160C0E904128161C161FDF79AFBCA
:1038B00008B172B6FEE7FDF7E5FFFCE700480040FF
:1038C00068000020F0B50B30154D20F007010024F2
:1038D000144A0FE003688B420BD38B4205D95E1A62
:1038E00043184768C3E9006700E04368136002C0FB
:1038F00004E0021D10680028ECD12046002802D107
:10390000286808B10020F0BD064A07481060074A41
:10391000121A22F00702C0E9002401202860D7E72C
:103920006400002060000020BC070020B8090020CF
:10393000000000000000000001020304060708095F
:10394000000000000102030440000020010000000C
:103950000000000000000000010000000000000066
:1039600001000000010000004000002001000000F4
:103970000100000000000000010000000000000045
:1039800001000000010000004000002001000000D4
:103990000200000000000000010000000000000024
:1039A00001000000010000004000002001000000B4
:1039B0000300000000000000010000000000000003
:1039C0000100000001000000400000200100000094
:1039D00004000000000000000100000000000000E2
:1039E0000100000001000000400000200100000074
:1039F00005000000000000000100000000000000C1
:103A00000100000001000000400000200100000053
:103A1000060000000000000001000000000000009F
:103A20000100000001000000400000200100000033
:103A3000070000000000000001000000000000007E
:103A4000010000000100000042000020080000000A
:103A500000060000000000006500000000000000FB
:103A6000650000000100000000603132333435365B
:103A7000373839302D3D000D0971776572747975CD
:103A8000696F705B5D5C006173646667686A6B6C2C
:103A90003B27000A00007A786376626E6D2C2E2F29
:103AA00000000000002000000000000000000000F6
:103AB00000000000000000000D00000000000000F9
:103AC000000000373431002F383532302A39363390
:103AD0002E2D2B000A000000000000000000000056
:103AE00000000000000000000000007E21402324B0
:103AF000255E262A28295F2B000000515745525485
:103B00005955494F507B7D7C004153444647484AB4
:103B10004B4C3A22000A00005A584356424E4D3C44
:103B20003E3F000000000000000000000000000018
:103B30000000000000000000000000000000000085
:103B40000000000000000000000000000000000075
:103B50000000000000000000000000000000000065
:103B60000000000000000000000000000000000055
:103B70001F32302113222324182526273433191A03
:103B8000111420151731122F162E020304050607F3
:103B900008090A0B2B6E0F103D0C0D1B1C1D2A284B
:103BA00029013536371E707172737475767778799E
:103BB0007A7B7C7D7E4B50554C5156594F54535A0D
:103BC0005F64696A6C5D62675C61665B60656368BF
:103BD0002D81000000000000000000000000000037
:103BE00000000000000000000000000000000000D5
:103BF000006B003800000000000000000000000022
:103C000000000000000000000000000000000000B4
:103C100000000000000000000000000000000000A4
:103C20000000000000000000000000000000000094
:103C30000000000000000000000000000000000084
:103C40000000000000000000000000003A2C3C7F53
:103C500040393E80500000200100000000000000BC
:103C60000000000001000000000000000100000052
:103C700001000000500000200100000001000000D1
:103C80000000000001000000000000000100000032
:103C900001000000500000200100000002000000B0
:103CA0000000000001000000000000000100000012
:103CB0000100000051000020080000000000010089
:103CC00000000000FFFF000000000000FFFF0000F8
:103CD0000100000052000020080000000000010068
:103CE00000000000FFFF000000000000FFFF0000D8
:103CF0000100000048494400183D00080000002071
:103D000068000000C4340008803D000868000020FE
:103D1000500D0000D4340008000000000000000036
:103D20000100000010000000000000000024F4006A
:103D3000F43C000803000000B52000086B200008D8
:103D4000A31D00089D2300087D240008000000003A
:103D50000000000000000000000000000000000063
:103D60000000000000000000000000000000000053
:103D70000000000000000000000000000000000043
:040000050800018965
:00000001FF
