:020000040800F2
:10000000903300209D010008A51D0008491C000830
:10001000351D0008E1040008D5410008000000007B
:10002000000000000000000000000000B71D0008F4
:100030002508000800000000B51D0008051F000885
:10004000B7010008B7010008B7010008B7010008B0
:10005000B7010008B7010008B7010008B7010008A0
:10006000B7010008B7010008B7010008B701000890
:10007000B7010008B7010008B7010008B701000880
:10008000B7010008B7010008B7010008B701000870
:10009000B7010008B7010008B7010008B701000860
:1000A000B7010008B7010008B7010008B701000850
:1000B000B7010008B7010008B7010008B701000840
:1000C000B7010008B7010008B7010008B701000830
:1000D000B7010008B7010008B7010008B701000820
:1000E000B7010008B7010008B7010008B701000810
:1000F000B7010008B7010008B7010008B701000800
:10010000B7010008B7010008B7010008B7010008EF
:10011000B7010008B7010008B7010008B7010008DF
:10012000B7010008B7010008B7010008B7010008CF
:10013000B7010008B7010008B7010008B7010008BF
:10014000B7010008B7010008B7010008A91D0008A1
:10015000B7010008B7010008B7010008B70100089F
:10016000B7010008B7010008B7010008B70100088F
:10017000B7010008B7010008B7010008000000003F
:10018000B7010008B7010008DFF80CD000F096F9BD
:1001900000480047516B0008903300200648804714
:1001A00006480047FEE7FEE7FEE7FEE7FEE7FEE75C
:1001B000FEE7FEE7FEE7FEE7991F00088901000859
:1001C0002DE9F05F0546002092469B46884606468C
:1001D000814640241BE0284641464746224600F01F
:1001E00000F953465A46C01A914110D31146184699
:1001F000224600F0E7F82D1A67EB01084F46224629
:100200000120002100F0DEF817EB00094E41201E0E
:10021000A4F10104DFDC484631462A464346BDE8E6
:10022000F09F40EA01039B0703D009E008C9121FB1
:1002300008C0042AFAD203E011F8013B00F8013BA0
:10024000521EF9D27047D2B201E000F8012B491ECC
:10025000FBD270470022F6E710B513460A46044663
:100260001946FFF7F0FF204610BD421C10F8011B95
:100270000029FBD1801A704710B5002200E0521C03
:10028000835C8C5CA34201D1002BF8D1D8B2E1B2DF
:10029000401A10BD2DE9FE4F81EA030404F000442A
:1002A00021F0004100944FF0000B23F0004350EA8E
:1002B00001045ED052EA03045BD0C3F30A54C1F3D5
:1002C0000A552C44A4F2F3340194A0FB0254C1F368
:1002D000130141F48011C3F3130343F4801301FBB2
:1002E000024400FB034E840A970A44EA815447EA19
:1002F0008357A4FB076802958D0A05FB07854FEA23
:10030000932C04FB0C542705029D4FEA065847EA3C
:100310001637B5EB08056EEB070C870E920E47EA11
:10032000811742EA8312A7FB0201B6EB0B0164EBD3
:1003300000042B0D43EA0C335E1844EB1C50DA46E4
:100340005146E7FB0201C5F313044FEA0B3343EABE
:1003500014534FEA0432019C43EA0603A4F10C044F
:100360000294009CCDE900B400F05AF803B0BDE857
:10037000F08F00200146F9E70EB540F233410291BB
:100380000021CDE900110A460B4600F049F803B000
:1003900000BDC1F30A5210B5C1F3130140F2FF339F
:1003A00041F480119A4201DA002010BD40F233433B
:1003B0009A42A2F2334203DC524200F012F810BD1E
:1003C000904010BD202A04DB203A00FA02F1002000
:1003D00070479140C2F1200320FA03F31943904083
:1003E0007047202A04DB203A21FA02F000217047EE
:1003F00021FA02F3D040C2F120029140084319468D
:10040000704710B5141E73F1000408DA401C41F166
:10041000000192185B411A4301D120F0010010BD88
:100420002DE9F04D92469B4611B1B1FA81F202E0FE
:10043000B0FA80F220329046FFF7C4FF04460F4620
:1004400040EA0A0041EA0B0153465A46084313D0DA
:10045000114653EA010019D0C8F140025046FFF797
:10046000C0FF05460E46504659464246FFF7AAFFD2
:10047000084305D0012004E020463946BDE8F08D50
:100480000020054346EAE0762C4337430A9863058B
:10049000E40AA0EB08000022FD0A44EA47540A30AF
:1004A00002D500200146E9E7010510196941DDE99F
:1004B000084500196941BDE8F04DA2E7064C074D1B
:1004C00006E0E06840F0010394E807009847103424
:1004D000AC42F6D3FFF75CFE1076000830760008D9
:1004E000FEE7000070B5234A23A02DED028B111DFD
:1004F00004F091FF1F4C0C3CE168086A4989801E9A
:100500004843FFF739FF9FED1D8B53EC182BFFF786
:10051000C1FEFFF73EFF60611E2006F03DFB054671
:1005200018A1626903F050FF284601F0DBFC284661
:1005300005F0FEFFE068216940894843FFF71CFF92
:1005400053EC182BFFF7A6FEFFF723FFA0611E2038
:1005500006F022FB054611A1A26903F035FF2846EB
:1005600001F0C0FCBDEC028B2846BDE8704005F0F0
:10057000DFBF00000C0000200000000000000000B1
:100580000000E03F5553422020546F74616C2053AB
:10059000697A653A2009256C750A00005553422096
:1005A000467265652053706163653A2009256C7554
:1005B0000A00000070B5054604F0BBFF0E4C002891
:1005C00020704FF064000FD006F0E6FA06462B4686
:1005D00022780AA103F0F8FE304601F083FC304691
:1005E00005F0A6FF207870BD06F0D6FA06462A462A
:1005F0000DA103F0E9FEEFE7000000204552524F45
:1006000052204E6F2E20256420696E206372656132
:1006100074696E67206469726563746F7279202AE9
:1006200025732A0A000000002A25732A20686173B6
:10063000206265656E206372656174656420737500
:10064000636365737366756C6C790A0070B50546F3
:10065000254905F0A3FA254C207080B10B222946CC
:10066000234805F06BF8207000284FF0640015D087
:1006700006F092FA06462B4622781EA129E0642055
:1006800006F08AFA06462A4624A12AE0304601F0FE
:1006900029FC304605F04CFF207870BD06F07CFA4E
:1006A00006462A462AA103F08FFE304601F01AFCC6
:1006B000304605F03DFF0E4804F088FE207000280B
:1006C0004FF0640008D006F067FA06462B46227801
:1006D0002FA103F079FED9E706F05EFA06462A4616
:1006E00034A103F071FED1E7B0000020000000202B
:1006F000A81800204552524F52212121204E6F2E22
:1007000020256420696E206372656174696E6720BC
:1007100066696C65202A25732A0A00004552524FEB
:1007200052212121202A25732A20616C726561647F
:100730007920657869737473212121210A207573EA
:1007400065205570646174655F46696C65200A00B8
:100750002A25732A2063726561746564207375634A
:100760006365737366756C6C790A204E6F772075BC
:1007700073652057726974655F46696C6520746F94
:1007800020777269746520646174610A000000005A
:100790004552524F52204E6F2E20256420696E2004
:1007A000636C6F73696E672066696C65202A2573B8
:1007B0002A0A000046696C65202A25732A20434CCA
:1007C0004F534544207375636365737366756C6C32
:1007D000790A000010B500224FEA020100EB820303
:1007E000521CC3F884130F2AF8D300224FF400736D
:1007F0008418521C84F81C119A42F9D3017041707C
:1008000001228270C0F8C4130276402383714176BE
:1008100080F81C1380F81D2380F81F1380F81E1326
:10082000002010BD704772B6FEE70022AFF30080D3
:1008300030B50E4B054601205C7A002C14D1587A55
:100840001C54587A03EB800045605D7A03F1080080
:100850002A54587A421C5A72303008703A20487034
:100860002F208870CC70002030BD0000802D00202B
:1008700070B5044600F0F0F80546601C02D004484C
:100880000078044400F0E8F8401BA042FAD370BDA1
:10089000240000202DE9F84F00224FF00108032525
:1008A0004FF00F0E0B6808FA02F42340A3426ED1FA
:1008B0004E68012E05D0022E03D0112E01D0122E2B
:1008C00012D186684FEA420C05FA0CF7BE43CF6896
:1008D00007FA0CF7374387604668A6430C79C4F3E0
:1008E0000014944034434460C668570005FA07FC7E
:1008F0008C6826EA0C06BC403443C4604C68022C69
:1009000001D0122C13D1D40800EB8404A346D4F8F0
:10091000209054074FEAD46A0EFA0AF629EA06092B
:100920000E6906FA0AF646EA0906CBF82060066860
:100930000C7926EA0C0604F00304BC40344304603E
:100940004C68E40065D5364C266846F4804626603F
:10095000246822F0030604F480440094314C3444AB
:10096000A446D4F808489607370F0EFA07F6B443A2
:100970002D4EB04201D1002624E02C4EB04201D1D0
:1009800001261FE02A4EB04202D102261AE040E0C2
:10099000284EB04201D1032614E0274EB04201D1C7
:1009A00004260FE0254EB04201D105260AE0244E70
:1009B000B04201D1062605E0224EB04201D1072601
:1009C00000E00826BE402643CCF808681E4E346876
:1009D0004F689C43FF0300D51C4334601A4C241D10
:1009E00026684F689E43BF0300D51E432660164EFF
:1009F000083634684F689C43FF0200D51C433460BE
:100A0000114E0C3634684F689C43BF0200D51C431E
:100A10003460521C102AFFF445AFBDE8F88F000087
:100A2000443802400030014000000240000402400F
:100A300000080240000C0240001002400014024076
:100A400000180240001C0240003C01400AB18161D4
:100A500070470904FBE70000014880687047000008
:100A600024000020D0F8C00201F093BED0F8C002EC
:100A700001F099BE006803F0C9B8006803F0CAB875
:100A800001EB810100EBC10090F85C00704701EBC5
:100A9000810100EBC100C06C704710B5044690F8AE
:100AA000B802012809D0012084F8B802206803F0B8
:100AB000BCF8002084F8B80210BD022010BD2DE95A
:100AC000FE430546DDE90B7095F8B842DDF828C015
:100AD000012C1CD001EB81044FF0010905EBC4048B
:100AE00085F8B892002684F83D6084F83830A4F880
:100AF000400084F8391084F83F7002F07F0884F8D1
:100B00003A805FEA026805D584F83B9004E0022051
:100B1000BDE8FE8384F83B6084F83CC0CDF800C09B
:100B2000CDE90170286803F0E1F885F8B862EFE7D5
:100B300070472DE9F0030E46DDE906C9DDE90874CA
:100B400001EB860100EBC101022581F83B2081F811
:100B50003F30BCF1000F0AD081F8425000246BB145
:100B6000012B2DD0022B12D0032B16D10FE04FF00A
:100B7000030881F8428081F83D40EFE7BCF1010FA6
:100B80000BD152B9CFB9012281F8512003E0A2B1B3
:100B900091F85020A2B181F84250C1E9119781F833
:100BA0005C40CC6481F8396081F85D40027C00686B
:100BB000BDE8F003383103F015B991F85120E9E7A9
:100BC00081F84240E9E700002DE9F0410446006861
:100BD000064603F026F801287ED1206803F031FA9A
:100BE000002879D0206803F02CFA800203D5216810
:100BF0004FF400104861206803F023FAC00203D5C7
:100C000021684FF480104861206803F01AFA40010F
:100C100003D521684FF080604861206803F011FA25
:100C2000800702D5216802204861206803F009FA94
:100C300080000ED521684FF000504861D6F840047E
:100C4000C00706D12046FFF711FF0121206803F0FD
:100C5000DDF9206803F0F5F9C00102D5204600F067
:100C600071FF206803F0EDF9000705D5204600F07C
:100C7000D4F8216808204861206803F0E2F9800177
:100C800023D5206803F0AAF8074600254FF0010895
:100C900014E000BF05F00F0108FA01F038420CD053
:100CA00006EB4510D0F80005E9B20004204602D555
:100CB00000F0EAFC01E000F023FE6D1CA068A842F1
:100CC000E8D821684FF000704861206803F0B9F956
:100CD000C043C0060ED400E00CE02068816921F01A
:100CE00010018161204600F077FF2068816941F0A2
:100CF00010018161BDE8F08170B58AB0040005D0B3
:100D000094F8B9022568002618B107E001200AB05E
:100D100070BD84F8B862204600F028F8032084F8FB
:100D2000B902E86BC00500D42661206802F018FF04
:100D300004F1100128220D466846FFF772FA94E884
:100D40000F0002F0B7FE0121206803F0A5F9282268
:100D500029466846FFF765FA94E80F0003F0EAF8C1
:100D6000012084F8B9020020D1E7000030B587B037
:100D7000044614216846FFF76DFA2068B0F1A04FD1
:100D800039D11E480024016841F00101016000686A
:100D90001B4D00F0010005904FF40070CDE90004F8
:100DA000694628460294FFF775FD4FF4C050009045
:100DB0000220CDE90104032003900A200490694633
:100DC0002846FFF767FD0D48001D016841F08001CE
:100DD00001600A481430016841F4804101600068F4
:100DE000002200F4804005901146432000F0AAF84C
:100DF000432000F099F807B030BD000030380240C1
:100E000000000240D0F8C00201F05EBDD0F8C00280
:100E100001F05EBD006803F026B9D0F8C00201F011
:100E20000EBD10B5044690F8B80201280DD001207F
:100E300084F8B802206802F0C1FE0121206802F0A7
:100E4000A7FE002084F8B80210BD022010BD10B526
:100E5000044690F8B802012809D0012084F8B802AD
:100E6000206803F031F9002084F8B80210BD022098
:100E700010BD00000248816802781144816070470B
:100E8000240000200B4810B5016841F40071016096
:100E9000016841F480610160016841F48071016082
:100EA000032000F06FF8002000F006F800F024F8AE
:100EB000002010BD003C024070B50D4D04464FF4BB
:100EC0007A712878B1FBF0F00A490968B1FBF0F0BB
:100ED00000F002FB48B9102C07D200222146501E18
:100EE00000F030F800206C6070BD012070BD000083
:100EF00024000020300000200A4808B5016841F4B1
:100F000080410160006800F4804000900548001FA7
:100F1000016841F080510160006800F0805000904D
:100F200008BD000044380240002809DB00F01F0221
:100F3000012191404009800000F1E020C0F800113B
:100F400070470000F0B40E4B1B680C46C3F302233D
:100F5000C3F10705042D00D90425191D072901D265
:100F6000002300E0DB1E012606FA05F1491E2140A0
:100F700099409E40761E16403143F0BC03F038BACB
:100F80000CED00E0064900F0070208684FF6FF0389
:100F9000184040EA0220034A1043086070470000EE
:100FA0000CED00E00000FA052DE9F0470E460500C3
:100FB00065D0DFF81481D8F80000F7B200F00F0018
:100FC000B04207D288F80070D8F8000000F00F0097
:100FD000B04254D128683D4C810712D5400703D553
:100FE000206840F4E05020602878000703D520688E
:100FF00040F4604020602068A96820F0F0000843B9
:1010000020602878C0072DD0304968680839012849
:1010100012D0022813D0032811D0096889070029AB
:101020002DDA216821F0030101432160FFF714FD4F
:10103000814641F2883A0EE009688903EFE70968C2
:101040008901ECE7FFF708FDA0EB0901514502D942
:101050000320BDE8F0872068696800F00C00B0EB61
:10106000810FEFD1D8F80010404601F00F01B142D6
:1010700007D90770006800F00F00B04201D00120CE
:10108000E7E72878400705D52068E96820F4E050B4
:10109000084320602878000706D52068296920F4D5
:1010A000604040EAC100206000F038F82168084A3A
:1010B000C1F30311515CC840064908600648006846
:1010C000FFF7FAFE0020C4E7003C02400838024067
:1010D00086710008300000202800002004480549DF
:1010E00000680968044AC1F38221515CC840704716
:1010F0003000002008380240967100080448054975
:1011000000680968044AC1F34231515CC840704725
:10111000300000200838024096710008154810B5CC
:10112000006810F00C02144813D04110042A0FD0AC
:10113000082A0ED10F4C241F2268236802F03F02B8
:101140005B0207D52068C0F38810A0FB010106E010
:10115000084610BD2168C1F38811A1FB00010023DE
:10116000FFF72EF82168C1F30141491C4900B0FB8B
:10117000F1F010BD083802400024F4002DE9F84FCA
:1011800004006ED02078DFF83C93C007A9F1040575
:101190004AD009F104000168C1F38101012908D096
:1011A0000068C0F3810002280AD1D9F8000040028B
:1011B00006D52868800337D560680028E1D033E081
:1011C0006068B0F5803F10D0B0F5A02F286810D02F
:1011D00020F480302860286820F48020286060682F
:1011E000A8B1FFF739FC06460DE0286840F48030CE
:1011F000F4E740F480202860F7E700BFFFF72CFCFD
:10120000801B642873D828688003F7D50CE0FFF7AB
:1012100023FC064605E000BFFFF71EFC801B642888
:10122000F0D828688003F7D42078DFF89C82800704
:101230004FF0000A3ED5A348001D016811F00C0FC5
:1012400008D00068C0F3810002280BD1D9F8000053
:10125000400207D42868800716D5E068012800D12D
:1012600012E02BE1E068B8B10120C8F80000FFF7F8
:10127000F3FB064605E000BFFFF7EEFB801B0228EC
:10128000C0D828688007F7D52868216920F0F800C1
:1012900040EAC10028600DE0C8F800A0FFF7DCFBC1
:1012A000064604E0FFF7D8FB801B02281FD82868F9
:1012B0008007F7D42078000722D5824E83486169E1
:1012C000703671B101210160FFF7C6FB074604E0EB
:1012D000FFF7C2FBC01B022809D830688007F7D58A
:1012E0000EE0C0F800A0FFF7B7FB074605E082E07C
:1012F000FFF7B2FBC01B02287DD830688007F7D407
:101300002078400768D5DFF8BCB100270BF13C0B13
:10131000DBF80000C0000BD4DBF8001041F0805176
:10132000CBF80010DBF80000012700F0805000909F
:10133000674E3068C00510D4306840F4807030606B
:10134000FFF78AFB009005E0FFF786FB0099401A43
:10135000022850D83068C005F6D55A4EA0686C36C1
:1013600001280FD00528306810D020F0010030602F
:10137000306820F004003060A068B8B1FFF76CFB63
:1013800000900FE0306840F00100F4E740F0040006
:101390003060F7E7FFF760FB0099411A41F28830AF
:1013A000814266D830688007F4D50EE0FFF754FB21
:1013B000009007E0FFF750FB0099411A41F2883096
:1013C000814256D830688007F4D42FB1DBF8001082
:1013D00021F08051CBF80010A069C8B33949091D2C
:1013E0000968C1F3810102294AD00228504607D07A
:1013F000C8F8600000E03CE0FFF72EFB04463BE04D
:101400004746C8F86000FFF727FB064605E000BF27
:10141000FFF722FB801B02282BD828688001F7D415
:10142000D4E907010843A16A2A4A490802EB0141AD
:10143000626A41EA8211084394F82C1040EA016183
:10144000C9F8001001203866FFF706FB044606E0E5
:1014500036E000BFFFF700FB001B022809D8286810
:101460008001F7D52CE000BFFFF7F6FA001B022839
:1014700002D90320BDE8F88F28688001F4D41FE06A
:101480000128F7D0D9F80000E26900F48001914208
:1014900014D1226A00F03F0191420FD147F6C0718A
:1014A000626A0140914209D1A26A00F4403191423E
:1014B00004D1E16A00F07060884201D00120D9E7D0
:1014C0000020D7E70438024000004742800E474220
:1014D000007000400000FFFF10B5401EB0F1807F9B
:1014E00001D3012010BD4FF0E02460610F2160178F
:1014F00002F07EFF0020A06107202061002010BDC7
:1015000070B5040004D094F83900002510B106E04D
:10151000012070BD84F83850204600F023F82420C4
:1015200084F839002068C16821F40051C160204668
:1015300000F040FD2068016921F4904101612068BC
:10154000416921F02A0141612068C16841F40051DC
:10155000C160E563202084F8390084F83A00002057
:1015600070BD000010B586B0044614216846FEF731
:1015700071FE13492068884220D112480021026878
:1015800042F400320260006800F4003005900D481B
:101590001038026842F001020260006800F00100A9
:1015A00005900C2000900220CDE90101032003905A
:1015B0000720049069460448FFF76CF906B010BD97
:1015C0000044004040380240000002402DE9F8434A
:1015D000044690F839001F4616460D46202850D183
:1015E000B5B1AEB194F8380001284AD0012084F892
:1015F00038004FF00008C4F83C80212084F83900FE
:10160000FFF72AFAA6848146E68484F8388026E02B
:101610000120BDE8F883E08C401EE084A0684B46C2
:10162000B0F5805F4FF000024FF080012046009738
:1016300003D000F053FDE8B90DE000F04FFDC8B94C
:1016400028882168C0F308004860206908B16D1C33
:1016500005E0AD1C03E0216815F8010B4860E08C43
:101660000028D8D14B46002240212046009700F0A8
:1016700035FD08B10320CCE7202084F83900002094
:10168000C7E70220C5E700002DE9F05F07460068C4
:101690000E4600EB4114D4F808054FF00409420748
:1016A00001EB86004FF0050B4FF0100807EBC0056B
:1016B00008D5C4F80895D4F80C0540F00200C4F829
:1016C0000C0542E0D4F80805C0050DD54FF4807034
:1016D000C4F80805072085F85D00D4F80C0540F033
:1016E0000200C4F80C0517E0D4F80805800601D5FF
:1016F000202028E0D4F808054FF0080A00070FD58D
:10170000D4F80C0540F00200C4F80C0585F85DB073
:10171000C4F80885C4F808A5386802F086FA14E011
:10172000D4F80805400510D5D4F80C0540F00200A7
:10173000C4F80C05386802F078FAC4F8088585F812
:101740005DA04FF48060C4F80805D4F80805800552
:101750000ED5D4F80C0540F00200C4F80C05314653
:1017600004F5A164386802F060FA4FF40070A4E058
:10177000D4F808054FF00001C0074FF0010242D035
:10178000386930B1A86CD4F81035C3F31203C01A0D
:10179000E86485F85D20A965C4F8082595F83F0040
:1017A00030B1022804D0032811D0012818D023E03A
:1017B000D4F80C0540F00200C4F80C05314604F5DD
:1017C000A164386802F031FAC4F8008014E0D4F85B
:1017D000000540F00050C4F8000585F85C2007E0E3
:1017E00085F85C2095F8500080F0010085F85000E5
:1017F00031463846FFF79CF915F8500F80F001008C
:101800002870BDE8F09FD4F8080580073ED5D4F8CD
:101810000C0520F00200C4F80C0595F85D000223C9
:1018200001280AD005280BD006280CD008280AD099
:1018300003281AD007281BD01FE085F85C201CE085
:1018400085F85CB019E0A86D401CA86503280CD988
:10185000A96585F85C9000BFD4F8000520F08040B1
:1018600040F00040C4F8000507E085F85C30F3E77D
:10187000A86D401CA86585F85C90C4F8083595F8FB
:101880005C2031463846FFF753F9BAE7D4F808052B
:10189000000614D5D4F80C0540F00200C4F80C057D
:1018A000A86D3146401CA865062085F85D0004F54A
:1018B000A164386802F0B9F980202060A1E7D4F86B
:1018C0000805C0069DD595F83F00032803D020B138
:1018D000022802D011E0A96505E0A965386960B960
:1018E000032085F85D00D4F80C0540F00200C4F830
:1018F0000C053146386802F098F9C4F8088580E78D
:101900002DE9F047026802EB4114D4F808254FF0A6
:101910000403520709D5C4F80835D4F80C0540F083
:101920000200C4F80C05BDE8F087D4F8082501EBE7
:10193000810596064FF0000200EBC5054FF0020C42
:1019400015D52023C4F8083595F83D30012BEAD190
:1019500085F83D2085F85CC0D4F80C2542F00202E1
:10196000C4F80C250068BDE8F04702F05EB9D4F871
:10197000086577064FF0010611D585F85D3085F8CA
:101980003D60AA65D4F80C2542F00202C4F80C258B
:10199000006804F5A16402F048F9402010E0D4F892
:1019A0000875BF050ED5D4F80C2542F00202C4F824
:1019B0000C25006804F5A16402F037F94FF40070BB
:1019C0002060B0E7D4F80875FF070FD0AA65D4F8F7
:1019D0000C2542F00202C4F80C25006804F5A1644D
:1019E00002F023F9266085F85D609CE7D4F808755D
:1019F0004FF005095FEA07784FF008070DD5C4F8E6
:101A00000875D4F80C2542F00202C4F80C250068D1
:101A100002F00BF985F85D9085E7D4F808854FF062
:101A2000100A5FEAC86818D5AA65032285F85D2008
:101A300095F83D2022B995F83C200AB985F83D601B
:101A4000D4F80C2542F00202C4F80C25006804F515
:101A5000A16402F0EAF85046B2E7D4F808855FEADC
:101A600008680FD5D4F80C2542F00202C4F80C2502
:101A7000006804F5A16402F0D8F8062085F85D003E
:101A800080209DE7D4F808855FEA485812D5D4F83D
:101A90000C2542F00202C4F80C25006804F5A1648C
:101AA00002F0C3F8C4F800A04FF48060206085F80D
:101AB0005D7038E7D4F80875BF0796D5D4F80C7573
:101AC00027F00207C4F80C7595F85D70012F0AD055
:101AD000032F17D0042F15D0052F16D0062F17D09F
:101AE000082F15D027E085F85C6095F83F20022A82
:101AF00001D0032A1FD195F8512082F0010285F808
:101B0000512018E085F85CC015E085F85C9012E083
:101B1000AE6D761CAE65032E03D9AA6585F85C30E0
:101B200001E085F85CC0D4F8002522F0804242F044
:101B30000042C4F80025C4F808C595F85C20FEF7FB
:101B4000F7FFF0E67CB504680546D4F84004019040
:101B5000D4F8400420F02E0000900198800709D5A9
:101B60000198C00702D02846FEF77CFF009840F09D
:101B7000020000900198000724D5009840F008006A
:101B80000090019840071AD5A869022803D0E86898
:101B900001280CD00FE00198C0F3414002282868CA
:101BA00003D0012102F032FA05E00221FAE74EF6F5
:101BB0006020C4F804042846FFF728F902E028460C
:101BC000FFF720F901988006009802D540F0200028
:101BD0000090C4F840047CBD2DE9F0410246006845
:101BE0000646016AC1F3434301F00F07C1F30A142B
:101BF000022B25D1002C23D007EB870102EBC10576
:101C0000696C00291CD0224602F01FFA686C20443F
:101C10006864E86C2044E86406EB4710D0F81015BF
:101C2000084A11420CD0D0F8001521F0804141F053
:101C30000041C0F8001515F8500F80F00100287021
:101C4000BDE8F0810000F81FFEE7000020B100228F
:101C500001210248FEF7FABE0122F9E7000802401E
:101C600010B504490448FEF7E0FD0249491E08701A
:101C700010BD000055000020A071000830B587B0ED
:101C800014216846FEF7E6FA15480024016841F081
:101C900080010160016801F080010591016841F057
:101CA00004010160016801F004010591016841F03F
:101CB0000101016000680B4D00F001000590002259
:101CC00001212846FEF7C2FE01210091CDE9011451
:101CD000694628460394FEF7DDFD07B030BD0000DD
:101CE000303802400008024010B501220B490C4870
:101CF00000F027FD08B1FEF796FD0A49084801F0FB
:101D00008BFD08B1FEF78FFD054801F0C8FD0028E6
:101D100003D0BDE81040FEF786BD10BDB538000801
:101D2000D001002034000020014801F061BC000017
:101D3000D0010020FEE7000010B501220649074847
:101D400003F0D0FC0649087008B106A000E00DA021
:101D5000BDE8104000F0C6B8550000206C08002017
:101D6000000000204552524F5221212120696E204F
:101D70006D6F756E74696E6720555342202E2E2E3E
:101D80000A000000555342206D6F756E7465642023
:101D90007375636365737366756C6C792E2E2E0A8A
:101DA00000000000FEE700000148FEF70DBF000044
:101DB000A8050020704770472DE9F041044694B013
:101DC000142004F0E9FE8046224631A102F0FCFA1C
:101DD0004146684603F060FE2E4C002820703BD13F
:101DE0002D4D05F11A062C49684603F0B7FE207008
:101DF00000282ED1A87E00282BD0287BC00636D5FF
:101E0000314626A0FEF738FA0028ECD0314626A04D
:101E1000FEF732FA0028E6D01E2004F0BDFE074689
:101E2000324628A102F0D0FA384600F05BF8384676
:101E300004F07EFB4046FEF718FA074608EB070061
:101E4000324623A102F0C0FA4046FFF7B5FF2070EA
:101E500048B1684603F0CEFA404604F069FB2078AA
:101E600014B0BDE8F081002108F80710BBE71E2080
:101E700004F092FE07463346424616A102F0A4FA49
:101E8000384600F02FF8384604F052FBABE700006C
:101E90002573000000000020B00000205359535467
:101EA000454D7E310000000053797374656D2056F6
:101EB0006F6C756D6520496E666F726D6174696FC8
:101EC0006E0000004469723A2025730D0A0000007C
:101ED0002F25730046696C653A2025732F25730AF8
:101EE0000000000010B50446FEF7BFF9214682B29B
:101EF000BDE810404FF0FF330148FFF767BB00001B
:101F00006C000020FEF7B6BF30B593B030216846B4
:101F1000FEF7A0F914210CA8FEF79CF91C48002537
:101F2000016841F080510160006800F0805011901C
:101F30001848016841F4804101600068022400F4FF
:101F40008040119001200090000401908001CDE9B3
:101F50000640042008904820CDE9090403200B9096
:101F60006846FFF70BF908B172B6FEE70CA90F201F
:101F700081E831004FF480500F90109002210CA89E
:101F8000FFF712F8002801D072B6FEE713B030BD9B
:101F900040380240007000400548016841F470017B
:101FA000016003494FF0006080390860704700000D
:101FB00088ED00E02DE9F041044600680169E2681F
:101FC00021F44051114301612169A068E26908438D
:101FD0006169114308432168CA6849F20C639A4356
:101FE0000243CA6020684169A26921F4407111432B
:101FF0004161E069192764253226B0F5004F354A62
:10200000354920684FF0000806D0884201D0904240
:1020100036D1FFF773F835E0884201D0904202D103
:10202000FFF76CF801E0FFF759F861684A18A0FB68
:10203000070148EB0803FEF7C3F80146B0FBF5F0D3
:102040000201B1FBF5F06FF01803584301EB80007B
:1020500006EBC000B0FBF5F000F0F80002EB400228
:10206000B1FBF5F0584301EB800006EBC000B0FB7C
:10207000F5F000F00700216810448860BDE8F081A9
:10208000FFF72CF861688B0F8A00A0FB0701FEF7B1
:1020900097F80146B0FBF5F06FF01802504301EBE2
:1020A000800006EB0010B0FBF5F000F0F002B1FB91
:1020B000F5F002EB0012B1FBF5F06FF01803584396
:1020C00001EB800006EB0010B0FBF5F000F00F0014
:1020D000D1E7000000140140001001402DE9F0415B
:1020E000984617460E460446069D1DE0681C1BD008
:1020F0002DB1FEF7B1FCA0EB0800A84214D920686E
:10210000C16821F4D071C1602068416921F00101EA
:102110004161202084F8390084F83A00002084F8D6
:1021200038000320BDE8F0812068006836EA00002E
:1021300004D00020B842D9D00020F3E70120F9E70D
:1021400010B500224FF6FF7300EB8204B4F884430D
:1021500024040BD49A4207D002F00F0300EB830053
:1021600041F40041C0F88413D0B210BD521CD2B269
:102170000B2AE9D31A46F7E77FB51C46012501AEC5
:102180000023009586E80E0002232A46214600F02F
:10219000D1FB04B0002070BD7FB51D4690F81D3303
:1021A000089C03B100240123CDE90031CDE90224CC
:1021B00002230022294600F0BDFB04B0002070BDC0
:1021C00010B500F0DDFA002010BD8278012A07D199
:1021D0000222027401224274002242828182C2825F
:1021E0000022114600F00FB87FB51C46012501AE54
:1021F0000023009586E80E002A46214600F09AFB4F
:1022000004B0002070BD70B504460120A3780546D7
:10221000012B0BD0022B08D1204600F014F958B145
:10222000032809D0022800D1A57070BDA160A28149
:1022300025760221A17070BDA5700021217670BDA8
:102240007FB51D4690F81D33089C03B1002401237F
:10225000CDE90031CDE9022400231A46294600F0D9
:1022600069FB04B0002070BD1FB500231446CDE902
:1022700000310822CDE902231A46214600F05AFB1C
:1022800004B0002010BDFEF7F3BA000070B505469B
:10229000002005F54E7500BF00EB800404EBC00480
:1022A00005EB4404E67B0A348E4201D0FF2909D1B4
:1022B000A679964201D0FF2A04D1E4799C4206D047
:1022C000FF2B04D0401CC0B20228E5D3FF2070BD14
:1022D0000B2907D200EB8100B0F88413C1F30E0183
:1022E000C0F884130020704730B48578029C012D1B
:1022F0000FD141F080010174062141740321428213
:10230000B1EB122F02D140F2094100E0002181829D
:10231000C482224630BC1946FFF775BF0A8803788D
:102320001A440A80017808447047F8B50E4600F157
:102330001C05009104462B464FF400720021FFF764
:10234000D3FF070005D13246294604F54E7001F04F
:10235000E1F83846F8BD38B50D460091044600F561
:102360008E734FF480720021FFF7BEFF002839D131
:1023700094F81C1184F8261394F81D1184F827137F
:10238000B4F81E11A4F8281394F8201184F82A1325
:1023900094F8211184F82B1394F8221184F82C134B
:1023A00094F8231184F82D13082D1BD9B4F82411A7
:1023B000A4F82E13B4F82611A4F83013B4F8281199
:1023C000A4F8321394F82A1184F8341394F82B11DA
:1023D00084F8351394F82C1184F8361394F82D11E1
:1023E00084F8371338BDF8B51C461646009341F4FF
:1023F000407200F58E731D460021FFF775FF00281F
:1024000014D16978032911D129788A1EA24200D8F3
:1024100014460021A2B2AD1C04E06B5C891C06F8D6
:10242000013B89B29142F8D300213170F8BD01001F
:102430004FF0000004D0012901D0022901D0022070
:102440007047012070472DE9F84F0125017E0446B1
:102450000B26092728464FF007084FF0050A4FF0D2
:102460000D090C2919D2DFE801F0B4060E26313C23
:1024700048606B7C899A627904F110012046FFF76D
:10248000F3FE022012E06179204600F0D4F9012821
:1024900004D0042871D002287FD09AE0207CE18A01
:1024A00000F0800021B180283AD10320207690E00E
:1024B000802814D02EE0D4F8C403E0812379A289C7
:1024C0002046A168FFF790FE0420EFE7217920461F
:1024D00000F0B1F9012802D0052840D056E0277657
:1024E00077E000906379A2892046A168FFF7A8FEF3
:1024F000D4F8C403E0810620D8E76179204600F0D3
:102500009AF9012806D0052807D0022808D0042807
:1025100009D05EE084F818805BE00C2020761EE095
:1025200084F818A055E0267652E00022237911465F
:102530002046FFF759FED4F8C403E0810820B5E730
:102540002179204600F077F9012804D0042824D00E
:10255000052804D03DE084F81890002539E00325D3
:1025600037E000900022637911462046FFF768FEAD
:10257000D4F8C403E0810A2098E70EE06179204690
:1025800000F059F9012804D00228A8D0042804D06A
:102590001FE0002584F818901BE0267619E0617E84
:1025A000491CC9B26176022902D82076A07010E0D9
:1025B000D4F8D4230621204690470025657661791A
:1025C0002046FFF785FE21792046FFF781FE257022
:1025D00002252846BDE8F88F2DE9FE430446012672
:1025E000407800250D27B04604F58E7208280CD2DD
:1025F000DFE800F0042A3C686F86929908212046A3
:10260000FFF7A9FE10B103280DD097E094F82D0331
:10261000A07184F8018094F81D130091CDE9015058
:1026200094F81C3338E094F81E03401CC0B284F8C0
:102630001E03032818D861792046FFF749FE217947
:102640002046FFF745FE59E012212046FFF783FEA2
:10265000A8BB022047E000BF94F81E03401CC0B294
:1026600084F81E03032840D9277067E00121204623
:1026700001F0EBF810B1032822D05FE00220FFF751
:1026800002FE84F81C8303206070A07994F81D1367
:10269000CDE900154346029021798022204600F0C2
:1026A0002FFFA07994F81D130091CDE9015094F803
:1026B0001C3361790022204600F022FF3EE00EE04C
:1026C00027702EE009212046FFF72FFE38B904209D
:1026D00009E0B4F83A132046FFF727FE10B10328AB
:1026E000BAD02BE00520607028E061792046FFF722
:1026F000EFFD21792046FFF7EBFD657025701DE0A9
:1027000094F8341306250AE0FF232046FFF76BFEFA
:1027100038B1032805D011E094F8351307250029B6
:10272000F2D165700AE094F8361331B1FF232046E8
:10273000FFF759FE08B1032800D100263046BDE856
:10274000FE8370B50E46040018D084F8CC23002513
:10275000C4F87C53C4F8805304F54874FEF73AF883
:10276000E57025706570A570A4F548740EB1C4F8C5
:10277000D463204600F072F8002070BD022070BDC6
:1027800010B5D0F8D003FEF788F9BDE81040FFF788
:102790004EBE012180F82013002180F8211380F81B
:1027A00022130846704710B50446012084F821031F
:1027B000002084F8200384F82303204600F0B1F8B9
:1027C00021792046FFF784FD61792046FFF780FDDF
:1027D000002010BD10B590F8CC03012802D10846A6
:1027E000FFF734FAC820FEF743F8002010BDD0F8F8
:1027F000D003FEF74CB910B50124D0F8D003FEF792
:102800003CF920B1012805D0022803D101E00024C1
:1028100000E00224204610BDD0F8D00301EB810176
:1028200000EBC10090F83B1011B190F850007047D8
:1028300090F851007047D0F8D003FEF721B9D0F8D6
:10284000C413491CC0F8C41301780B2905D1D0F872
:102850007C13002901D089690847704710B50446E8
:1028600090F8CC0301281CD10F484FF0A041002262
:10287000C0F8C042C4F8D003016008218160012182
:10288000C0E903120221C0E90612FEF735FA08B1C9
:10289000FDF7C9FF0448FEF7EDF80146204600F0B9
:1028A00024F8002010BD0000A8050020FEB508AFE8
:1028B00097E870008DE87000D0F8D003FEF7FFF8BD
:1028C000BDE8FE40FFF7B3BD002180F82313704739
:1028D000012180F82313704710B5D0F8D003FEF71C
:1028E00099FABDE81040FFF7A2BDC0F8C4137047C5
:1028F000D0F8D00301EB810100EBC10090F83B1050
:1029000011B180F8502001E080F85120002070477C
:1029100010B5D0F8D003FEF784FABDE81040FFF7F9
:1029200086BD10B5D0F8D003FEF791FABDE810408F
:10293000FFF77DBD2DE9FF410DF1280898E8F00073
:102940008DE8F000D0F8D003FEF7F3F804B0BDE84E
:10295000F041FFF76CBD03460220D3F87C13C96930
:102960002AB1012A05D189791846FFF72EBCC97909
:10297000FAE77047D0F87C030549C069416505490D
:102980008165012100F8501F817000207047000010
:1029900055534243504030202DE9F84F0746D0F8B8
:1029A0007C0301263546C4694FF00B0A4FF00A0B31
:1029B00094F850004FF009094FF007080C2845D251
:1029C000DFE800F0D20611252E4852757EA7AFCB66
:1029D00084F86110022084F85000009563791F226A
:1029E00004F1540159E061793846FFF724FF0128CA
:1029F00002D002287ED03FE0E06D002829D094F874
:102A00006000000601D503204BE0052049E0237952
:102A100062893846D4F88C10FFF7AEFB042040E002
:102A200021793846FFF707FF01284FD16289E06D11
:102A300090420CD9D4F88C10801A1144C4F88C1030
:102A4000E0656BD023793846FFF796FB8CE00020D9
:102A5000E06563E00095637922893846D4F88C10EC
:102A6000FFF79AFB06201CE061793846FFF7E3FE8A
:102A7000012804D00228C8D0052815D074E0228986
:102A8000E06D9042E3D9D4F88C10801A1144C4F858
:102A90008C10E06542D0009563793846FFF77CFBE7
:102AA00062E084F850005FE084F850B05CE0237985
:102AB0000D2204F178013846FFF75EFB0820F0E7AD
:102AC00021793846FFF7B7FE012802D005281DD02E
:102AD0004AE004F8505F3846A570D7F87C13CC69FB
:102AE0002179FFF784FE0D280CD12149A06F88427F
:102AF00008D100E036E0A16DE06F884202D194F881
:102B0000840008B102262FE000262DE084F85090C2
:102B10002AE000223846FFF71EFF38B984F85080BB
:102B200022E001223846FFF716FF10B1042811D029
:102B30001AE061793846FFF76FFEC0F10100C2B2BA
:102B400061793846FFF7D4FE217900223846FFF735
:102B5000CFFEDBE784F850A006E0384600F015F819
:102B6000060001D184F850503046BDE8F88F0000CF
:102B700055534253A1220274FE2242740022428223
:102B800082820122C282FFF73EBB21210174FF2114
:102B90004174002141828182C1820A46FFF733BB22
:102BA00070B5D0F87C130125CC69A17B21B1022935
:102BB00002D003292ED127E02146FFF7DBFF0021B9
:102BC0000546032801D01DB124E02170002504E052
:102BD0002078022801D9022001E02078401C2070D2
:102BE000002002230CE000BF00EB800202EBC002D9
:102BF00004EB8202401C82F8923082F8C110C0B20D
:102C000022788242F0D805E00021FFF7DEFA08B909
:102C1000E07BA073284670BD10B51446D0F87C2325
:102C20000078D3690B2801D0022010BD01EB810090
:102C300000EBC10003EB8001342220469031FDF708
:102C4000F0FA002010BD70B50546D0F87C030026D0
:102C5000C469617939B12846FFF7B2FA617928462B
:102C6000FFF736FB6671217939B12846FFF7A8FADC
:102C700021792846FFF72CFB2671D5F87C03C06923
:102C800020B103F055FCD5F87C03C661002070BD6F
:102C9000FEB50546D0F87C0350230622017928466C
:102CA000FFF7F4FA0646FF2823D0022E21D2014670
:102CB000284600F0BFFDE0B94FF48077384603F0B6
:102CC0006BFFD5F87C130446C861200011D039464B
:102CD000FDF7C0FA06EB860000EBC60005EB4000EE
:102CE00090F84E130A0606D5E171B0F850136181D1
:102CF00005E00220FEBDA171B0F85013218190F8CB
:102D000056130A0604D5E171B0F85803608103E058
:102D1000A171B0F858032081002020736073A07364
:102D2000A1792846FFF70CFA6071E1792846FFF790
:102D300007FA20712846FFF71DFE208995F81D131C
:102D400002260091CDE9016095F81C33A2796179E2
:102D5000284600F0D5FB608995F81D130091CDE958
:102D6000016095F81C33E2792179284600F0C8FB10
:102D7000217900222846FFF7BBFD61790022284611
:102D8000FFF7B6FD0020FEBD2DE9F0470746D0F85D
:102D90007C034FF0010AC469207B10B101282DD1BA
:102DA0002CE1B4F8F800217801254FF000088842A2
:102DB0006FD200EB800101EBC00004EB8000022623
:102DC00080F89150B4F8F8004FF0050900EB80014D
:102DD00001EBC00104EB810292F8901009290DD299
:102DE000DFE801F0050C1F880DB10C0CFF0004207A
:102DF00082F89000D7F8C403C4F8FC0000E1C1B227
:102E000038469F3200F08CF940B9B4F8F80000EB76
:102E1000800101EBC00004EB8000B6E002287DD009
:102E200099E0C1B2384600F0ABFA10B1022831D0B7
:102E300091E0B4F8F80000EB800101EBC00004EB76
:102E4000800090F8921011B180F8C15001E080F834
:102E5000C180B4F8F820032002EB820101EBC2012B
:102E600004EB810181F89000B4F8F81001EB8102C5
:102E700002EBC10104EB810181F89180B4F8F810F4
:102E800001EB810202EBC10104EB810181F8928028
:102E9000B6E0AAE0B4F8F80000EB800101EBC00056
:102EA00004EB800090F89210022902D080F8C15003
:102EB00001E080F8C180B4F8F81001EB810202EB68
:102EC000C10104EB810181F89090B4F8F80000EBA7
:102ED000800101EBC00004EB800080F89150B4F851
:102EE000F80000EB800101EBC00004EB800080F8EB
:102EF000926085E0C1B23846943200F0BBF90028F8
:102F00008CD1B4F8F80000EB800101EBC00004EBB9
:102F1000800080F89050B4F8F81000E008E001EB71
:102F2000810202EBC10104EB810181F8918031E063
:102F3000B4F8F81001EB810202EBC10104EB81014E
:102F400081F890905CE0C1B238469C3200F0CFF935
:102F500020B1022823D004282DD051E0B4F8F80085
:102F600000EB800101EBC00004EB800090F89C10A6
:102F7000062901D002290BD1D7F8C413D4F8FC20BC
:102F8000891A42F21072914202D280F8906037E0C2
:102F900080F8905034F8F80F401C208030E0B4F8EE
:102FA000F810082001EB810202EBC10104EB810162
:102FB00081F8900024E0B4F8F80000EB800101EB08
:102FC000C00004EB800080F89050B4F8F80000EBEB
:102FD000800101EBC00004EB800080F891600FE0FD
:102FE000FFE7401CA4F8F8000AE0A4F8F880257375
:102FF000D7F8D42302213846904701E04FF0000A69
:103000005046BDE8F08700002DE9F843D0F87C2356
:1030100001EB810303EBC103D269012502EB8304B9
:10302000082794F890302E46052B22D000224FF02E
:103030000508062B02D0072B2AD10CE000230092B2
:103040001A4600F0D7F80BE002280FD018E000BFB6
:1030500084F890701BE0002300921A4600F0B6F945
:103060000028F1D184F89060002511E084F8908068
:103070000EE004F19C0200F03AF920B1022807D0DA
:103080000428E5D004E004F8906F02206070022567
:103090002846BDE8F8832DE9F8430446D0F87C03C0
:1030A000089E0F46C56994F8200360B120780B286C
:1030B00009D107EB870000EBC70005EB800090F813
:1030C0009010012902D00220BDE8F883062129735F
:1030D00080F89010A5F8FA7039462046009600F066
:1030E00089F8D4F8C48340F271204FF001094643B7
:1030F00009E0D4F8C413A1EB0800B0EB061F0CD80C
:1031000094F8200348B139462046FFF77DFF012897
:10311000EFD085F80C900020D6E785F80C90D2E728
:103120002DE9F0411546D0F87C2302270026D4690A
:103130004FF0010894F85220012A02D0022A56D1F9
:1031400026E024208022E06584F860200A2284F8AA
:103150006220C4F86360C4F86760A4F86B60122250
:1031600084F86320490184F8641084F8656084F869
:10317000666084F8670084F86860022084F85080F4
:1031800084F8520004F110000127C4F88C002EE0EE
:10319000FFF702FC07002AD122212846FDF75AF842
:1031A000D4F88C00007800F01F006870D4F88C0010
:1031B000007840092870D4F88C004078000602D5C9
:1031C00085F8028000E0AE7054F88C0F1022816800
:1031D000C5F80310C068C5F80700216805F10C00A8
:1031E0001031FDF71EF82068006AC5F81D0038464A
:1031F000BDE8F0812DE9F041154602461F46D2F8A0
:103200007C330220069EDC6994F85230012B06D0F4
:10321000022B2DD1BDE8F0411046FFF7BDBBB4F83D
:10322000980010217043E065802084F860000A2037
:1032300084F8620004F16300FDF70CF8282084F89C
:103240006300280E84F86500280C84F86600280ABC
:1032500084F8670084F86850300A84F86A0084F8BB
:103260006B60012004F8500F0220A0700120E7637A
:10327000BDE8F08170B51646D0F87C230125D469ED
:1032800094F85220012A02D0022A2ED11AE00820F6
:10329000E065802084F860000A2084F86200102134
:1032A00004F16300FCF7D6FF252084F863000120B9
:1032B00084F85000022084F8520004F11000C4F891
:1032C0008C0012E0FFF768FB05000ED154F88C0F5C
:1032D0004188427849BA007862F31F4141EA0060B0
:1032E00030602068C08840BAB080284670BD70B594
:1032F000154602460E46D2F87C130220CC6994F89B
:103300005210012914D0022911D131461046FFF77D
:1033100043FB00280BD154F88C1F897801F00F0172
:1033200029702168097B69702168497BA97070BD8B
:103330000E258020E56584F860000A2084F862008C
:10334000102104F16300FCF785FF032084F863007B
:10335000700184F86400002084F8650084F8660039
:1033600084F8675084F86800012084F85000022037
:1033700084F8520004F11000C4F88C00012070BDE4
:1033800070B502460220D2F87C33DC6994F85230E2
:10339000012B06D0022B18D1BDE870401046FFF774
:1033A000FBBA0025E56584F860500A2084F86200C5
:1033B000102104F16300FCF74DFF84F863500120F5
:1033C00004F8500F0220A070012070BD2DE9F041DB
:1033D000154602461F46D2F87C330220069EDC6961
:1033E00094F85230012B06D0022B2DD1BDE8F041CC
:1033F0001046FFF7D1BAB4F8980010217043E06589
:10340000002084F860000A2084F8620004F1630060
:10341000FCF720FF2A2084F86300280E84F865005A
:10342000280C84F86600280A84F8670084F868503D
:10343000300A84F86A0084F86B60012004F8500FA9
:103440000220A0700120E763BDE8F08100207047F2
:10345000D0F87C230078D2690B2808D101EB8100D9
:1034600000EBC10002EB800090F8910008B1002051
:103470007047012070472DE9F8430446D0F87C03DB
:10348000089E0F46C56994F8200360B120780B2888
:1034900009D107EB870000EBC70005EB800090F82F
:1034A0009010012902D00220BDE8F883072129737A
:1034B00080F89010A5F8FA70394620460096FFF77C
:1034C00085FFD4F8C48340F271204FF001094643D0
:1034D00009E0D4F8C413A1EB0800B0EB061F0CD828
:1034E00094F8200348B139462046FFF78DFD0128A6
:1034F000EFD085F80C900020D6E785F80C90D2E745
:10350000FEB508AF97E870008DE87000FFF7CEF9C0
:103510000020FEBD2DE9F84105460B782B704B7855
:103520006B704B886B800B792B714B796B718B793E
:10353000AB71CB790846EB710027097A2972092A09
:1035400054D90921ADF800104BE06946FEF7E6FEBC
:103550004178042943D107EB870101EBC70105EB53
:103560004108017888F80A10417888F80B108178B2
:1035700088F80C10C17888F80D10017988F80E10C1
:10358000417988F80F10817988F81010C17908F115
:103590000A0488F81110017A2172002615E06946A4
:1035A000FEF7BCFE417805290FD108EBC601027871
:1035B0000A7542784A7582788A75C278CA75828897
:1035C0000A838279761C8A76F6B22179B14204D9CF
:1035D0006A88BDF800108A42E1D87F1CFFB2022F32
:1035E00004D26988BDF800209142AED8BDE8F881C8
:1035F000FEB5022104468DF8001094F82123002026
:10360000012A01D10322227022780D2608270025E5
:103610000C2A17D2DFE802F0061734DEF869C27C04
:10362000848C9AD794F8200300280BD001202070B6
:10363000C820FEF728FE2046FFF74EF984F81C53F9
:10364000C4F8C853E0E094F8230301280DD0D4F85F
:10365000C803B0F57A7F0CD994F81F03401CC0B2A0
:1036600084F81F03032870D86DE084F81F5321707D
:10367000CAE00A30C4F8C8030A20FEF704FEC3E01B
:10368000D4F8D42312B10421204690476420FEF7D9
:10369000FAFD2046FFF7AFF884F81D0305202070DF
:1036A00000212046FEF74CFD607180212046FEF788
:1036B00047FD20710146A07994F81D230092CDE9C1
:1036C000015094F81C3380222046FFF719FFA0799F
:1036D00094F81D130091CDE9015094F81C336179E1
:1036E00000222046FFF70CFF8EE02046FEF774FF15
:1036F0008DF800009DF80000002808D184F82453BC
:1037000094F83703012801D0072058E027707BE0A8
:10371000D4F8D423002A77D0012120469047F5E73A
:1037200094F83D13204600F09EF8B0BB092046E017
:1037300094F83F034FF00A05800604D50121204686
:1037400000F09FF848BB25705EE03AE0D4F88013A3
:1037500019B3C4F87C5394F8471300BF04EB8002FC
:10376000D2F8782312798A4206D104EB8000D0F88F
:103770007803C4F87C0304E0401C10F0FF00EDD097
:103780002846F0B1816820468847D0B906202070CD
:10379000D4F8D42303212046904735E0D4F87C03A5
:1037A00078B10169204688478DF800009DF8000037
:1037B00020B19DF80000022803D025E00B202070E6
:1037C00022E0267020E0D4F87C03E8B1416920466D
:1037D000884719E084F821532046FCF7FBFFD4F812
:1037E0007C0320B1C16820468847C4F87C53D4F8D4
:1037F000D42312B105212046904794F822030128D2
:1038000004D02046FFF784F80020FEBD84F8225340
:10381000204600F044F8F7E7002211B1D0F88033D9
:1038200013B10222104670470123C0F88033C0F85C
:103830007813F7E70246002092F83C338B4202D916
:1038400082F824137047022070478278012A06D13B
:10385000002202740523437441828282C2820022C4
:103860001146FEF7D0BC8278012A06D100220274EC
:103870000923437441828282C28200221146FEF7EC
:10388000C2BC8278012A06D1002202740323437449
:1038900041828282C28200221146FEF7B4BC10B57A
:1038A0000446FFF735F801212046FEF793FF00207C
:1038B00010BD000010B501292DD01748022909D0EC
:1038C000042926D0052926D103210170BDE8104026
:1038D00000F04CBC02210170FEF72EFAFCF702FE4C
:1038E0000EA0FEF769FA0EA0FCF764FE0FA0FCF72D
:1038F00061FE11A0FCF7AAFE15A10FA000F06CFC60
:103900001BA0FCF7A3FEBDE810401FA118A000F00B
:1039100063BC0121017010BD1C0000202F000000BD
:103920002F466F6C64657231000000002F466F6C8B
:1039300064657232000000002F6B6875656E6775F4
:1039400079656E63726561746F722E7478740000AD
:1039500043687563206361632062616E20686F63F2
:1039600020746170207675692076650A0000000079
:103970002F466F6C646572312F6578616D706C6570
:103980002E7478740000000046696C65206E6179C1
:103990002064612064756F632074616F2072610A16
:1039A000000000000020704730B58DB0154601249E
:1039B00049B1012909D0022910D0032918D00424C3
:1039C0000DB0204630BD0024FAE701466A460E4895
:1039D000FFF722F90028F3D1019813E001466A4667
:1039E0000948FFF719F90028EAD1BDF8080009E0F5
:1039F00001466A460448FFF70FF90028E0D1BDF8F8
:103A00000800400A2860DEE7D001002030B58FB002
:103A1000054600930B46014601240C48FFF73BFB8B
:103A200068B101AA29460948FFF7F6F89DF8110088
:103A3000042806D0282804D03A2803D101E0002425
:103A400000E003240FB0204630BD0000D00100206C
:103A500010B5014601240348FFF7FAFC00B1002429
:103A6000204610BDD001002030B58FB00546009330
:103A70000B46014601240E48FFF7FDFC78B101AA70
:103A800029460B48FFF7C8F89DF8110004280AD012
:103A9000272806D0282806D03A2805D103E000249C
:103AA00002E0022400E003240FB0204630BD0000F5
:103AB000D001002070B5044606990A9E049D0D9819
:103AC000012916D0E06840F04000E060204600F098
:103AD0002BF8A16B1EB321F48031A163012D07D116
:103AE000A16841F00601A160A16841F02001A16038
:103AF00070BDA16B21F48031A163E168094A1140D6
:103B0000E160E16821F44011E160012803D1E0683F
:103B100040F48010E060204600F006F8DEE741F453
:103B20008031DAE7BFFFBDFF01220C4902E0521CE1
:103B30008A420BD80369002BF9DA026942F00102CC
:103B40000261012204E0521C8A4201D9032070471D
:103B50000369DB07F7D1002070470000400D030028
:103B6000816821F0010181600020704700EB411065
:103B7000064AC0F81025D0F8001521F0804141F028
:103B80000041C0F8001500207047000000000880C8
:103B900008B5D0F8402422F02E020092D20405D4B9
:103BA000012909D1009941F4805103E021B900991C
:103BB00021F48051C0F84014002008BD816841F014
:103BC0000101816000207047002110220261054A36
:103BD000491C914201D9032070470369DB06F7D4E1
:103BE00000207047400D03000022202343EA81118A
:103BF00001610549521C8A4201D9032070470369BB
:103C00009B06F7D400207047400D0300D0F808044D
:103C100080B2704708B5D0F840040090C0F341402E
:103C200008BD406900F00100704700EB4111D1F878
:103C300000254FF47A73C2F381426AB1022A0BD095
:103C4000D1F8002542F08042C1F80025D0F81004D8
:103C500010F47F0F2ED009E0D1F8002542F0804209
:103C6000C1F80025C06A10F47F0F07D0D1F8000515
:103C700040F00040C1F8000500207047D1F8000571
:103C800020F00040C1F80005D1F8000540F00040E8
:103C9000C1F80005D1F8000520F40040C1F8000586
:103CA000012002E0401C9842E6D8D1F80025002A05
:103CB000F8DBE1E7D1F8000520F00040C1F800058D
:103CC000D1F8000540F00040C1F80005D1F800052A
:103CD00020F40040C1F80005012002E0401C984299
:103CE000CAD8D1F80025002AF8DBC5E72DE9F04352
:103CF0000026DDE9078500EB4114771EDDF82490EE
:103D0000C4F80875CDB1012D32D0022D15D0032D88
:103D100027D00126D0F8187401F00F0C012101FA08
:103D20000CF10F43C0F81874816941F00071816192
:103D300010062AD54FF4004028E040F29D47C4F811
:103D40000C75170605D500BFD4F80C7547F48077BD
:103D500018E0C76BFF05DDD5D4F80C7547F0600798
:103D600010E040F29D67C4F80C751706ECD4D1E75B
:103D700040F22527C4F80C751706CBD5D4F80C757E
:103D800047F4C077C4F80C75C4E70020B8F1020FFF
:103D900018D000214FF0FE5707EA83534FF4F04745
:103DA00007EAC22213434FF4402202EA854213433A
:103DB000C9F30A02134303430B43C4F80035032D30
:103DC00003D008E04FF40031E4E7D4F8000540F0F8
:103DD0000050C4F800053046BDE8F083D0F8140464
:103DE00080B27047F8B54C78C56B4FF48073ED0521
:103DF0004FF0000715D50D799DB912B1012A07D0F2
:103E00000FE04D79012D0CD12146FFF7AFFE8CE07C
:103E100000EB4415D5F80C6526F06006C5F80C6576
:103E20004F710E695EB10D892E44761EB6FBF5F614
:103E3000B6B29E4204D91E462B020B6100E0012659
:103E4000CB78CBB30B897343C1F810306FF060456A
:103E5000C3F3120305EAC6452B438D7A4FF0C046E3
:103E600006EA45752B4300EB44140546C4F81035AB
:103E700012B1CB68C4F81435D5F80834D4F800551D
:103E800043F3000325F00055C4F80055D4F800555D
:103E90005B1C45EA4373C4F80035D4F80055244B45
:103EA0001D601D6825F080451D60CD78002D1D68C2
:103EB00005D045F4004504E0FFE70B69C6E725F4AB
:103EC00000451D601D6845F000451D601B68C4F875
:103ED000003552BBCA7842BB0A6932B3CB7933B1E1
:103EE000012B0FD0022B02D0032B17D10AE0D21CDA
:103EF000C36AC2F38F029BB293420FD2826942F02F
:103F000020020AE0D21CD0F81034C2F38F029BB218
:103F1000934203D2826942F08062826100970A8AEA
:103F200093B24A78C96800F00EF90020F8BD00008D
:103F3000200000202DE9F0410025DDF8188017460B
:103F40000446C0F8005E806B40F40010A063A06BD4
:103F500020F40020A063A06B20F48020A063E06B1D
:103F6000C00501D5012B04D0D4F8000420F00401D1
:103F700003E0D4F8000440F004012046C4F8001423
:103F80001021FFF731FE2046FFF71EFE0020461EDF
:103F900007E000BF04EB4011C1F80865C1F80C55FB
:103FA000401C8742F6D801212046FFF7F1FDC820CA
:103FB000FCF75EFCA5616661E06BC00506D54FF4B9
:103FC000007060620C48A0620C4804E080206062CF
:103FD0000B48A0620B48C4F80001B8F1000F03D1F0
:103FE000A06940F01000A061A06907490843A061E2
:103FF0000020BDE8F0810000000200010003E000A5
:1040000080006000E0004000080020A3D0F80024F9
:1040100022F00302C0F80024D0F8002401F00303CA
:104020001A43C0F80024012902D0022903D006E077
:104030004BF6803101E041F27071C0F804140020A9
:1040400070474169806908407047D21C10B59308D9
:10405000002200F5805002E00468521C10C19A4210
:10406000FAD3084610BD38B50446D0F8400420F015
:104070002E00009040F48070C4F84004642004F5E1
:104080008864FCF7F5FB009820F4807020600A201B
:10409000FCF7EEFB002038BD10B5C26822F0C0422C
:1040A000C260012902D029B1012010BDC16841F0D0
:1040B000005102E0C16841F08041C1603220FCF74C
:1040C000D7FB002010BD000030B5044680680025F5
:1040D00020F00100A06010212046FFF785FD20465A
:1040E000FFF772FD5FF0000004EB4011D1F80025EE
:1040F00022F0802242F08042C1F80025401C0F28A7
:10410000F2D900204FF47A7304EB4011D1F8002566
:1041100022F4004242F04042C1F800256D1C9D424D
:1041200003D8D1F80025002AF8DB401C0F28EBD972
:104130004FF0FF30C4F814046061A06840F0010043
:10414000A060002030BD10B5029C64B9DB1C9C0847
:1041500000EB0230002300F5805002E004C9026049
:104160005B1CA342FAD3002010BD000010B5012251
:104170000649002001F0B6FA0549087020B105A0F3
:10418000BDE81040FDF7AEBE0AA0F9E755000020DB
:10419000000000204552524F5221212120696E20FB
:1041A000554E4D4F554E54494E4720555342200AC7
:1041B0000000000055534220554E4D4F554E54457A
:1041C00044207375636365737366756C6C792E2E0A
:1041D0002E0A0000FEE700002DE9F0410E460546DC
:1041E000334901F0DBFC334C207030B1642002F025
:1041F000D3FC06462A4630A157E00222294636481B
:1042000001F09CFA207000284FF064000FD002F0FB
:10421000C3FC06462B46227830A13EE03046FDF72F
:1042200061FE304602F084F92078BDE8F08102F0AA
:10423000B3FC07462A4633A100F0C6F83846FDF71E
:1042400051FE384602F074F93046FCF70EF8194B6F
:10425000024608333146204801F05CFD207070B101
:10426000642002F099FC06462B46227830A100F02B
:10427000ABF83046FDF736FE304602F059F91648E5
:1042800001F0A4F8207000284FF0640008D002F07C
:1042900083FC06462B46227831A100F095F8BDE755
:1042A00002F07AFC06462A463BA100F08DF8B5E7FD
:1042B000B0000020000000204552524F5221212121
:1042C000202A25732A20646F6573206E6F74206521
:1042D00078697374730A0000A81800204552524F81
:1042E00052212121204E6F2E20256420696E206FDF
:1042F00070656E696E672066696C65202A25732A71
:104300000A0000004F70656E696E672066696C6513
:104310002D2D3E20202A25732A2020546F2057520D
:10432000495445206461746120696E2069740A00F3
:104330004552524F52212121204E6F2E20256420BC
:104340007768696C652077726974696E6720746F2D
:10435000207468652046494C45202A25732A0A00A6
:104360004552524F52212121204E6F2E202564208C
:10437000696E20636C6F73696E672066696C652077
:104380002A25732A206166746572207772697469C0
:104390006E672069740A000046696C65202A2573DF
:1043A0002A206973205752495454454E20616E6447
:1043B00020434C4F534544207375636365737366A4
:1043C000756C6C790A0000000FB4084B10B504A995
:1043D00002AA039800F02CF8044602A9002000F07D
:1043E0003DF9204610BC5DF814FB00005D46000856
:1043F0000907090E002804DB00F1E02080F8001412
:10440000704700F00F0000F1E02080F8141D7047A5
:1044100002E008C8121F08C1002AFAD1704770478D
:10442000002001E001C1121F002AFBD170470000EB
:104430002DE9FF4F8BB09A460F460446002606E052
:1044400025280BD052460D999047641C761C207885
:104450000028F5D10FB03046BDE8F08F0025A94601
:1044600001227D4900E0054314F8013F203B02FA98
:1044700003F00842F7D120782E2817D114F8010F45
:1044800045F004052A280ED06FF02F022078A0F105
:10449000300109290AD809EB890102EB410100EB3F
:1044A0000109641CF2E757F8049B641C20786C280F
:1044B0000DD004DC4C2812D06A2811D104E07428F5
:1044C0000DD07A280CD10AE045F4001507E0617898
:1044D00045F48015814202D1641C05F58015641CE9
:1044E000207869283ED006DC0028B3D063280BD0A2
:1044F000642804D136E0732810D075285CD0524669
:104500000D999047761CA5E017F8040B8DF8000074
:1045100000208DF80100E846012003E057F8048BE5
:104520004FF0FF3069074FF0000501D40AE06D1C21
:104530004D450DDA8542FADB18F805100029F6D151
:1045400006E06D1C8542FCDB18F805100029F8D147
:104550002E4404E018F8010B52460D9990476D1E49
:10456000F8D277E000200A90C5F302504FF00A0B12
:1045700002280CD001CFC117021E71F100020CDA23
:104580000023D0EB030063EB01012D2208E0FF1DA7
:1045900027F00707F7E80201EEE72A0504D52B22EA
:1045A0008DF82420012203E0EA070FD02022F7E74C
:1045B0000DF12008089218E000200A90C5F302507F
:1045C0004FF00A0B022803D001CF00210022EFE7B1
:1045D000FF1D27F00707F7E80201F7E75A460A9B95
:1045E000FBF7EEFD303208F8012D50EA0102F5D15B
:1045F000ADEB080000F1200B680701D44FF0010972
:10460000D94502DDA9EB0B0000E000208146002522
:1046100006E009A85246405D0D9990476D1C761C36
:1046200008988542F5DB04E0302052460D9990470A
:10463000761CB9F10001A9F10109F5DC05E018F8D3
:10464000010B52460D999047761CBBF10001ABF16E
:10465000010BF4DC641CFAE6092801000A68531C0B
:104660000B60107070472DE9F04705469046891E93
:10467000CA0880899946B2FBF0F36C6B01F0070120
:104680001E19B2FBF0F300FB13274FF0010A0AFAE0
:1046900001F0C4B23146761C284602F0D0FA10B1BF
:1046A0000120BDE8F0875146EA1992F83C0020420B
:1046B00002D04FF0010C01E04FF0000CCC4501D1CD
:1046C0000220EEE7604082F83C00B8F10100E9709A
:1046D0008046E6D0600010F0FF04E5D1A8890124EF
:1046E0007F1C8742E0D30027D4E7000010B50446C2
:1046F0000020E070401EA063204602F0A0FA08B13E
:10470000042010BD04F23A2002F09DF9A0F52A41E0
:10471000553901D0032010BD94F83C00E92805D09C
:10472000EB2814D194F83E00902810D104F17200C7
:1047300002F053F90B49B1EB002F06D004F18E00C3
:1047400002F04BF90849884201D1002010BD0B222C
:1047500006A104F13C0002F055FA08B1022010BD98
:10476000012010BD0046415446415433EB7690453C
:10477000584641542020200000E0401C02780AB135
:104780008A42FAD1D0B27047F0B50022144D1346D8
:1047900005EB021426685EB10768BE4209D166685F
:1047A0008768BE4205D1A468066BB44204D000E01D
:1047B0000123521C022AEBD3022A01D069B904E07A
:1047C0004BB9022907D01220F0BD05EB02108089F9
:1047D000B0F5807F01D00020F0BD1020F0BD0000BA
:1047E0000029002030B50021054B0C4603EB0112D7
:1047F0001568854200D11460491C0229F6D330BDEA
:104800000029002070B505681646046D1946AA896E
:1048100000233046241DFBF7D3FC6A890023FBF7F5
:10482000CFFC02CC21B1884204D3401A241DF8E702
:10483000002070BD2168084470BD026A891E921E66
:104840008A4201D800207047426B408901FB00205A
:10485000704700002DE9F05F82460C4601F11A0016
:1048600002F0F1F878BB2078012700F03F00401EED
:1048700000EB8001DFF8589001EBC00500264FF6F1
:10488000FF7B00BF19F80600204402F0DCF88046E8
:104890006FB1FF2D17D201F05BFB07463AF8150008
:1048A0006D1C01F055FB87420DD1474601E0D8450C
:1048B00009D1761C0D2EE5D32078400606D52FB100
:1048C0003AF8150010B10020BDE8F09F0120FBE789
:1048D000347200082DE9F04706685FEA01080746D0
:1048E00026D04146384601F08BFE022841D3411CB8
:1048F0001CD0316A814219D8454630784FF0FF39D3
:1049000004281CD02C46306A641CA04202D8022421
:10491000022D0AD32146384601F072FE80B30128E9
:1049200004D0411C02D0AC42EDD10020BDE8F0879C
:10493000B56915B1306AA842DFD80125DDE701224B
:104940002946304601F074FB04004BD0601C49D06E
:1049500001231A4621463046FFF785FE022808D07B
:10496000012808D0B8F1000F07D0F979022908D042
:104970000FE00120DAE74846D8E70221F9712DE07F
:104980001EE0691C8C4229D0B968691AB9610321FB
:10499000F97108F101018C4206D1F96909B1491C8C
:1049A00000E00221F96119E0F869012500B9FD6113
:1049B00022464146384601F022FB80B9FD6113E0F2
:1049C0004A462146304602F08DF940B9B8F1000060
:1049D0000AD001462246304602F084F920B101286F
:1049E0000FD001242046A1E7B461D6E90701891E52
:1049F000884201D8401EF061307940F001003071EA
:104A0000F0E74C46EEE700002DE9F84F82460068DB
:104A10000E680024076988462546705D6D1C2028B5
:104A20001AD32F2813D05C2811D0FF2C39D20121A2
:104A300001F072FA5FEA000933D0B9F1800F12D2A7
:104A400001466DA0FFF798FE58BB0CE06D1C715D30
:104A50002F29FBD05C29F9D07219C8F80020202832
:104A600005D204250FE027F81490641CD5E7002533
:104A700009E000BF07EB440030F8020C202801D009
:104A80002E2802D1641E002CF4D1002027F8140037
:104A90003CB10B2220210AF1400002F0C9F80026A7
:104AA00003E00620BDE8F88F761C37F816002028B2
:104AB000FAD02E28F8D01EB145F0030500E0641EA0
:104AC0002CB107EB440030F8020C2E28F7D14FF040
:104AD00000094FF0080BCDF8009000BF37F8160022
:104AE00006F101065FEA000824D0B8F1200F04D0D7
:104AF000B8F12E0F04D1A64202D045F00305EDE730
:104B00000098584501D2A64219D1BBF10B0F0FD026
:104B1000A64201D045F003050CD84FF008000090E4
:104B20004FEA896026464FF00B0B4FEA1069D5E734
:104B300045F003059AF84000E52838D03AE04046B1
:104B4000B8F1800F10D3002101F0E6F95FEA000808
:104B500005D02C4901EB080010F8800C804645F088
:104B60000205B8F1000F04D0014627A0FFF704FEAC
:104B700020B14FF05F0845F003050FE0A8F14100B8
:104B8000192802D849F0020908E0A8F161001928A3
:104B900004D8413049F001091FFA80F8009A0AEB65
:104BA000020181F840800098401C009096E70521A2
:104BB0008AF84010BBF1080F03D14FEA89604FEA31
:104BC0001069C9F38100032803D06FEA090189073E
:104BD00001D145F00205A90709D409F00301012913
:104BE00001D145F01005012801D145F008058AF8EA
:104BF0004B50002056E70000222A3A3C3E3F7C7F83
:104C000000000000B47100082B2C3B3D5B5D0000F0
:104C10002DE9F05F894605464022002102F008F8A0
:104C200085202870C0200026012785F82000B8467E
:104C30004024B2464FF0C10B05F804B0641C05F8DF
:104C400004A0641CB8F1000F06D039F816005FEA22
:104C5000000801D0761CF6B22819414602F08DF901
:104C6000A41CE006EED17F1C39F81600FFB2002824
:104C7000E2D185F823606F70484602F066FA01467B
:104C800005F12400BDE8F05F02F077B9401E02286C
:104C900012D20A4901EB00118889B0F5807F05D056
:104CA00008B1401E80B2888110B103E00020FAE70D
:104CB0000020086000207047022070470029002073
:104CC0002DE9F0410F4604460021066800F0E2FAA3
:104CD000E8B900253046A16B01F0B1FFB8B93178D1
:104CE0000429E16B097803D0E52905D021B107E05B
:104CF00041F3C011491C03D06D1CBD420AD000E035
:104D000000250121204600F0AAF80028E2D004285E
:104D100000D10720BDE8F0812DE9F05F04460021B5
:104D2000056800F0B7FA00284CD1287804280CD088
:104D3000FF264FF0FF38B146C4F84C802846A16BDF
:104D400001F07DFF07004ED13EE0286902F0FDF939
:104D500082462FE06869243001F075FE504529D164
:104D6000686940264FF0000990F8238017E0F006AC
:104D700000D1B61C6869304401F065FE01F0E8F826
:104D80002969074631F8190001F0E2F887420AD193
:104D9000A8F1010000F0FF0809F10109B61CB8F103
:104DA000000FE4D102E0B8F1000F03D1296931F816
:104DB000190030B10021204600F0DCF85FEA000B5A
:104DC000C8D05846BDE8F09FE16B087850B1CA7A68
:104DD000E52802F03F02A27135D0130704D50F2A4F
:104DE00031D105E0042738E00F2A01D0DEB11FE001
:104DF00094F84B20520629D4420606D591F80D901E
:104E000000F0BF00226B0646E264B04208D14A7B44
:104E10004A4505D12869FFF71DFD08B1761E00E05F
:104E2000FF26F6B212E0084602F0E0F8484514D03A
:104E300094F84B00C00706D10B2204F14001E06B4F
:104E400001F0E0FE48B1FF26C4F84C800021204666
:104E500000F005F807003FF471AF3846B2E72DE9DE
:104E6000F0470546076B0468806B8946203730B1F0
:104E70002178042906D04FF40011B94205D8042046
:104E8000BDE8F0874FF08051F7E7A189B7FBF1F259
:104E900001FB1271002962D1401CA863696B4FF0BD
:104EA000000839B3A0896289B7FBF0F0521E1042A6
:104EB00055D1284601F0A4FB0646012823D9701CD1
:104EC00039D0206AB04244D8B9F1000F16D0284634
:104ED000696BFFF7FFFC060013D0012E13D0701C86
:104EE00029D0E87940F00400E871204602F0D0F8BB
:104EF00008BB0AE02089B0EB571F30D8C5F83880CE
:104F0000BDE70720BCE70220BAE7A289002104F12F
:104F10003C0001F08DFE4FF0000831462046FFF7BF
:104F20008CFC4FF00109A0630CE084F8039020464C
:104F300002F0AEF808B10120A2E7A06B08F1010869
:104F4000401CA06361894145EFD8A16BA1EB08002B
:104F5000A063314620466E63FFF76FFCA8632F63A2
:104F6000A089B7FBF0F100FB117020443C30E863EE
:104F7000002085E72DE9F0470426FF2489460546F1
:104F8000A046076859E0384601F059FE060058D19E
:104F9000E96B087898B13A78042A12D0CA7AE528E1
:104FA00002F03F02AA7108D02E2806D022F020037A
:104FB000082B15D0B446CC4515D0FF242DE004268F
:104FC0003FE0852829D1286BE864284601F05CFD84
:104FD000060036D17869007900F03F00A87132E010
:104FE0004FF0010CE7E70F2A01D014BB1CE042068A
:104FF00006D591F80D8000F0BF002A6B0446EA64E4
:10500000A04208D14A7B424505D1386901F030FE03
:1050100008B1641E00E0FF24E4B200212846FFF737
:105020001EFF060009D00CE0084601F0DFFF4045F6
:1050300009D04FF0FF30E86405E0A96B0029A2D148
:105040000EB10020A8633046BDE8F0872DE9F04F8F
:105050000446056890F84B00A1B010F0A00F03D0F3
:10506000062021B0BDE8F08F0026286900E0761CFC
:1050700030F816100029FAD12878042819D004F144
:1050800040010C2207A80B9101F0C9FD9DF82700F3
:10509000C0076CD0402084F84B0001273B4607A98D
:1050A0002A690B9801F06CFA2046FFF735FEE8BB41
:1050B00052E00F200E36B6FBF0F6B61C3146204605
:1050C000FFF7FEFD0028CCD171422022206B02EBBD
:1050D00041110844E064A06848B3E079400735D541
:1050E0006989A889D4E904234143891843F1000060
:1050F000C4E90410204600F06BFF0028B1D1421E25
:105100002046616B00F07BFF0028AAD121460CA845
:1051100001F09EFC0028A4D1D4E90423686938304A
:1051200001F006FFD4E90423686901E017E00DE00F
:10513000283001F0FDFEE079696940F0010081F856
:1051400021000CA801F01DFF00288AD1D5E9041028
:10515000FFF75EFD002084E77F1C642F9ED3642F41
:105160000FD00428F7D19DF8270084F84B009DF854
:105170002700800707D50D200C36B6FBF0F77F1C03
:1051800002E007206DE7012739462046FFF798FD2A
:1051900006007AD17F1E0A975FD0216B784201EB1F
:1051A0004011204600F076F806006ED10B9801F011
:1051B0001DFF4FF6FF7B0C902846A16B01F03FFDD1
:1051C000060062D1286903900A98D4F83C90C0B2D6
:1051D00004900C9989F80D100F2189F80B1000210B
:1051E00089F80C1009F11A0001F0C7FE0498DFF8E5
:1051F000A0A0401E00EB800101EBC008002701E0E9
:105200005E4504D0039830F8186008F101081AF8D8
:10521000071001EB0900314601F0AFFE06B95E460A
:105220007F1C0D2FECD35E4505D0039830F8180095
:1052300008B1049803E0049840F04000049089F815
:1052400000000120E87000212046FFF708FE06005C
:105250001BD10A98401E0A90AED12846A16B01F0DE
:10526000EEFC060011D120220021E06B01F0E0FCF1
:105270000B22E06B0B9901F0D2FC94F84B00E16B30
:1052800000F0180008730120E8703046E9E60000DD
:10529000347200082DE9F041046806460F46207874
:1052A000042806D04FF40010B84242D9F80640D185
:1052B00002E04FF08050F7E73763B56835B92078E2
:1052C000032808D30020256BF07125B16089A189DE
:1052D00000FB01F812E02089B0EB571F29D9206BA1
:1052E00012E0304601F08CF90546401C1FD0022D1B
:1052F0001FD3206AA8421CD9A7EB080747452946B7
:10530000EFD22046FFF799FAC6E90D5088B1A1897E
:10531000B7FBF1F10844B063A089B7FBF0F100FBE3
:10532000117020443C30F0630020BDE8F081012082
:10533000FBE70220F9E70000084910B50B5C0022EA
:1053400053B901220A540A1801EB8000127A40680E
:105350000168104688470246104610BD802D002087
:1053600030B4054C231804EB80001B7A40680469B4
:105370001846A44630BC6047802D002030B4054D4F
:105380002C1805EB8000247A406885682046AC46DE
:1053900030BC6047802D0020044A111802EB8000C9
:1053A000097A40684268084610470000802D0020B6
:1053B00030B4054D2C1805EB8000247A4068C56890
:1053C0002046AC4630BC6047802D002038B50446EE
:1053D00000F002FC00280CD16946204601F081FE55
:1053E000002806D1E06AFFF751FC002801D1002116
:1053F000216038BD38B50446694601F072FE0028C8
:1054000008D1E16A21B10846FFF740FC002801D12C
:105410000021216038BD2DE9F7478FB014468A4638
:10542000002269460FA800F051FE5FEA00097CD116
:10543000009820600098D0E90714A21E914202D87B
:10544000CAF8001071E001780025012904D0042970
:105450001AD0D0F82C803DE002240290214602A808
:1054600001F0CEF8411C03D0012803D028B105E09B
:10547000012000E0022081464FE06D1C0098641C72
:10548000006A8442EAD348E00026A41E476B00E08D
:105490003EB939467F1C01F0D2FB5FEA00093CD1DE
:1054A00000980822811991F83C1007E0CB0700D141
:1054B0006D1C4908521EA4F1010401D0002CF5D145
:1054C0008189761CB6FBF1F201FB1266002CDFD15C
:1054D00023E067B9414608F10108009801F0AFFBED
:1054E0005FEA000919D1009800F13C06878900980D
:1054F00000780228304604D001F06FFA000107D08E
:1055000007E001F0A0FA00B96D1CB61CBF1E02E056
:105510006D1C361D3F1F641EDBD1CAF80050009879
:10552000C561017941F00101017112B04846BDE841
:10553000F0872DE9F14F9CB0022269461CA800F0CB
:10554000C5FD04000098049007D104A81C9900F040
:1055500091FF040002D0042C02D080E008247EE0F9
:10556000002104A8FFF7B6F95FEA00080098418916
:10557000828901FB02F14FF00002CDE908120DD043
:10558000B8F1010F0CD0B8F1FF3F0BD001F080FD56
:10559000044601F0F0F8834634B15BE00724F8E7F5
:1055A0000224F6E70124F4E741460098FFF745F9A5
:1055B0000646009801463C308A890546002101F0E4
:1055C00037FB00984FF010090078042827D00B22F1
:1055D0002021284601F02CFB2E272F7085F80B90F8
:1055E000594605F1160001F09BFC424629460098F9
:1055F00001F082FC05F1200020222946044601F03A
:105600000EFB85F821700098069A0178032903D1D2
:10561000016B914200D10022214601F06DFC0098FF
:105620004FF0010A478987B10098866380F803A08C
:10563000761C01F02DFD04000CD100980021828918
:10564000284601F0F5FA7F1EEED104A8FFF7FEFC14
:10565000040008D00022414604A801F0DBFB1DB085
:105660002046BDE8F08F00980178042914D0139CDF
:10567000594604F1160001F053FC424621460098B9
:1056800001F03AFC84F80B90009981F803A000988F
:1056900001F0BAFC0446E2E7406959460C3001F0DB
:1056A0003FFC009841464069343001F039FC0098D5
:1056B00008994069383001F033FC00980899406936
:1056C000283001F02DFC00980321426982F8211056
:1056D000406980F8049004A801F053FC0400D6D07F
:1056E000BDE700002DE9F74181B090460298009097
:1056F000684601F0C2F8040003D50B2004B0BDE8F1
:10570000F0810D4E002756F824501DB12846FFF7B2
:1057100069F82F700198002800D0077046F824001F
:1057200002D0B8F1010F01D00020E7E7002201A963
:1057300002A800F0CBFCE1E7600000202DE9F74F64
:1057400096B004000BD002F03F06324601A917A81C
:1057500000F0BCFC05004FF0000A04D093E10920E2
:1057600019B0BDE8F08F0198029002A8179900F0D7
:1057700081FE05000ED19DF85300000601D50625D7
:1057800008E0700801D0012100E0002102A8FEF726
:10579000FBFF054616F01C0F7ED04FF00109C5B186
:1057A000042D10D10020BB4902E0401C022804D285
:1057B00001EB00121268002AF7D1022807D002A8D4
:1057C000FFF744FC054646F008065DB15BE1122593
:1057D00059E19DF80E0010F0110F7CD1700701D532
:1057E000082550E1300777D500F0C5FF074601983E
:1057F0004FF02008017804292AD0119839460E303C
:1058000001F08EFB11983946163001F089FB119991
:1058100081F80B801199019801F0CCF8074600221D
:105820001199019801F068FB119800211C3001F0DA
:1058300077FB0198002F80F803907CD0D0F8388057
:105840000022394602A801F0E5FA050058D01AE115
:10585000206001984069343001F0BFF8A0600198E1
:105860004069383001F0C4F8C4E904010198554694
:10587000416991F8211001F00201E171C4F81CA006
:1058800040693946083001F04BFB019841690D75BC
:10589000406939460C3000E03CE001F041FB0198E2
:1058A00041694D754269002182F8048040693430B5
:1058B00001F036FB0198002213464069383001F0B0
:1058C00037FB0198002213464069283001F030FB75
:1058D0000199496901E02AE02FE081F8219002A8AE
:1058E00001F04FFB0500B2D1A168D9B100222046DA
:1058F00001F090FA0546A0680199401E886107E012
:105900004146019801F09BF9054601987F1E876189
:105910007DB1B8E0002D04D19DF80E00C10602D57E
:105920000425B0E007E0B10703D5C00701D0072583
:10593000A9E0300701D546F040060198806BA064CD
:105940001198E064700801D0012100E0002102A854
:1059500000F0F0FFE06200287ED001980178042971
:1059600033D0119901F026F8A06011981C3001F095
:1059700034F8C4E9040A00BFC4F850A001992160BA
:10598000019900204FF48052C988A18084F83060CA
:1059900084F831A0C4F844A0C4E90E00014604F123
:1059A0005400834601F044F9B0066ED5D4E904678B
:1059B00056EA070069D0C4E90E670198D4F8088058
:1059C0004189808901FB00F92FE004992162069941
:1059D0009DF80F2021F0FF01114361621599A1622A
:1059E0004069343000F0F9FFA06001984069383018
:1059F00000F0FEFFC4E904010198406990F821001D
:105A000000F00200E071B7E74146204600F0F8FDE3
:105A10008046012800D80225B8F1FF3F00D10125BA
:105A2000B6EB090667EB0A0725B9B9EB06017AEB75
:105A30000700E9D3C4F840802DBB019800238146BC
:105A4000828930463946FAF7BBFB1A431DD04146DE
:105A50004846FEF7F2FE00E019E05FEA000816D0C3
:105A6000019800238146828930463946FAF7A8FB1F
:105A700000EB0802626499F8010001235946FFF720
:105A80007DFC10B10125C4F800A0284668E6022577
:105A9000F9E700000029002073B582B0040009D0A6
:105AA0000022694603A800F011FB05004FF0000634
:105AB00003D050E0092004B070BD00992160204659
:105AC000039900F0D7FC050017D194F84B000006AD
:105AD0000AD4A079C0063DD50098017804290FD0DA
