:020000040800F2
:10000000580600209D010008BF1700085717000878
:10001000BD170008450700089319000800000000FC
:10002000000000000000000000000000C3170008EE
:100030005D08000800000000C1170008C51700088F
:10004000B7010008B7010008B7010008B7010008B0
:10005000B7010008B7010008B7010008B7010008A0
:10006000B7010008B7010008B7010008B701000890
:10007000B7010008B7010008B7010008B701000880
:10008000AD070008B7010008B7010008B701000874
:10009000B7010008B7010008B7010008B701000860
:1000A000B7010008B7010008B7010008B701000850
:1000B000B7010008B7010008B7010008B701000840
:1000C000B7010008B7010008B7010008B701000830
:1000D000B7010008B7010008B7010008B701000820
:1000E000B7010008B7010008B7010008B701000810
:1000F000B7010008B7010008B7010008B701000800
:10010000B7010008B7010008B7010008B7010008EF
:10011000B7010008B7010008B7010008B7010008DF
:10012000B7010008B7010008B7010008B7010008CF
:10013000B7010008B7010008B7010008B7010008BF
:10014000B7010008B7010008B7010008B7010008AF
:10015000B7010008B7010008B7010008B70100089F
:10016000B7010008B7010008B7010008B70100088F
:10017000B7010008B7010008B7010008000000003F
:10018000B7010008B7010008DFF80CD000F09CFAB6
:1001900000480047A1230008580600200648804771
:1001A00006480047FEE7FEE7FEE7FEE7FEE7FEE75C
:1001B000FEE7FEE7FEE7FEE74518000889010008B4
:1001C0002DE9F05F0546002092469B46884606468C
:1001D000814640241BE0284641464746224600F01F
:1001E000F3F953465A46C01A914110D311461846A6
:1001F000224600F0DAF92D1A67EB01084F46224635
:100200000120002100F0D1F917EB00094E41201E1A
:10021000A4F10104DFDC484631462A464346BDE8E6
:10022000F09FD2B201E000F8012B491EFBD27047CB
:100230000022F6E710B513460A4604461946FFF7B2
:10024000F0FF204610BD2DE9FE4F804681EA0300F5
:10025000C00F0C46009021F0004123F00045B8EBA0
:100260000200A94105D24046214690461C460B4655
:10027000024623F00040104347D0270DC7F30A0081
:10028000C3F30A510290401A019040286BDAC3F37D
:10029000130040F4801B0098924620B10023D2EB5B
:1002A000030A63EB0B0B01985946C0F1400250461C
:1002B00000F07BF906460D4650465946019A00F07B
:1002C00093F910EB08006141002487EA115284EA97
:1002D000E7731A4340D0009A62B3019A012A4FEAA9
:1002E000075215DC001B61EB02014FF0004202EAED
:1002F0000752CDE90042001C41F5801132462B46E1
:1003000000F093F903B0BDE8F08F40462146F9E7CD
:10031000001B61EB0201001C41F5801300185B41DA
:100320002018A2F5001747EB030140EAD570B61973
:100330006D4111E06D084FEA360645EAC0754FEA97
:100340000752001B61EB0201001C41F580114908B6
:100350004FEA30000019514132462B4603B0BDE848
:10036000F04F00F053B90098012240000023D0EB79
:10037000020263EBE073009821464FEAE074B8EBA9
:10038000000061EB0401E9E783F000435BE781F0E3
:10039000004158E72DE9FE4F81EA030404F00044D0
:1003A00021F0004100944FF0000B23F0004350EA8D
:1003B00001045ED052EA03045BD0C3F30A54C1F3D4
:1003C0000A552C44A4F2F3340194A0FB0254C1F367
:1003D000130141F48011C3F3130343F4801301FBB1
:1003E000024400FB034E840A970A44EA815447EA18
:1003F0008357A4FB076802958D0A05FB07854FEA22
:10040000932C04FB0C542705029D4FEA065847EA3B
:100410001637B5EB08056EEB070C870E920E47EA10
:10042000811742EA8312A7FB0201B6EB0B0164EBD2
:1004300000042B0D43EA0C335E1844EB1C50DA46E3
:100440005146E7FB0201C5F313044FEA0B3343EABD
:1004500014534FEA0432019C43EA0603A4F10C044E
:100460000294009CCDE900B400F0DFF803B0BDE8D1
:10047000F08F00200146F9E72DE9F04D81EA0304F1
:1004800004F0004B21F0004514464FF0000A23F021
:10049000004150EA050220D054EA01021DD0C5F304
:1004A0000A570246C5F31303C1F31300C1F30A56FA
:1004B00040F4801543F48013A7EB0608101BD646C2
:1004C00008F2FD3873EB050002D308F1010801E0E2
:1004D00092185B41B8F1000F03DA00200146BDE835
:1004E000F08D00204FF48011064684460EE0171B65
:1004F00073EB050705D3121B63EB050306434CEAB8
:10050000010C49084FEA300092185B4150EA01079C
:10051000EDD152EA030012D082EA040083EA050119
:10052000084305D0101BAB4106D20122002306E090
:1005300000224FF0004302E06FF0010253101AEB6B
:1005400006004CEB085110EB0A0041EB0B01BDE833
:10055000F04D00F05BB80EB5C10F80EAE0700844C2
:10056000CA07002140F233438DE80E000A460B46CD
:1005700000F05BF803B000BDC1F30A5210B5C1F33F
:10058000130140F2FF3341F480119A4201DA002056
:1005900010BD40F233439A42A2F2334203DC52428E
:1005A00000F012F810BD904010BD202A04DB203A64
:1005B00000FA02F1002070479140C2F1200320FAB6
:1005C00003F3194390407047202A04DB203A21FAB4
:1005D00002F00021704721FA02F3D040C2F120025C
:1005E0009140084319467047202A06DBCB17203A72
:1005F00041FA02F043EAE07306E041FA02F3D04028
:10060000C2F12002914008431946704710B5141EEC
:1006100073F1000408DA401C41F1000192185B41BB
:100620001A4301D120F0010010BD2DE9F04D924692
:100630009B4611B1B1FA81F202E0B0FA80F22032A9
:100640009046FFF7B2FF04460F4640EA0A0041EA2F
:100650000B0153465A46084313D0114653EA010092
:1006600019D0C8F140025046FFF7AEFF05460E46CE
:10067000504659464246FFF798FF084305D00120EF
:1006800004E020463946BDE8F08D0020054346EAE7
:10069000E0762C4337430A986305E40AA0EB080090
:1006A0000022FD0A44EA47540A3002D500200146E0
:1006B000E9E7010510196941DDE9084500196941BB
:1006C000BDE8F04DA2E70000064C074D06E0E068EB
:1006D00040F0010394E8070098471034AC42F6D389
:1006E000FFF756FD70250008902500080EB540F272
:1006F000334102910021CDE900110A460B46FFF774
:1007000094FF03B000BD70B5C1F30A5201F000457B
:100710000024C1F3130140F2FF3341F480119A42E7
:1007200001DA002070BD40F233439A42A2F2334214
:1007300003DC5242FFF748FF00E090402C43F1D029
:10074000404270BDFEE710B5846B204600F0ADF866
:100750000120207110BD10B5846B204600F081F897
:100760000120207110BD10B5846B206940F0040099
:100770002061204600F09BF80120207110BD10B5CB
:10078000846B206940F004002061204600F06BF883
:100790000120207110BD10B5806B00F087F810BDEE
:1007A00010B5806B00F05EF810BD0000014800F04D
:1007B00063B90000F801002001681823CAB2103A9A
:1007C000B2FBF3F2054B6FF30901032A9B5CC3658F
:1007D00000D9091D816508467047000038240008CB
:1007E00010B5014600208B698A6A4FF0C07453B17E
:1007F000B3F5005F15D072B1012A0CD0022A0AD0DD
:10080000032A09D104E01AB1012A06D0022A03D131
:10081000C96AC90100D5012010BDC96AA142FAD038
:1008200010BD002AF7D0012AF2D0022AF3D0032A01
:10083000F3D010BD30B50468256825F48025256007
:10084000046863608368402B036803D09960006884
:10085000C26030BD9A600068C16030BD704772B63A
:10086000FEE770477047704770B54379012B1AD087
:10087000012646710223037105682C6840F6FE7359
:1008800093409C43D1E900310B43934023432B60B9
:1008900001680B68C0249440A3430B6006710021DB
:1008A0004171084670BD022070BD704770477047A7
:1008B00070B5040003D02079002510B105E00120B7
:1008C00070BD6571204600F007F802202071256197
:1008D00001202071002070BD70B586B0054614213E
:1008E0006846FFF7A5FC1F492868884237D11E4893
:1008F0000026016841F000510160006800F00050DE
:10090000059019481038016841F001010160006844
:10091000694600F001000590102000900320CDE909
:100920000106124800F01AFA124C114820604FF0EC
:10093000606060604020C4E9020600012061800020
:1009400060618000A0618011C4E9070620466662EC
:1009500000F062F908B1FFF782FFAC60A56306B052
:1009600070BD0000007400404038024000000240AA
:1009700088600240F80100202DE9F04104460D4650
:100980001746617900220698012920D00126667158
:1009900002212171F5B1D4F80CC03149CCF83C10DA
:1009A000D4F80CC02F49CCF84010D4F80CC02E4914
:1009B000CCF84C102168D1F800C04CF0805CC1F834
:1009C00000C090B3042834D0082837D134E0022086
:1009D000BDE8F081D4F808C02449CCF83C10D4F824
:1009E00008C02349CCF84010D4F808C02149CCF8FD
:1009F0004C102168D1F800C04CF4805CC1F800C0F4
:100A000020B1042805D0082808D105E02268083262
:100A100004E022680C3201E022681032206801688C
:100A200041F400510160A0680EE0FFE72268143233
:100A300004E02268183201E022681C322068016854
:100A400041F000510160E068394600F04FF920683C
:100A50000168AE403143016000206071B8E70000DA
:100A600057070008A10700087F070008470700088C
:100A700097070008670700082DE9F84304464FF080
:100A80000009CDF8009063484FF41651A56D006839
:100A9000B0FBF1F72E6894F85C10082000FA01F121
:100AA00031420FD021680A6852070BD50A6822F03C
:100AB00004020A6094F85C108840A860606D40F001
:100AC0000100606594F85C104FF0010808FA01F02D
:100AD000304208D021684969090604D5A860606DD4
:100AE00040F00200606594F85C10042088403042B9
:100AF00008D021680968890704D5A860606D40F0B6
:100B00000400606594F85C1010208840304218D0D2
:100B100021680968090714D5A8602068016849039D
:100B200004D50068000308D5A16C07E00168C90579
:100B300003D4016821F008010160216C09B120464D
:100B4000884794F85C1020208840304231D02168DA
:100B50000968C9062DD5A86094F8350005282068D5
:100B6000016806D0490347D5006800031DD4616CB5
:100B70001CE021F0160101602068416921F080012C
:100B80004161206C08B9A06C20B12068016821F097
:100B90000801016094F85C103F208840A86084F848
:100BA000349084F83580216D1FE0E16B09B1204657
:100BB0008847606D00282BD0606DC00714D00520D9
:100BC00084F835002068016821F001010160009877
:100BD000401C0090B84203D820680068C007F6D1D6
:100BE00084F8349084F83580E16C002910D001B08D
:100BF0002046BDE8F04308470168C905D5D401681F
:100C000021F01001016084F8349084F83580CCE73D
:100C1000BDE8F8830C0000202DE9F041044600F007
:100C200079F906465CB1002584F83450022084F836
:100C300035002068016821F0010101600DE001200C
:100C4000BDE8F08100F066F9801B052805D9202059
:100C50006065032084F83500F2E720680068C0076B
:100C6000F0D12268116820480140D4E901031843FB
:100C7000D4E903363343184363691843A36918431F
:100C8000E3691843236A18430843616A042903D1BE
:100C9000D4E90B1319430843106020684069666A61
:100CA00020F0070130460E43012704280CD1A06A2A
:100CB0000643E06A40B12046FFF792FD20B1402094
:100CC000606584F83570BAE7206846612046FFF712
:100CD00073FD94F85C203F2191408160656584F844
:100CE00035700020ACE700003F8010F02DE9F041A6
:100CF0000446866D90F83400002501280DD00120AF
:100D000084F8340094F835700020012F07D084F85F
:100D1000340002252846BDE8F0810220FBE70227C7
:100D200084F8357060652046FFF784FD94F85C1008
:100D30003F208840B0602068016841F016010160E2
:100D4000206C20B12068016841F008010160206832
:100D5000016841F001010160DCE700002DE9F84F76
:100D600000224FF0010803254FF00F0E0B6808FA20
:100D700002F42340A3426ED14E68012E05D0022E0C
:100D800003D0112E01D0122E12D186684FEA420CE8
:100D900005FA0CF7BE43CF6807FA0CF737438760B4
:100DA0004668A6430C79C4F300149440344344606D
:100DB000C668570005FA07FC8C6826EA0C06BC409A
:100DC0003443C4604C68022C01D0122C13D1D408D7
:100DD00000EB8404A346D4F8209054074FEAD46A69
:100DE0000EFA0AF629EA06090E6906FA0AF646EA32
:100DF0000906CBF8206006680C7926EA0C0604F098
:100E00000304BC40344304604C68E40065D5364CB0
:100E1000266846F480462660246822F0030604F41F
:100E200080440094314C3444A446D4F808489607D2
:100E3000370F0EFA07F6B4432D4EB04201D100260B
:100E400024E02C4EB04201D101261FE02A4EB042D0
:100E500002D102261AE040E0284EB04201D103261A
:100E600014E0274EB04201D104260FE0254EB042D7
:100E700001D105260AE0244EB04201D1062605E044
:100E8000224EB04201D1072600E00826BE4026438C
:100E9000CCF808681E4E34684F689C43FF0300D5A9
:100EA0001C4334601A4C241D26684F689E43BF03C0
:100EB00000D51E432660164E083634684F689C43A2
:100EC000FF0200D51C433460114E0C3634684F6865
:100ED0009C43BF0200D51C433460521C102AFFF40F
:100EE00045AFBDE8F88F00004438024000300140B3
:100EF000000002400004024000080240000C0240D2
:100F0000001002400014024000180240001C024081
:100F1000003C01400148806870470000000000204C
:100F20000248816802781144816070470000002007
:100F30000B4810B5016841F400710160016841F48B
:100F400080610160016841F480710160032000F05C
:100F50006FF8002000F006F800F024F8002010BD23
:100F6000003C024070B50D4D04464FF47A7128786C
:100F7000B1FBF0F00A490968B1FBF0F000F0E4FAC7
:100F800048B9102C07D200222146501E00F030F83C
:100F900000206C6070BD012070BD000000000020CA
:100FA0000C0000200A4808B5016841F48041016046
:100FB000006800F4804000900548001F016841F07F
:100FC00080510160006800F08050009008BD000072
:100FD00044380240002809DB00F01F020121914043
:100FE0004009800000F1E020C0F8001170470000C7
:100FF000F0B40E4B1B680C46C3F30223C3F1070584
:10100000042D00D90425191D072901D2002300E071
:10101000DB1E012606FA05F1491E214099409E403B
:10102000761E16403143F0BC00F0CCBC0CED00E065
:10103000064900F0070208684FF6FF03184040EA2F
:101040000220034A10430860704700000CED00E0E6
:101050000000FA052DE9F0470E46050065D0DFF8DF
:101060001481D8F80000F7B200F00F00B04207D2A8
:1010700088F80070D8F8000000F00F00B04254D19A
:1010800028683D4C810712D5400703D5206840F4FD
:10109000E05020602878000703D5206840F46040C5
:1010A00020602068A96820F0F000084320602878BC
:1010B000C0072DD0304968680839012812D00228AD
:1010C00013D0032811D00968890700292DDA216877
:1010D00021F0030101432160FFF71CFF814641F22B
:1010E000883A0EE009688903EFE709688901ECE7AF
:1010F000FFF710FFA0EB0901514502D90320BDE81D
:10110000F0872068696800F00C00B0EB810FEFD128
:10111000D8F80010404601F00F01B14207D907701E
:10112000006800F00F00B04201D00120E7E7287806
:10113000400705D52068E96820F4E05008432060A6
:101140002878000706D52068296920F4604040EA25
:10115000C100206000F018F82168084AC1F30311AB
:10116000515CC8400649086006480068FFF7FAFE6F
:101170000020C4E7003C0240083802404024000838
:101180000C00002004000020154810B5006810F085
:101190000C02144813D01449042A0FD0082A0ED187
:1011A0000F4C241F2268236802F03F025B0207D520
:1011B0002068C0F38810A0FB010106E0084610BDBE
:1011C0002168C1F38811A1FB00010023FEF7F8FF9D
:1011D0002168C1F30141491C4900B0FBF1F010BD89
:1011E000083802400024F40040787D012DE9F84FD2
:1011F00004006ED02078DFF83C93C007A9F1040505
:101200004AD009F104000168C1F38101012908D025
:101210000068C0F3810002280AD1D9F8000040021A
:1012200006D52868800337D560680028E1D033E010
:101230006068B0F5803F10D0B0F5A02F286810D0BE
:1012400020F480302860286820F4802028606068BE
:10125000A8B1FFF75FFE06460DE0286840F4803035
:10126000F4E740F480202860F7E700BFFFF752FE64
:10127000801B642873D828688003F7D50CE0FFF73B
:1012800049FE064605E000BFFFF744FE801B6428C8
:10129000F0D828688003F7D42078DFF89C82800794
:1012A0004FF0000A3ED5A348001D016811F00C0F55
:1012B00008D00068C0F3810002280BD1D9F80000E3
:1012C000400207D42868800716D5E068012800D1BD
:1012D00012E02BE1E068B8B10120C8F80000FFF788
:1012E00019FE064605E000BFFFF714FE801B02282A
:1012F000C0D828688007F7D52868216920F0F80051
:1013000040EAC10028600DE0C8F800A0FFF702FE27
:10131000064604E0FFF7FEFD801B02281FD8286860
:101320008007F7D42078000722D5824E8348616970
:10133000703671B101210160FFF7ECFD074604E052
:10134000FFF7E8FDC01B022809D830688007F7D5F1
:101350000EE0C0F800A0FFF7DDFD074605E082E0E3
:10136000FFF7D8FDC01B02287DD830688007F7D46E
:101370002078400768D5DFF8BCB100270BF13C0BA3
:10138000DBF80000C0000BD4DBF8001041F0805106
:10139000CBF80010DBF80000012700F0805000902F
:1013A000674E3068C00510D4306840F480703060FB
:1013B000FFF7B0FD009005E0FFF7ACFD0099401A83
:1013C000022850D83068C005F6D55A4EA0686C3651
:1013D00001280FD00528306810D020F001003060BF
:1013E000306820F004003060A068B8B1FFF792FDCB
:1013F00000900FE0306840F00100F4E740F0040096
:101400003060F7E7FFF786FD0099411A41F2883016
:10141000814266D830688007F4D50EE0FFF77AFD88
:10142000009007E0FFF776FD0099411A41F28830FD
:10143000814256D830688007F4D42FB1DBF8001011
:1014400021F08051CBF80010A069C8B33949091DBB
:101450000968C1F3810102294AD00228504607D009
:10146000C8F8600000E03CE0FFF754FD04463BE0B4
:101470004746C8F86000FFF74DFD064605E000BF8F
:10148000FFF748FD801B02282BD828688001F7D47D
:10149000D4E907010843A16A2A4A490802EB01413D
:1014A000626A41EA8211084394F82C1040EA016113
:1014B000C9F8001001203866FFF72CFD044606E04D
:1014C00036E000BFFFF726FD001B022809D8286878
:1014D0008001F7D52CE000BFFFF71CFD001B0228A0
:1014E00002D90320BDE8F88F28688001F4D41FE0FA
:1014F0000128F7D0D9F80000E26900F48001914298
:1015000014D1226A00F03F0191420FD147F6C07119
:10151000626A0140914209D1A26A00F440319142CD
:1015200004D1E16A00F07060884201D00120D9E75F
:101530000020D7E70438024000004742800E4742AF
:10154000007000400000FFFF10B5401EB0F1807F2A
:1015500001D3012010BD4FF0E02460610F2160171E
:1015600000F030FA0020A06107202061002010BDAB
:1015700070B590F83C20012A32D0012480F83C401C
:10158000022280F83D2003685A689D6822F07006A8
:101590000A6832435A60134B02689A4214D0B2F17F
:1015A000804F11D0104B9A420ED0104B9A420BD064
:1015B0000F4B9A4208D00F4B9A4205D00E4B9A42DD
:1015C00002D00E4B9A4204D1496825F0800319439A
:1015D000916080F83D40002180F83C10084670BDC5
:1015E000022070BD000001400004004000080040DF
:1015F000000C004000040140004001400018004081
:1016000010B5040003D094F83D0010B107E00120AC
:1016100010BD002084F83C00204600F00DF80220A8
:1016200084F83D00211D206800F01AF9012084F89B
:101630003D00002010BD000008B50068B0F1804FEB
:1016400008D10548016841F001010160006800F01F
:101650000100009008BD000040380240022180F8DF
:101660003D1001688A6802F00702062A03D00A6862
:1016700042F001020A60012180F83D10002070470D
:1016800070B5044690F83C00012817D0012584F875
:101690003C50022084F83D002068826822F07702E6
:1016A00022F47F4282600868502830D00DDC202868
:1016B0004DD005DC98B310283BD148E0022070BD26
:1016C000302844D0402834D139E0602828D0702810
:1016D00006D0B0F5805F2CD0B0F5005F29D10AE0CC
:1016E000CB68D1E90121206800F01EF920688168EB
:1016F00041F0770109E0CB68D1E90121206800F0D1
:1017000013F92068816841F48041816011E0CA6862
:101710004968206800F01AF95021206807E016E0B7
:10172000CA684968206800F022F96021206800F04A
:1017300005F984F83D50002084F83C0070BDCA686B
:101740004968206800F002F940212068EFE722682C
:1017500001461046EBE7FEE710B586B000241648B8
:10176000009401940294039404944FF080410594F2
:1017700001600F21C0E901146321C0E903148461F1
:10178000FFF73EFF08B172B6FEE74FF480500090BD
:1017900069460948FFF774FF08B172B6FEE72020DA
:1017A000CDE9040404A90448FFF7E2FE002801D0B3
:1017B00072B6FEE706B010BD28000020FEE7FEE787
:1017C00070477047FFF7ACBB10B592B03021684648
:1017D000FEF72EFD14210CA8FEF72AFD1748002461
:1017E000016841F080510160006800F08050119064
:1017F0001348016841F4804101600068069400F4D8
:10180000804011900220009001200390102004904D
:101810006846FFF7EBFC08B172B6FEE70F20CDE992
:101820000C040E940F9400210CA81094FFF712FCE6
:10183000002801D072B6FEE712B010BD4038024059
:10184000007000400548016841F4700101600349DF
:101850004FF00060803908607047000088ED00E0BC
:10186000F0B50268254C264D264E274F274B4FF0EA
:10187000804CA04209D0604507D0A84205D0B042B4
:1018800003D0B84201D0984204D122F0700E4A68C9
:1018900042EA0E02A0421BD0604519D0A84217D0E0
:1018A000B04215D0B84213D0984211D0184DA8427A
:1018B0000ED0184DA8420BD0174DA84208D0174D96
:1018C000A84205D0164DA84202D0164DA84203D119
:1018D00022F44075CA682A434D6922F080022A43E7
:1018E00002608A68C2620A688262A04201D098429D
:1018F00001D10969016301214161F0BD000001408E
:101900000004004000080040000C004000040140BA
:1019100000400140004401400048014000180040E0
:10192000001C00400020004010B5846842EA0322F9
:1019300024F47F440A432243826010BD826822F06F
:1019400070020A4342F007018160704710B5036AD4
:10195000046A24F001040462846924F0F00444EA77
:10196000021423F00A020A438461026210BD10B51A
:10197000036A23F0100303628369046A23F470434B
:1019800043EA023224F0A00343EA011182610162BA
:1019900010BDFEE703B401984100009850EAC12051
:1019A00018BF04204A0D18BF40F0010040F2FF723A
:1019B000B2EB515F08BF40F00200012808BF0520CC
:1019C00002B070470907090E002804DB00F1E0208F
:1019D00080F80014704700F00F0000F1E02080F85C
:1019E000141D70470000000010B52F499FED2C1BFF
:1019F0002DED020B84B0059820F000408842DCBF3A
:101A000000209DED040B32DD2849884209D104985D
:101A100040B94FF0010000F06FFC00F03DFC06B053
:101A200010BD05DB9DED040B00F02AFC06B010BDD7
:101A300068469DED040B00F03BF810F0030011D058
:101A4000012818D09DED021B9DED000B02281AD035
:101A500000F04AFA51EC100B81F0004106B041EC65
:101A6000100B10BD9DED021B9DED000B012000F041
:101A70006FFB06B010BD9DED021B9DED000B00F04D
:101A800033FA06B010BD012000F062FB51EC100BE0
:101A900081F0004106B041EC100B10BD00000000C9
:101AA0000000000000000000FB21E93F0000F07F83
:101AB0002DE9F14F04462DED020B2DED088B8AB078
:101AC0009FEDE70B80ED020B139EE74826F00045E3
:101AD00085420ADC9DED120B002084ED000B0AB05C
:101AE000BDEC088B03B0BDE8F08FE0489FEDE0ABA4
:101AF0009FEDE1BBA84247DDE14F9FEDE39B9FEDEA
:101B0000E48B9DED120B53EC1A2B51EC100B002EB5
:101B10001CDDFEF739FC41EC100BBD4208D053EC44
:101B20001B2B51EC100BFEF72FFCC4E900010BE05E
:101B300053EC192B51EC100BFEF726FC53EC182B31
:101B4000FEF722FCC4E900010120C8E7FEF77BFB99
:101B500041EC100BBD4208D053EC1B2B51EC100B89
:101B6000FEF771FBC4E900010BE053EC192B51ECBB
:101B7000100BFEF768FB53EC182BFEF764FBC4E96F
:101B800000014FF0FF30AAE7C348A84279DB9DED82
:101B9000120B51EC100B00F0B5FB41EC180B9FED54
:101BA000C00B53EC102BFEF7F5FB9FEDBF1B53EC66
:101BB000112BFEF748FBFEF7A6FD0746FEF7CBFC10
:101BC00041EC190B53EC1A2BFEF7E4FB53EC182BEA
:101BD000FEF7DDFB41EC180B53EC1B2B51EC190B02
:101BE000FEF7D8FBDFF8C8A241EC100B4FEA1558FE
:101BF0000125FA4453EC102B51EC180BFEF7C4FBF3
:101C0000032DC4E900013DD0C1F30A5005EB451195
:101C1000A8EB00001139814234DA0AEB051BB0EE63
:101C200048AA9BED000BF0EE68AA53EC102B51EC88
:101C3000190BFEF7AFFB41EC1B0B51EC1A0B53ECED
:101C40001B2BFEF7A1FB41EC180B51EC1A0B53ECCC
:101C5000182BFEF799FB53EC1B2BFEF795FB9BED26
:101C6000020B41EC1A0B53EC102B51EC190BFEF745
:101C700091FB53EC1A2BFEF787FB41EC100B6D1C0C
:101C8000B8E70EE0002EA8BF3846BFF628AF94EDA7
:101C9000000B51EC100B81F00041C4E900017842C7
:101CA0001DE7C6F3130040F4801EC6F30A50A0F2ED
:101CB000F530471100F01F05C5F12000DDF848B0F0
:101CC00008900020069007900520EC467949002DE9
:101CD00007EB0002794408BF51F8221009D051F8EF
:101CE000223001EB8201AB404A68089922FA01F1E7
:101CF0001943A1FB0E26A1FB0B131A449A4234BFD1
:101D00000123002303EB06080CEB8003D3E901A6B3
:101D10000E448E4234BF0121002192448A4411B105
:101D2000924502D903E0924501D2012100E0002151
:101D3000C3E901A641444CF82010011EA0F10100A6
:101D4000C4DC029800F10050850F0298DDE90367BA
:101D50008000DDF81480FEF7FEFB41EC1A0B3046E4
:101D6000FEF7C4FC9FED541B53EC112BFEF712FB46
:101D700041EC1B0B3846FEF7B9FC9FED511B53ECB1
:101D8000112BFEF707FB41EC180B4046FEF7AEFCAB
:101D90009FED4D1B53EC112BFEF7FCFA41EC190B98
:101DA00051EC180B53EC192BFEF74DFA53EC1B2B8F
:101DB000FEF749FA53EC1A2BFEF745FACDE9080174
:101DC000002008909DED080B53EC1A2B51EC100BE2
:101DD000FEF7DAFA53EC1B2BFEF7D6FA53EC182B6E
:101DE000FEF7D2FA53EC192BFEF7D1FA9FED381B10
:101DF00053EC112BFEF7CEFA9FED370B41EC180B8D
:101E000053EC102B9DED080B51EC100BFEF7C2FAB2
:101E100053EC182BFEF717FA9FED310B41EC180B22
:101E200053EC102B9DED080B51EC100BFEF7B2FAA2
:101E300053EC182BFEF707FA41EC100B139810F037
:101E4000004F06D06D4251EC100B81F0004141EC87
:101E5000100B284684ED000B41E600000000000056
:101E60000000000000000000FB21E93F7CD9024097
:101E700000004054FB21F93F3163621A61B4D03D48
:101E8000FB21F93F000000000000601A61B4D03D62
:101E90007370032E8A19A33BFB2139410000000017
:101EA00083C8C96D305FE43F000000000000E03FE0
:101EB0008A080000D8070000000000000000103E63
:101EC000000000000000103C000000000000103A7C
:101ED000182D4454FB21F93D3326A611460B113C25
:101EE00000000054FB21F93D10B52DED040B2DED44
:101EF000088B82B0B0EE419AF0EE619A0B9820F018
:101F000000449FED4BABB4F1795F11DA9DED0A0B04
:101F100051EC100BFEF7F7FB002801BFB0EE4A0AA8
:101F2000F0EE6A0A02B0BDEC088B04BF04B010BD2D
:101F30009DED0A0B53EC102B51EC100BFEF72AFA17
:101F400041EC180B3C480621B0EE480AF0EE680A56
:101F5000784400F081F853EC182B51EC100BFEF78D
:101F600019FA9DED0A0B41EC1B0B53EC192B51ECAC
:101F7000100BFEF70FFA41EC190B53EC1B2B51EC35
:101F8000180BFEF707FA53EC192BFEF7FDF99FED3E
:101F90002C0B41EC190B53EC102B51EC180BFEF7EA
:101FA000F9F941EC100B2848844210DA53EC192B54
:101FB00051EC100BFEF7E8F953EC1A2BFEF7E7F99A
:101FC00041EC100B02B0BDEC088B04B010BD1F48F3
:101FD000A042BCBF9FED1E1B8DED001B06DBA4F5D0
:101FE00000100190002000909DED001B51EC100BA3
:101FF00053EC112BFEF7C8F99DED000B41EC180BCB
:1020000053EC102B51EC1A0BFEF7BEF941EC1A0BF6
:1020100053EC192B51EC180BFEF7B6F953EC1A2BB5
:10202000FEF7B5F941EC100BCCE700000000000012
:10203000000000000000F03FFC0400000000000071
:10204000000000000000E03F3333D33F0000E93FD1
:10205000000000000000D23F70B504462DED028B59
:102060004D1E00EBC500B0EE408AF0EE608A90EDA8
:10207000000B35F0060017D053EC182B51EC100B69
:10208000FEF788F941EC100B6D1E04EBC50090EDD6
:10209000001B51EC100B53EC112BFEF7D4F841EC64
:1020A000100B35F00600E7D1022D36D0042D1CD0E0
:1020B000062D1CBFBDEC028B70BD53EC182B51ECF0
:1020C000100BFEF767F994ED0A1B53EC112BFEF78A
:1020D000BAF853EC182BFEF75DF994ED081B53EC9E
:1020E000112BFEF7B0F841EC100B53EC182B51EC10
:1020F000100BFEF74FF994ED061B53EC112BFEF776
:10210000A2F853EC182BFEF745F994ED040B53ECB1
:10211000102BFEF798F841EC100B53EC182B51ECF8
:10212000100BFEF737F994ED021B53EC112BFEF761
:102130008AF853EC182BFEF72DF994ED001B53ECA5
:10214000112BFEF780F8BDEC028B41EC100B70BD3B
:1021500031B504462DED040B2DED0A8BB0EE41BADE
:10216000F0EE61BA0B989DED0A0B20F00040B0F143
:10217000795F0DDA51EC100BFFF70CFC042808BF57
:1021800000F09AF89DED0A0BBDEC0A8B05B030BD4E
:1021900053EC102B51EC100BFEF7FCF841EC180B34
:1021A0009DED0A0B53EC182B51EC100BFEF7F2F8D7
:1021B00041EC190B2C48B0EE480AF0EE680A0521F4
:1021C0007844FFF749FF9FED2ACBB0EE40AAF0EE2E
:1021D00060AA9CB353EC1C2B51EC190BFEF7DAF8F8
:1021E00041EC1C0B53EC1A2B51EC190BFEF7D2F8F7
:1021F0009FED210B41EC190B53EC102B51EC1B0BF9
:10220000FEF7C8F853EC192BFEF7BEF853EC182B69
:10221000FEF7C0F853EC1B2BFEF7B6F853EC1C2B63
:10222000FEF7B2F89DED0A1B53EC112BFEF7AFF849
:10223000BDEC0A8B05B041EC100B30BDFFE753EC51
:102240001A2B51EC180BFEF7A5F853EC1C2BFDF7DD
:10225000FAFF53EC192BFEF79DF89DED0A1B53EC8A
:10226000112BFDF7F0FFE3E78403000000000000FE
:10227000495555555555C5BF000000000000E03FC9
:1022800010B553EC102B51EC100BFDF7DCFF41ECBB
:10229000100B10BD000000009FED050B10B553ECB6
:1022A000102B51EC100BFEF7E7F841EC100B10BDB2
:1022B00000000000000000009FED050B10B553EC7E
:1022C000102B51EC100BFEF765F841EC100B10BD14
:1022D000000000000000001002E008C8121F08C142
:1022E000002AFAD170477047002001E001C1121F97
:1022F000002AFBD1704700000149086070470000C8
:102300001000002082B0CDE9000121F000400190D2
:102310009DED000B02B051EC100B704770B51F4DD6
:1023200000242DED088B9FED158B9FED169B9FEDE7
:1023300017AB9FED18BB6000FEF70DF953EC182B9F
:10234000FEF728F853EC192BFEF796F841EC100B2A
:10235000FFF74AFB53EC1A2B51EC100BFDF773FF00
:1023600053EC1B2BFEF716F8FEF706F945F8240090
:10237000641C642CDFDBBDEC088B70BD4AD8124DA9
:10238000FB2109400000000000005940000000004F
:102390000000F03F000000000000A04068000020A6
:1023A0001CB5FEF7C5FDFFF70FFA204800240168B1
:1023B00041F001010160016801F001010091016833
:1023C00041F4001101600068224600F40010009002
:1023D00021461020FEF70CFE1020FEF7FBFD1549EC
:1023E00000941348019408600846FEF761FA08B1AA
:1023F00072B6FEE72420CDE90004002269460D48AC
:10240000FEF732FA08B172B6FEE7FFF7A5F9FFF75B
:1024100085FF08481430FFF721F9064A6423543237
:10242000002104480094FEF7A7FAFEE73038024086
:10243000007400401400002000061016000610165C
:102440000000000000000000010203040607080964
:102450004C5555555555A53F7751C1166CC156BFC2
:102460009015CB19A001FA3EAD529C804F7E92BED2
:10247000C4B1B4BD9EEE213ED43888BEE9FAA8BDF1
:1024800000004054FB21F93F3163621A61B4D03D32
:102490000000601A61B4D03D7370032E8A19A33B0B
:1024A0000000002E8A19A33BC14920259A837B395D
:1024B00000000000000000006E83F9A22915444EC0
:1024C000D15727FCC0DD34F5999562DB4190433C40
:1024D000AB6351FE61C5BBDE3A6E24B7E0D24D421C
:1024E000EA2E49061C92D1091CEB1DFE3EA729B11C
:1024F000F53582E88444BB2E26709CE9417E5FB4AA
:1025000039D69139F43953838B5F849C3B28F9BDCC
:10251000FF97F81F0F9805DE8B112FEF1F6D0A5ADA
:10252000CF7E366DB709CB27663F464F2DEA5F9EBB
:10253000C7BA27757BF1E5EBF739073DEA92528A76
:10254000B15FFB6B085D8D1FA6F810111111813F63
:10255000D561C119A0012ABF7DFEB157E31DC73E59
:10256000EB9C2B8AE6E55ABE7CD5CF5A3AD9E53D9D
:10257000902500080000002014000000D822000868
:10258000A42500081400002044060000E8220008EA
:102590000100000010000000000000000024F40012
:0425A0000000000037
:040000050800018965
:00000001FF
