:020000040800F2
:10000000300900209D01000853150008E514000880
:100010005115000843030008411F000800000000BC
:100020000000000000000000000000008B1E00081F
:100030004503000800000000551500088D1E00084B
:10004000B7010008B7010008B7010008B7010008B0
:10005000B7010008B7010008B7010008B7010008A0
:10006000B7010008B7010008B7010008B701000890
:10007000B7010008B7010008B7010008B701000880
:10008000B7010008B7010008B7010008B701000870
:10009000B7010008B7010008B7010008B701000860
:1000A000B7010008B7010008B7010008B701000850
:1000B000B7010008B7010008B7010008B701000840
:1000C000B7010008B7010008B7010008B701000830
:1000D000B7010008B7010008B7010008B701000820
:1000E000B7010008B7010008B7010008B701000810
:1000F000B7010008B7010008B7010008B701000800
:10010000B701000889150008B7010008B701000809
:10011000B7010008B7010008B7010008B7010008DF
:10012000B7010008B7010008B7010008B7010008CF
:10013000B7010008B7010008B7010008B7010008BF
:10014000B7010008B7010008B7010008B7010008AF
:10015000B7010008B7010008B7010008B70100089F
:10016000B7010008B7010008B7010008B70100088F
:10017000B7010008B7010008B7010008000000003F
:10018000B7010008B7010008DFF80CD000F07AF8DA
:100190000048004715300008300900200648804715
:1001A00006480047FEE7FEE7FEE7FEE7FEE7FEE75C
:1001B000FEE7FEE7FEE7FEE7251F000889010008CD
:1001C0002DE9F05F0546002092469B46884606468C
:1001D000814640241BE0284641464746224600F01F
:1001E00041F853465A46C01A914110D31146184659
:1001F000224600F028F82D1A67EB01084F462246E8
:100200000120002100F01FF817EB00094E41201ECD
:10021000A4F10104DFDC484631462A464346BDE8E6
:10022000F09FD2B201E000F8012B491EFBD27047CB
:100230000022F6E710B513460A4604461946FFF7B2
:10024000F0FF204610BD202A04DB203A00FA02F11C
:10025000002070479140C2F1200320FA03F31943B4
:1002600090407047202A04DB203A21FA02F0002156
:10027000704721FA02F3D040C2F1200291400843B6
:1002800019467047064C074D06E0E06840F0010350
:1002900094E8070098471034AC42F6D3FFF778FF94
:1002A000DC340008FC3400087047000001460148B7
:1002B00000F056BD2000002010B5044800F062FD9B
:1002C000042801D0012010BD002010BD2000002016
:1002D00010B500F00BF8012801D0012010BDBDE8D9
:1002E0001040014800F068BE2000002008B5012041
:1002F0008DF800009DF8000008BD000038B500240E
:10030000009313460A460146034800F0EDFE00B193
:100310000124204638BD0000200000207047000066
:1003200038B50024009313460A460146034800F0FE
:10033000DFFF00B10124204638BD0000200000206E
:100340007047FEE770470022AFF3008030B50E4BD8
:10035000054601205C7A002C14D1587A1C54587A36
:1003600003EB800045605D7A03F108002A54587A57
:10037000421C5A72303008703A2048702F20887022
:10038000CC70002030BD00002405002090F835100E
:10039000022903D08021416501207047052180F8A2
:1003A00035100068016821F00101016000207047EC
:1003B00070B5044600F0EAF80546601C02D0044817
:1003C0000078044400F0E2F8401BA042FAD370BD6C
:1003D000080000202DE9F84F00224FF00108032506
:1003E0004FF00F0E0B6808FA02F42340A3426ED1BF
:1003F0004E68012E05D0022E03D0112E01D0122EF0
:1004000012D186684FEA420C05FA0CF7BE43CF685A
:1004100007FA0CF7374387604668A6430C79C4F3A4
:100420000014944034434460C668570005FA07FC42
:100430008C6826EA0C06BC403443C4604C68022C2D
:1004400001D0122C13D1D40800EB8404A346D4F8B5
:10045000209054074FEAD46A0EFA0AF629EA0609F0
:100460000E6906FA0AF646EA0906CBF82060066825
:100470000C7926EA0C0604F00304BC403443046003
:100480004C68E40065D5364C266846F48046266004
:10049000246822F0030604F480440094314C344470
:1004A000A446D4F808489607370F0EFA07F6B44367
:1004B0002D4EB04201D1002624E02C4EB04201D195
:1004C00001261FE02A4EB04202D102261AE040E087
:1004D000284EB04201D1032614E0274EB04201D18C
:1004E00004260FE0254EB04201D105260AE0244E35
:1004F000B04201D1062605E0224EB04201D10726C6
:1005000000E00826BE402643CCF808681E4E34683A
:100510004F689C43FF0300D51C4334601A4C241DD4
:1005200026684F689E43BF0300D51E432660164EC3
:10053000083634684F689C43FF0200D51C43346082
:10054000114E0C3634684F689C43BF0200D51C43E3
:100550003460521C102AFFF445AFBDE8F88F00004C
:1005600044380240003001400000024000040240D4
:1005700000080240000C024000100240001402403B
:1005800000180240001C0240003C01400148806805
:10059000704700000800002002488168027811447A
:1005A00081607047080000200B4810B5016841F4D5
:1005B00000710160016841F480610160016841F4EB
:1005C00080710160032000F06FF8002000F006F851
:1005D00000F024F8002010BD003C024070B50D4D25
:1005E00004464FF47A712878B1FBF0F00A490968A3
:1005F000B1FBF0F000F062FF48B9102C07D20022E6
:100600002146501E00F030F800206C6070BD0120C3
:1006100070BD000008000020140000200A4808B542
:10062000016841F480410160006800F4804000905E
:100630000548001F016841F080510160006800F02A
:100640008050009008BD000044380240002809DBBB
:1006500000F01F02012191404009800000F1E020DC
:10066000C0F8001170470000F0B40E4B1B680C4638
:10067000C3F30223C3F10705042D00D90425191D76
:10068000072901D2002300E0DB1E012606FA05F14E
:10069000491E214099409E40761E16403143F0BCD1
:1006A00001F04FBC0CED00E0064900F007020868BD
:1006B0004FF6FF03184040EA0220034A1043086047
:1006C000704700000CED00E00000FA052DE9F0474E
:1006D0000E46050065D0DFF81481D8F80000F7B2A7
:1006E00000F00F00B04207D288F80070D8F8000080
:1006F00000F00F00B04254D128683D4C810712D55C
:10070000400703D5206840F4E050206028780007B7
:1007100003D5206840F4604020602068A96820F07C
:10072000F000084320602878C0072DD03049686861
:100730000839012812D0022813D0032811D00968E3
:10074000890700292DDA216821F003010143216086
:10075000FFF71CFF814641F2883A0EE009688903E1
:10076000EFE709688901ECE7FFF710FFA0EB09014B
:10077000514502D90320BDE8F0872068696800F080
:100780000C00B0EB810FEFD1D8F80010404601F01B
:100790000F01B14207D90770006800F00F00B042A6
:1007A00001D00120E7E72878400705D52068E968EF
:1007B00020F4E050084320602878000706D5206820
:1007C000296920F4604040EAC100206000F018F878
:1007D0002168084AC1F30311515CC840064908600A
:1007E00006480068FFF7FAFE0020C4E7003C02401C
:1007F0000838024030340008140000200C000020AB
:10080000154810B5006810F00C02144813D04110C0
:10081000042A0FD0082A0ED10F4C241F2268236807
:1008200002F03F025B0207D52068C0F38810A0FBEE
:10083000010106E0084610BD2168C1F38811A1FB43
:1008400000010023FFF7BCFC2168C1F30141491CF2
:100850004900B0FBF1F010BD083802400024F4005C
:100860002DE9F84F04006ED02078DFF83C93C007E4
:10087000A9F104054AD009F104000168C1F381011E
:10088000012908D00068C0F3810002280AD1D9F8F4
:100890000000400206D52868800337D5606800282C
:1008A000E1D033E06068B0F5803F10D0B0F5A02F04
:1008B000286810D020F480302860286820F4802038
:1008C00028606068A8B1FFF761FE06460DE0286861
:1008D00040F48030F4E740F480202860F7E700BF60
:1008E000FFF754FE801B642873D828688003F7D56F
:1008F0000CE0FFF74BFE064605E000BFFFF746FEA3
:10090000801B6428F0D828688003F7D42078DFF8AB
:100910009C8280074FF0000A3ED5A348001D016865
:1009200011F00C0F08D00068C0F3810002280BD131
:10093000D9F80000400207D42868800716D5E0687F
:10094000012800D112E02BE1E068B8B10120C8F81D
:100950000000FFF71BFE064605E000BFFFF716FE8E
:10096000801B0228C0D828688007F7D5286821692D
:1009700020F0F80040EAC10028600DE0C8F800A0AF
:10098000FFF704FE064604E0FFF700FE801B022886
:100990001FD828688007F7D42078000722D5824E18
:1009A00083486169703671B101210160FFF7EEFD86
:1009B000074604E0FFF7EAFDC01B022809D83068AB
:1009C0008007F7D50EE0C0F800A0FFF7DFFD07466F
:1009D00005E082E0FFF7DAFDC01B02287DD8306811
:1009E0008007F7D42078400768D5DFF8BCB100272E
:1009F0000BF13C0BDBF80000C0000BD4DBF800105F
:100A000041F08051CBF80010DBF80000012700F026
:100A100080500090674E3068C00510D4306840F4B4
:100A200080703060FFF7B2FD009005E0FFF7AEFD8B
:100A30000099401A022850D83068C005F6D55A4EA1
:100A4000A0686C3601280FD00528306810D020F03F
:100A500001003060306820F004003060A068B8B158
:100A6000FFF794FD00900FE0306840F00100F4E7DC
:100A700040F004003060F7E7FFF788FD0099411A65
:100A800041F28830814266D830688007F4D50EE0A4
:100A9000FFF77CFD009007E0FFF778FD0099411A11
:100AA00041F28830814256D830688007F4D42FB1A3
:100AB000DBF8001021F08051CBF80010A069C8B31A
:100AC0003949091D0968C1F3810102294AD0022868
:100AD000504607D0C8F8600000E03CE0FFF756FD44
:100AE00004463BE04746C8F86000FFF74FFD064666
:100AF00005E000BFFFF74AFD801B02282BD82868BD
:100B00008001F7D4D4E907010843A16A2A4A4908B9
:100B100002EB0141626A41EA8211084394F82C1009
:100B200040EA0161C9F8001001203866FFF72EFD88
:100B3000044606E036E000BFFFF728FD001B022850
:100B400009D828688001F7D52CE000BFFFF71EFD0B
:100B5000001B022802D90320BDE8F88F2868800115
:100B6000F4D41FE00128F7D0D9F80000E26900F4BE
:100B70008001914214D1226A00F03F0191420FD1CD
:100B800047F6C071626A0140914209D1A26A00F43D
:100B90004031914204D1E16A00F07060884201D096
:100BA0000120D9E70020D7E704380240000047427F
:100BB000800E4742007000400000FFFF10B5FFF7B5
:100BC00073FB10BD70470000F0B5426E920F0A70C3
:100BD000426EC2F383624A70426EC2F301628A704F
:100BE000426E120CCA70B0F86420120A0A7190F8B2
:100BF00064204A71826E120DCA80826EC2F3034273
:100C00000A72B0F86820C2F3C0324A72B0F86820A5
:100C1000C2F380328A72B0F86820C2F34032CA72DE
:100C2000B0F86820C2F300320A7300264E73426C9B
:100C30004FF40075012462B1012A3AD00268474995
:100C40009163816B41F08051816380F834400120D1
:100C5000F0BDB0F86820C36E9205120D42EA93729F
:100C60000A61C26EC2F3C2620A75C26EC2F3026248
:100C70004A75C26EC2F342528A75C26EC2F3824294
:100C8000CA75C26EC2F3C2320A760A69521C426544
:100C90000B7E03F007039B1C9A4042650B7A03F01E
:100CA0000F0704FA07F383655B0A5A43C0E9172567
:100CB0000EE090F86820C36E9206920A42EA134250
:100CC0000A610A69521C92024265C0E91652056621
:100CD00030F86C2FC2F3803201F8192F0288C2F36A
:100CE000C6124A70027802F07F028A704268D20F00
:100CF000CA704268C2F341720A714268C2F38262EA
:100D00004A714268C2F383528A714268C2F3405208
:100D1000CA710E724268C2F300424A728288C2F3FC
:100D2000C0328A728288C2F38032CA728288C2F369
:100D300040320A738288C2F300324A738288C2F357
:100D400081228A738288C2F30122CA730079C0F3B8
:100D5000460008744C740020F0BD0000FF05400000
:100D6000426C0A60826C4A60C26C8A60026DCA6022
:100D7000426D0A61826D4A61C26D8A61006EC8610E
:100D80000020704770B50446B0F8500000250104FB
:100D9000206800F058FD18B1A16B0143A16304E085
:100DA0000021206800F0EDFB0546C5F3432070BD2F
:100DB000F8B5056B04460068416B09041BD529078B
:100DC00019D5D4E90A56002E14D00027206800F067
:100DD000FBFB05F8010B010A05F8011B010C05F8E6
:100DE000021B000E361F7F1C05F8010C082FEDD3E7
:100DF000C4E90A56F8BD416B4FF00006C9054FF033
:100E0000010744D5390281632068C16B4CF23A3244
:100E10009143C1632068C16A21F00101C1622807C2
:100E20001DD515F0220F09D0206800F03DFD28B136
:100E3000A16B0143A1632046FFF7C4FE216840F285
:100E40003A50886384F834702663A80703D020469C
:100E500000F046FAF8BD204600F046FAF8BD280634
:100E6000FCD5A80609D5206800F01EFD28B1A16BAD
:100E70000143A1632046FFF7A5FEA807EED1206835
:100E8000C16A21F00801C16284F83470E3E7416B64
:100E9000490424D5290722D5D4E90856002EDDD0EF
:100EA0005FF0000715F8010B009015F8011B361FC5
:100EB00040EA0120009015F8021B40EA0140009032
:100EC00015F8011C40EA016000906946206800F0B6
:100ED0008EFB7F1C082FE5D3C4E90856F8BD416B93
:100EE00040F23A221142F9D0416B890703D5A16B38
:100EF00041F00201A163416B090703D5A16B41F0E9
:100F00000801A163416B890603D5A16B41F0200163
:100F1000A163416BC90603D5A16B41F01001A16328
:100F2000416B890503D5A16B41F00801A16340F233
:100F30003A7181632068C16B40F23A329143C163D8
:100F4000206800F0B1FCA16B0843A063280706D518
:100F500084F8347026632046FFF734FEF8BD280677
:100F6000FCD515F0300F0CD0E16B11480865E06B33
:100F7000FFF70CFA0028F1D0E06BBDE8F84000F074
:100F80002FBEA8070CD0216C0A480865206CFFF71B
:100F9000FDF90028E2D0206CBDE8F84000F0FEBD6D
:100FA000A66384F8347026632046FFF707FEF8BD79
:100FB000E11B00089D1B000870B504000ED094F8DA
:100FC0003400002518B92577204600F03BF80320AF
:100FD00084F83400204600F00BF808B1012070BD01
:100FE000A5632563012084F83400002070BD000053
:100FF000FEB50025044676200095CDE9015029462E
:101000000B460A46206800F0C5FA08B10120FEBD73
:101010000B4E46F8A05F206800F0CEFA012535603F
:10102000204600F077FE20B9204600F0FBFD0028A6
:10103000EDD084F83450A16B0143A163E6E70000D2
:1010400000802542F0B587B0044614216846FFF7BA
:10105000EFF82149206888423BD1204800240168EC
:1010600041F400610160006800F4006005901B48D5
:101070001438016841F004010160016801F00401C5
:101080000591016841F0080101600068022500F047
:10109000080005904FF48850CDE9000502AA032608
:1010A0000C2782E8D00069460D48FFF793F9042029
:1010B000CDE9000502AA694682E8D0000948FFF799
:1010C00089F9002211463120FFF7CEFA3120FFF7CF
:1010D000BDFA07B0F0BD0000002C014044380240CA
:1010E00000080240000C02402DE9F04F87B09B46FB
:1010F00016460D460446FFF749FA00903DB194F8B4
:101100003400012807D0A06B40F000500DE0A06B28
:1011100040F0006009E00027A763E16D06EB0B00DB
:10112000884204D9A06B40F00070A06395E00320D2
:1011300084F834002068C762606C012800D0760211
:101140004FF40071206800F08BFADFF890A10121C4
:1011500040B12368C3F838A0A26B0243A26384F8AD
:1011600034107AE04FF0FF3001904FEA4B200290AC
:10117000902003900220CDE9040706918846B946E5
:1011800001A9206800F0E7F9BBF1010F06D90220A0
:1011900020633146206800F0DFFA05E0C4F83080B3
:1011A0003146206800F0F1FA30B12268C2F838A068
:1011B000A16B0143A1634CE0029E1EE0406B000462
:1011C00013D596B10027206800F0FEF905F8010B51
:1011D000010A05F8011B010C05F8021B000E361F61
:1011E0007F1C05F8010C082FEDD3FFF7CFF900990C
:1011F000411A109881421DD2E0B12068426B40F242
:101200002A310A42DAD0416BC90509D5BBF1010F79
:1012100006D9616C032903D000F046FB0028C4D135
:101220002068416B09071AD5C0F838A0A06B40F0C0
:10123000080051E02168C1F838A0A06B40F00040E0
:10124000A06384F83480C4F83090032007B0BDE870
:10125000F08F84F83480C4F830900120F6E7416BB9
:10126000890705D5C0F838A0A06B40F0020033E034
:10127000416B89061CD5C0F838A0A06B40F0200057
:101280002AE000BF00F0A0F905F8010B010A05F8FB
:10129000011B010C05F8021B000E05F8010C361F9E
:1012A000FFF774F90099411A109881420ED268B183
:1012B0002068416B890201D5002EE3D1216840F2FC
:1012C0003A50886384F834800020BFE72168C1F871
:1012D00038A0A06B40F00040A063BAE7FF054000D3
:1012E00010B5FFF71BF810BD10B5FFF729F810BDBA
:1012F0002DE9FF4F8DB016460D460446FFF746F91F
:101300000B903DB194F83400012807D0A06B40F059
:1013100000500DE0A06B40F0006009E00027A763DB
:101320001098E16D3044884204D9A06B40F0007001
:10133000A0638BE0032084F834002068C762606CEF
:10134000012800D076024FF40071206800F088F97F
:10135000DFF864B1012140B12368C3F838B0A26B53
:101360000243A26384F8341070E04FF0FF30039022
:1013700010988946400204909020CDE90507CDE9F8
:101380000771BA4603A9206800F0E5F81098012813
:1013900006D9202020633146206800F09FFA05E03E
:1013A000102020633146206800F0B1FA5FEA00089F
:1013B00006D02168C1F838B0A06B40EA080071E09F
:1013C000049E27E0406B40041CD5DEB15FF00007AF
:1013D00015F8010B009015F8011B361F40EA01209B
:1013E000009015F8021B40EA0140009015F8011C1E
:1013F00040EA016000906946206800F0F8F87F1C20
:10140000082FE5D3FFF7C2F80B99411A1A988142C9
:1014100020D2F8B12068416B40F21A321142D1D08B
:10142000416BC90523D51099012920D9616C032985
:101430001DD000F039FAD0B12268C2F838B0A16BE3
:101440000143A16384F83490C4F830A0012011B0A6
:10145000BDE8F08F2168C1F838B0A06B40EA080001
:10146000A06384F83490C4F830A00320EFE720682C
:10147000416B090705D5C0F838B0A06B40F00800F3
:1014800010E0416B890705D5C0F838B0A06B40F07B
:10149000020007E0416BC90606D5C0F838B0A06B62
:1014A00040F01000A063CDE740F23A51816384F828
:1014B00034900020CBE70000FF05400010B5401E2F
:1014C000B0F1807F01D3012010BD4FF0E0246061B6
:1014D0000F21601700F035FD0020A061072020617A
:1014E000002010BDFEE7000010B504490448FEF7D7
:1014F0002AFF0249491E087010BD000003000020A9
:101500001C340008114808B5016841F080010160F1
:10151000016801F080010091016841F0040101605F
:10152000016801F004010091016841F001010160CE
:10153000016801F001010091016841F008010160BA
:10154000006800F00800009008BD0000303802403C
:10155000FEE7FEE770470A6842624A688262D1E9A4
:1015600002231A43D1E904310B43C16A1A4321F023
:10157000F7011143C16200207047006800F00300CA
:1015800070470844406970470148FFF711BC0000EC
:101590002000002070B50DF1100C11439CE8700084
:1015A0002343194329434268314347F6FF639A4373
:1015B0000A434260002070BD10B503210160022083
:1015C000FEF7F6FE002010BDD0F8800070470A68D4
:1015D0008260D1E901231A43D1E903310B43C16889
:1015E0001A436FF30B011143C16000207047096873
:1015F000C0F880100020704710B586B00446372030
:10160000CDE9001040200290002003904FF480604C
:10161000049069462046FFF7DAFF41F2883237210D
:10162000204600F08DF906B010BD000010B504464C
:101630000A4886B001432920CDE9001040200290DD
:10164000002003904FF48060049069462046FFF725
:10165000BEFF204600F02CFA06B010BD000010803E
:1016600010B586B004461020CDE90010402002904D
:10167000002003904FF48060049069462046FFF7F5
:10168000A6FF41F288321021204600F059F906B039
:1016900010BD000030B585B00024054600940194CB
:1016A0004FF480600294CDE9034069462846FFF775
:1016B0008EFF0B484FF4FA510068B0FBF1F041F295
:1016C00088314843401E03D24FF0004005B030BD82
:1016D000696B0906F6D5C520A8632046F6E7000029
:1016E0001400002070B585B004464FF4D57000900A
:1016F00001A908204025002681E86100C00104906E
:1017000069462046FFF763FF12484FF4FA5100681C
:10171000B0FBF1F041F288314843401E03D24FF054
:10172000004005B070BD616B11F0450FF5D00905A3
:10173000F3D4606B400701D5042003E0606BC00761
:1017400002D00120A063ECE7606B400600D5A563E2
:101750003046E6E71400002010B586B0044612209B
:10176000CDE9001040200290002003904FF48060EB
:10177000049069462046FFF72AFF41F28832122181
:10178000204600F0DDF806B010BD10B586B0044666
:101790001120CDE9001040200290002003904FF46A
:1017A0008060049069462046FFF711FF41F28832BD
:1017B0001121204600F0C4F806B010BD10B586B067
:1017C00004460720CDE9002040200290002003902D
:1017D0004FF48060049069462046FFF7F8FE41F21E
:1017E00088320721204600F0ABF806B010BD10B5D6
:1017F00086B0044600210220CDE90010C020CDE9CA
:1018000002014FF48060049069462046FFF7DFFE36
:10181000204600F025F906B010BD10B586B004468C
:101820000920CDE90010C0200290002003904FF461
:101830008060049069462046FFF7C9FE204600F00C
:101840000FF906B010BD10B586B004460D20CDE9E5
:10185000001040200290002003904FF4806004901C
:1018600069462046FFF7B3FE41F288320D2120463B
:1018700000F066F806B010BD30B585B00C460546E0
:1018800000210320CDE900104020CDE90201000134
:10189000049069462846FFF79AFE2246032128460F
:1018A00000F028F905B030BD10B586B0044600211F
:1018B0000C20CDE900104020CDE902010001049088
:1018C00069462046FFF783FE034A0C21204600F0BC
:1018D00037F806B010BD000000E1F50510B586B080
:1018E00004461920CDE9001040200290002003900A
:1018F0004FF48060049069462046FFF768FE41F28D
:1019000088321921204600F01BF806B010BD10B532
:1019100086B004461820CDE9001040200290002037
:1019200003904FF48060049069462046FFF74FFE15
:1019300041F288321821204600F002F806B010BDAE
:10194000454B10B51B684FF4FA54B3FBF4F3534303
:101950005B1E02D24FF0004010BD426B12F0450FEB
:10196000F6D01205F4D4426B520703D504218163EB
:10197000084610BD426BD20702D00121816305E009
:10198000C52282630269D2B28A4201D0012010BD11
:101990000021FFF7F6FD3149084201D1002010BDBA
:1019A000002802DA4FF0007010BD410001D5402040
:1019B00010BD810001D5802010BDC10002D54FF4BB
:1019C000807010BD010102D54FF4007010BD4101BF
:1019D00002D54FF4806010BDC10102D54FF4006004
:1019E00010BD010202D54FF4805010BD410202D556
:1019F0004FF4005010BD810202D54FF4804010BD5D
:101A0000C10202D54FF4004010BD410302D54FF48E
:101A1000003010BD810302D54FF4802010BDC103FA
:101A200002D54FF4002010BD010402D54FF4801000
:101A300010BD410402D54FF4001010BD810402D541
:101A40004FF4800010BD000702D54FF4000010BD18
:101A50004FF4803010BD00001400002008E0FFFDAE
:101A600012494FF4FA520968B1FBF2F141F288329F
:101A70005143491E02D24FF000407047426B12F0B2
:101A8000450FF6D01205F4D4416B490703D5042164
:101A9000816308467047416BC90703D00121816308
:101AA00008467047C521816300207047140000205C
:101AB0000F494FF4FA520968B1FBF2F141F2883252
:101AC0005143491E02D24FF000407047426B12F062
:101AD000450FF6D01205F4D4416B490703D5042114
:101AE000816308467047C52181630020704700006C
:101AF0001400002030B5204B4FF4FA541B68B3FBA0
:101B0000F4F341F2883463435B1E02D24FF000408D
:101B100030BD446B14F0450FF6D02405F4D4436B6C
:101B20005B0703D504218163084630BD436BDB07A7
:101B300002D00121816303E00369DBB28B4201D053
:101B4000012030BDC52181630021FFF71AFD10F48B
:101B5000604F04D0410406D54FF4005030BD000C56
:101B60001080002030BD000402D54FF4805030BDFD
:101B70004FF4803030BD00001400002010B5064C3A
:101B800001202070FEF798FB18B9207820F00100A2
:101B90002070207810BD00000100002010B5846B7B
:101BA00040F23A50216888632046FFF7EBF80121A4
:101BB00084F8341000212163062801D0052805D1BE
:101BC0002068FFF771FEA16B0843A063A06B00289B
:101BD000204602D0FEF7F6FF10BDFEF7EFFF10BD66
:101BE00010B5846B40F23A50216888632046FFF7B5
:101BF000C9F8012184F8341000212163062801D09E
:101C0000052805D12068FFF74FFEA16B0843A063AC
:101C1000A06B0028204602D0FEF7D4FF10BDFEF7CF
:101C2000CDFF10BD10B590B004460120ADF83800CE
:101C30002068FFF7A2FC002854D0606C032842D033
:101C40002068FFF7D4FD00284AD100212068FFF763
:101C500098FC606704212068FFF793FCA0670821C7
:101C60002068FFF78EFCE0670C212068FFF789FCF5
:101C7000C4F88000606C032825D00EA92068FFF707
:101C8000FBFD00282CD1606C03281CD0BDF8380067
:101C9000206501042068FFF7C0FD002820D1002145
:101CA0002068FFF76EFC606604212068FFF769FC7E
:101CB000A06608212068FFF764FCE0660C2120681C
:101CC000FFF75FFC206704212068FFF75AFC000D36
:101CD000E06403A92046FEF777FF30B14FF0805053
:101CE00010B010BD4FF08060FAE7B4F85000002348
:101CF00002042068FFF762FD0028F1D104F1100012
:101D000007C88DE8070094E80F00FFF743FC0020A8
:101D1000E6E700002DE9F84F002604460096354618
:101D2000B0460068FFF7B6FC002827D12068FFF70F
:101D3000D9FC4FF0805B4FF001094FF6FF7748B1B7
:101D4000A6642068FFF7A6FC002817D1A06C012824
:101D500002D020E0C4F8489000212068FFF74CFC36
:101D600058B918E000212068FFF746FC002805D18B
:101D700051462068FFF75AFC10B15846BDE8F88F6D
:101D800000212068FFF7FDFB05464FEAD078009858
:101D9000401C009002E0DFF82CA00098B84202D26C
:101DA000B8F1000FDED00098B84202D34FF0807037
:101DB000E4E7680002D5C4F8449000E066640020BF
:101DC000DCE70000000010C170B5064C054601209C
:101DD0002070FEF77DFA18B92846FFF7CFFE207075
:101DE000207870BD0100002010B5124888B014465C
:101DF0000078C00702D0032008B010BDC1B101298E
:101E000005D0022908D003290CD00420F4E7684645
:101E1000FEF74CFA06980AE06846FEF747FA07987C
:101E2000208005E06846FEF741FA0798400A2060E6
:101E30000020E1E70100002070B51D461646084667
:101E40000124A31E2A463146FEF758FA28B900BFDE
:101E5000FEF732FA0028FBD10024204670BDFFF7C0
:101E60008DBE000070B51D46164608460124A31E0F
:101E70002A463146FEF754FA28B900BFFEF71CFA8D
:101E80000028FBD10024204670BD7047FEF784BBBC
:101E900030B593B030216846FEF7CAF914210CA87A
:101EA000FEF7C6F91D480025016841F08051016028
:101EB000006800F0805011901948016841F4804199
:101EC00001600068022400F480401190012000901D
:101ED000000401908001CDE90640042008904820CC
:101EE000CDE9090403200B906846FEF7B9FC08B160
:101EF00072B6FEE70CA90F2081E831004FF4A05024
:101F00000F904FF48050109002210CA8FEF7DEFBDA
:101F1000002801D072B6FEE713B030BD4038024051
:101F2000007000400548016841F4700101600349F8
:101F30004FF00060803908607047000088ED00E0D5
:101F4000FEE70907090E002804DB00F1E02080F815
:101F50000014704700F00F0000F1E02080F8141D1D
:101F6000704702E008C8121F08C1002AFAD1704762
:101F70007047002001E001C1121F002AFBD1704709
:101F800010B504460020E070401EE062204601F0DB
:101F90009CF808B1042010BD04F22E2001F034F8A2
:101FA000A0F52A41553901D0032010BD94F8300026
:101FB000E92805D0EB2814D194F83200902810D1EC
:101FC00004F1660001F015F80749B1EB002F06D0C7
:101FD00004F1820001F00DF80449884201D100208B
:101FE00010BD022010BD000000464154464154334C
:101FF000F0B50022144D134605EB021426685EB1BD
:102000000768BE4209D166688768BE4205D1A468E8
:102010004669B44204D000E00123521C022AEBD3EB
:10202000022A01D069B904E04BB9022907D0122075
:10203000F0BD05EB02108089B0F5807F01D0002053
:10204000F0BD1020F0BD00000405002030B50021D7
:10205000054B0C4603EB01121568854200D1146054
:10206000491C0229F6D330BD040500200268490A44
:10207000C06A5289B1FBF2F1001D04C81AB1914245
:1020800003D3891AF8E700207047006808447047B6
:102090004269891E921E8A4201D800207047826AD6
:1020A000408901FB002070472DE9F04105680F00D1
:1020B000804606D000F0CAFE022809D20120BDE801
:1020C000F081EE6816B16869B04207D8012605E0D4
:1020D000411CF4D069698142F1D83E4634466869B2
:1020E000641CA04202D80224022E0AD32146404694
:1020F00000F0ACFE38B10128E1D0411CDFD0B44281
:10210000EDD10020DBE74FF0FF363246214628466E
:1021100000F0F4FF30B957B122463946284600F0A6
:10212000EDFF20B101280FD001242046C7E7EC6065
:10213000D5E90401891E884201D8401E286128790A
:1021400040F001002871F0E73446EEE72DE9F04158
:102150000E4624300D6804460B22202100F0AEFF0D
:102160000020014608272A5C401C202A12D92F2A69
:102170000BD05C2A09D02E2A01D0B94214D30B2FE0
:1021800022D02E2A20D10CE0401C2B5C2F2BFBD020
:102190005C2BF9D028443060B1B12078E5281FD0FD
:1021A00020E008210B27DEE7802A03D3114B1A44D5
:1021B00012F8802C10A300E05B1C93F800C0BCF167
:1021C000000F04D09445F7D10620BDE8F081A2F1BC
:1021D0006103192B01D8203AD2B26254491CC2E7DC
:1021E00005202070202A01D8042000E00020E072A1
:1021F0000020EAE740340008222A2B2C3A3B3C3DE1
:102200003E3F5B5D7C7F0000401E022812D20A49DF
:1022100001EB00118889B0F5807F05D008B1401E20
:1022200080B2888110B103E00020FAE70020086046
:102230000020704702207047040500202DE9F0417E
:1022400004460021056800F0D8F8002826D1284669
:10225000E16900F03AFF02001FD1206A017899B1CC
:10226000C17A01F03F01A171C17A09070FD404F1CD
:1022700024010B2610F8013B11F8017BDB1B761EB5
:1022800004D0002BF6D002E0042206E02BB100219E
:10229000204600F005F80200D9D01046BDE8F081D4
:1022A0002DE9F047054647690468C069894620372B
:1022B00010B1B7F5001F02D30420BDE8F087F9057F
:1022C00060D1401CE861A9694FF0000829B160891C
:1022D000401E10EA572F05D054E02089B0EB571F5D
:1022E0001DD94FE0284600F0B1FD064601281BD954
:1022F000701C33D06069B0423ED8B9F1000F0ED0E7
:102300002846A969FFF7D0FE06000BD0012E0BD09E
:10231000701C23D0204601F03DF8F8B906E0C5F85E
:102320001C80C9E70720C8E70220C6E74FF4007207
:10233000002104F1300000F0C1FE4FF000083146EA
:102340002046FFF7A5FE4FF00109E0620DE000BF57
:1023500084F80390204601F01DF808B10120ACE795
:10236000E06A08F10108401CE06261894145EFD84C
:10237000E16AA1EB0800E06231462046AE61FFF75A
:1023800087FEE861C7F30800204430306F6128629F
:10239000002092E770B504460021066800F02DF891
:1023A0000DE03046E16900F090FE50B9206A0078F7
:1023B000E52809D040B101212046FFF771FF002830
:1023C000EFD0042807D007E03046E16900F07DFE39
:1023D000050003D00FE0072005460CE02022002175
:1023E000206A00F06BFE0B2204F12401206A00F049
:1023F0005BFE0120F070284670BD2DE9F0410768B2
:102400000E460546B1F5001F36D2F00634D16E6196
:10241000AC6824B93878032805D37C6A1CB1788964
:102420004FEA402812E03889B0EB561F24D9786A69
:1024300012E0284600F00AFD0446401C1AD0022C87
:102440001AD37869A04217D9A6EB0806464521465B
:10245000EFD23846FFF71CFEC5E9064060B100EB3D
:102460005620E861C6F30800384430302862002066
:10247000BDE8F0810120FBE70220F9E7084910B52B
:102480000B5C002253B901220A540A1801EB8000A8
:10249000127A40680168104688470246104610BD0F
:1024A0002405002030B4054C231804EB80001B7A6F
:1024B000406804691846A44630BC604724050020E3
:1024C00030B4054D2C1805EB8000247A40688568EF
:1024D0002046AC4630BC604724050020044A111851
:1024E00002EB8000097A4068426808461047000005
:1024F0002405002030B4054D2C1805EB8000247A0B
:102500004068C5682046AC4630BC604724050020C2
:1025100038B5044600F028FA00280CD16946204658
:1025200000F061FF002806D12069FFF76DFE00284A
:1025300001D10021216038BD2DE9F74181B09046DD
:1025400002980090684600F0E2FC040003D50B20DE
:1025500004B0BDE8F0810D4E002756F824501DB19F
:102560002846FFF773FD2F700198002800D00770F0
:1025700046F8240002D0B8F1010F01D00020E7E7AF
:10258000002201A902A800F0FDFAE1E71C000020EA
:102590002DE9F74392B005000BD002F03F0632461A
:1025A000694613A800F0EEFA04004FF0000804D0CA
:1025B000ECE0092015B0BDE8F0830098049004A871
:1025C000139900F009FC04000ED19DF83F000006AD
:1025D00001D5062408E0700801D0012100E00021A7
:1025E00004A8FFF705FD044616F01C0F5DD04FF060
:1025F0000109C4B1042C10D10020674902E0401C3D
:10260000022804D201EB00121268002AF7D1022836
:1026100007D004A8FFF7BEFE044646F008065CB1EA
:10262000B4E01224B2E09DF8160010F0110F47D16B
:10263000700701D50824A9E0300747D500F065FCF4
:1026400007460C9839460E3000F053FE0C98394678
:10265000163000F04EFE0C982021C1720C990098A3
:1026600000F0B4FC074600220C99009800F02DFE03
:102670000C9800211C3000F03CFE009981F803907A
:1026800017B3D1F82C900022394604A800F0E3FDDE
:1026900004007BD14946009800F017FD0400009823
:1026A000A7F10107C7600DD070E0ECBB9DF81600E4
:1026B000C10601D5042469E0B10703D5C00701D0E4
:1026C000072463E0300701D546F040060098C06A51
:1026D00068620C98A862700801D0012100E0002116
:1026E00004A800F033FC2861B8B30C99009800F0FE
:1026F0006DFCA8600C981C3000F07BFCC5F82C80A9
:10270000E86000992960009905F130004FF40072EB
:10271000C988A9802E7585F81580C5F8208000210C
:102720008146C5F8188000E030E000F0C7FCB00634
:102730002ED5EE6866B3AE610098A968408947025D
:102740000FE0284600F082FB0146012800D8022451
:10275000481C03D0F61B24B105E01BE00124F61B46
:1027600001E0BE42EDD8E96184B9F00510D00098CF
:10277000FFF78EFC70B100EB56222A62009801230D
:1027800049464078FFF79CFE10B10124C5F800804F
:1027900020460FE70224F9E7040500200FB42DE9D5
:1027A000F0479CB00DF198090090002001900DF1C8
:1027B0004C080290259810F8011B2590002976D02E
:1027C000252903D0684600F00EFDF3E7002510F838
:1027D000011B2E462590302902D02D2902D010E071
:1027E000012500E0022510F8011B259009E000BF3B
:1027F00006EB860001EB40062598303E10F8011BE1
:102800002590A1F130000928F2D96C2901D04C297A
:1028100005D1259845F0040510F8011B25900029E5
:1028200045D0A1F161000A46192801D8203AD2B258
:102830004F2A42D006DC422A3DD0432A38D0442ACF
:10284000C0D13CE0532A0DD0552A38D0582AB9D1EE
:102850001023680701D4442A33D059F8040B442AC2
:1028600031D035E059F8047B002400E0641C385D69
:102870000028FBD1A80704D50CE02021684600F011
:10288000B2FC2046641CB042F7D303E068467F1CCC
:1028900000F0A9FC39780029F8D103E0202168462E
:1028A00000F0A1FC2046641CB04283D2F6E753E05E
:1028B00019F8041B86E70223CBE70823C9E70A239C
:1028C000C7E759F8040B002802DA404245F0080532
:1028D00000244746B0FBF3F203FB1202B0FBF3F017
:1028E000D2B2092A05D9782914D04FF0070C6244D6
:1028F000D2B230323A55641C08B1202CEAD32807F2
:1029000003D52D2008F80400641C2746E80704D0EE
:10291000302003E04FF0270CE9E72020824603E057
:102920005146684600F05FFCA80703D438467F1C78
:10293000B042F5D34546641E6846295D00F053FC5D
:10294000002CF8D103E05146684600F04CFC3846B4
:102950007F1CB042A9D2F6E7684600F067FC1CB0C5
:10296000BDE8F0075DF814FBF8B50446694600F0D1
:102970003AFD00280ED1217D4A060BD508060ED55A
:102980000098226A0123407804F13001FFF7B2FD7C
:1029900008B10120F8BD207D00F07F00207500F017
:1029A000B4FA0646616A009800F08FFB0028F1D166
:1029B000A56A2946E87A40F02000E872A2682068FB
:1029C00000F083FC05F11C00E16800F092FC314648
:1029D00005F1160000F08DFC002105F1120000F059
:1029E00090FC00980121C17000F090FC217D01F065
:1029F000BF012175F8BD2DE9FE4F04460020884631
:102A000018609946154602A9204600F0ECFC002803
:102A100006D1607D002803D1207D800702D40720E5
:102A2000BDE8FE8FA069012742194FF0020A04F1A8
:102A3000300B824200D2C5439BE0A169C80575D125
:102A400002984089401E10EA512618D129B1E06A47
:102A500038B12046FFF70AFB07E0A06838B900212B
:102A600000E0E1692046FFF71FFB00287DD0012828
:102A70002DD0411C54D0E061A16801B9A060207D37
:102A800000060BD50298226A012340785946FFF7C9
:102A900031FDA0BB207D00F07F002075E169029828
:102AA000FFF7F6FA98B130440190680A009027D0F9
:102AB0003218029841898A4201D9891B0091DDE9C7
:102AC000003240784146FFF715FDC0B903E084F8B5
:102AD00015A00220A4E7216A0198081A00998842EB
:102AE0000AD208EB40214FF40072584600F0DCFA9D
:102AF000207D00F07F0020750098460228E00FE05E
:102B0000216A019881420FD0E168A06988420BD206
:102B10000298012359464078019AFFF7D1FC18B179
:102B2000677501207CE701E001982062208BC0F3EB
:102B30000800C0F50076AE4200D92E462044324649
:102B40004146303000F0B0FA207D40F08000207522
:102B5000A069B0443044A061E168884200D80846CA
:102B6000E060D9F80000811900E005E0AD1BC9F86C
:102B70000010002D7FF461AF207D40F040002075F3
:102B800000204DE72DE9FF41002790460E460F60DB
:102B900000F0BDF9050003D50B2004B0BDE8F081BD
:102BA0008A4850F825409CB13460207808F0FE0631
:102BB00020B16078FFF792FCC1070BD02770E8B214
:102BC000B8466070FFF75AFCC10708D00320E4E75D
:102BD0000C20E2E70EB1400704D40020DDE71EB16F
:102BE000400701D50A20D8E7002631462046FFF7E6
:102BF000C7F9022822D100254FEA0D0704EB051082
:102C000090F8F21100F5F77019B1083000F0F1F901
:102C100000E0002047F825006D1C042DEED30025B0
:102C200057F8256036B131462046FFF7A9F902284A
:102C300001D203E003206D1C042DF1D3042809D038
:102C400002286DD204F13B0000F0DEF9B0F5007F00
:102C500066D101E00120A0E704F1460000F0D4F9BC
:102C600018B904F1540000F0C4F9A06194F8405080
:102C7000A570012D01D0022D52D1454394F83D009D
:102C80006081E8B3411E08424AD104F1410000F0DE
:102C9000BBF92081000743D104F1430000F0B4F9EF
:102CA000070004D104F1500000F0A3F9074604F135
:102CB0003E0000F0A9F9010032D02389481900EB49
:102CC000131297422CD3B81A6789B0FBF7F0B8B14A
:102CD00003274FF6F57C604500D8022740F6F57CC7
:102CE000604500D80127801C3244A26231446061F3
:102CF000C4E90761032F15D013B12944616200E0D4
:102D00000EE0022F1FD000F0010100EB400001EBAC
:102D1000500000BFA16900F2FF10B1EB502F14D298
:102D20000D203AE704F15A0000F06EF90028F7D1BF
:102D300020890028F4D104F15C0000F05AF96062A7
:102D400060698000E6E74000E4E74FF0FF30206173
:102D5000E06080202071032F2CD104F1600000F08E
:102D600053F9012826D1711C204600F0AEF908BBAA
:102D700084F8048004F22E2000F046F9A0F52A41E0
:102D8000553917D104F1300000F033F91049884269
:102D900010D104F5057000F02CF90E49884209D1D4
:102DA00004F5067000F025F9206104F5077000F0C5
:102DB00020F9E06005492770091F0888401C088039
:102DC000E0802046FFF742F907E700001C000020E2
:102DD000525261417272416173B5044605680198AF
:102DE00001E0401C019001782F29FAD05C29F8D02D
:102DF0000021A16001980078202806D2802084F864
:102E00002F002046FFF7F9FA7CBD01A92046FFF705
:102E10009DF90028F8D12046FFF710FA94F82F10FA
:102E200028B10428F0D14907EED405207CBD49071C
:102E3000FCD4A079C006F8D5A08AC0F308004119D7
:102E40002846303100F0C2F8A060DEE72DE9F041FD
:102E500004680D4602290BD36069A84208D920787E
:102E60004FF0FF36012807D002282BD0032839D095
:102E700001263046BDE8F081206A05EB550700EBDE
:102E80005721204600F021F90028F2D1C7F30800AD
:102E900020447F1C90F83080206A00EB57212046A8
:102EA00000F013F90028E4D1C7F30800204490F89B
:102EB000301048EA0120E90701D00609D9E7C0F33C
:102EC0000B06D6E7206A00EB1521204600F0FDF83E
:102ED0000028CED1E8B204EB4000303000F094F886
:102EE0000646C6E7206A00EBD511204600F0EDF853
:102EF0000028BED140F2FF1000EA850020443030A7
:102F000000F077F820F07046B3E70020704710B566
:102F100004464FF0FF302268002A13D0114600E02B
:102F2000491C0B78212B0ED33A2BF9D112F8013B17
:102F3000303B0A2B06D28A4204D1002B02D1491C15
:102F40001846216010BD002010BD0000F0B50246FB
:102F50001D4BD2F80050002003EB00142668AE424F
:102F600007D166689768BE4203D1A4685669B44227
:102F700002D0401C0228EFD3022814D1002002E026
:102F8000401C022804D203EB00142468002CF7D163
:102F900002280ED003EB0014256095686560526925
:102FA000A2600022A281002903EB0011898902D0CE
:102FB00019B10020F0BD491C01E04FF4807103EB12
:102FC0000012401C9181F0BD0405002070B506463A
:102FD0000D4601F11A0000F017F804463078032876
:102FE00005D105F1140000F00FF844EA0044204632
:102FF00070BDC178827842EA01214278007842EAC5
:10300000012140EA012070474178007840EA012020
:1030100070470000FDF7C8FAFEF73AFFFEF772FAB4
:10302000134812490160002141608160C160016163
:1030300041618161FEF758FAFDF74AF9A0B90C48E1
:1030400001220CA18430FFF777FA0B4C0A220BA166
:1030500020700E48FFF79CFA20700DA10B48FFF777
:103060009DFB0A48FFF754FAFEE70000002C0140E0
:103070002000002000000000000000207364696F41
:10308000746573742E74787400000000D4020020FC
:103090006B687565206E677579656E206372656112
:1030A000746F720A00000000002A05D011F8013B7D
:1030B00000F8013B521EF9D1704700005FFA81F120
:1030C00000F8011B521EFBD1704770B50446C06A60
:1030D0000D460026A8420FD0204600F05BF90600FE
:1030E0000AD1607801232A4604F13001FFF7E8F99C
:1030F00008B1751E0126E562304670BD2DE9F04726
:10310000022617460D460446022969D36069A84283
:1031100066D920784FF00109012804D0022836D062
:1031200003285DD143E0216A05EB550801EB5821E6
:103130002046FFF7CAFF060052D1C8F3080020441A
:10314000303008F10108E90704D00178FAB262F3DF
:103150001F1100E03946017084F80390216A20466F
:1031600001EB5821FFF7B1FF060039D1C8F3080081
:1031700020443030E90702D0C7F3071105E0017899
:10318000C7F3032201F0F0011143017026E0206A29
:1031900000EB15212046FFF798FF060020D1E8B28A
:1031A00004EB4000B9B2303000F0ABF816E0206A12
:1031B00000EBD5112046FFF788FF060010D140F242
:1031C000FF1000EA8500204430300546FFF711FF6C
:1031D00067F31B000146284600F08BF884F8039043
:1031E0003046BDE8F087F8B50E4604460A2902D1FC
:1031F0000D21FFF7F8FF6568002D16DB60196D1CC7
:1032000006733D2D0DDB6B462A4604F10C01206848
:10321000FFF7F1FB0098A84201D1002501E04FF033
:10322000FF356560A068401CA060F8BD38B54268F5
:103230000446002A0CDB6B4604F10C012068FFF702
:10324000DAFB28B960680099884201D1A06838BDCE
:103250004FF0FF3038BD2DE9F041056813460E46AA
:10326000074602292DD36869B0422AD93BB14FF0F5
:10327000FF3219462846FFF741FF00281FD131468B
:103280003846FFF7E3FD040018D0012C19D0601C6C
:1032900019D0002231462846FFF730FF00280ED112
:1032A000D5E90410821E914205D2491C2961297971
:1032B00041F0010129712646B042E0D80020BDE866
:1032C000F0810220FBE70120F9E770B50C460646C5
:1032D000154691B204F11A0000F013F83078032873
:1032E00006D1290C04F11400BDE8704000F009B8C3
:1032F00070BD0170090A4170090A8170090AC17024
:1033000070470170090A41707047000070B50446AB
:1033100000F040F8050036D1207803282CD1207920
:10332000012829D1420204F1300000210646FFF7AE
:10333000C5FE4AF6552104F22E20FFF7E2FF13499D
:103340003046FFF7D6FF124904F50570FFF7D1FFAD
:1033500004F506702169FFF7CCFF04F50770E168FA
:10336000FFF7C7FFE2690123521CE2626078314631
:10337000FFF7C0F800202071002260781146FFF7A7
:1033800091F800B10125284670BD000052526141FC
:10339000727241612DE9F0410446C0780027F8B10E
:1033A000E56A04F13001607801232A468846FFF778
:1033B000A1F808B1012713E00020E070206AA1699C
:1033C000281A88420CD2A67808E0A0690123054497
:1033D00060782A464146FFF78DF8761E022EF4D219
:1033E0003846BDE8F08170B50E4604004FF009057F
:1033F0000CD0206850B1017841B1A188C2889142B7
:1034000004D14078FFF76AF8C00703D0002030608D
:10341000284670BD00252068F9E70000C91D000896
:103420005F1E0008391E0008651E0008E91D00081F
:103430000000000000000000010203040607080964
:10344000435545414141414345454549494941412C
:103450004592924F4F4F5555594F554F9C4F9E9FF8
:1034600041494F55A5A5A6A7A8A9AAABACADAEAF3B
:10347000B0B1B2B3B4414141B8B9BABBBCBDBEBF33
:10348000C0C1C2C3C4C54141C8C9CACBCCCDCECFCF
:10349000D1D145454549494949D9DADBDCDD49DF28
:1034A0004FE14F4F4F4FE6E8E85555555959EEEF6C
:1034B000F0F1F2F3F4F5F6F7F8F9FAFBFCFDFEFF94
:1034C00001000400100040000001000200000100A3
:1034D000020004000800100020000000FC34000876
:1034E0000000002020000000621F00081C350008BA
:1034F0002000002010090000721F000800010000D9
:1035000000000000010000001000000000000000AA
:0C3510000024F400000000000000000097
:040000050800018965
:00000001FF
